S00F0000627473656E736F722E73333775
S113000000100020199C0000419C0000419C00004D
S1130010419C0000419C0000419C0000419C000068
S1130020419C0000419C0000419C0000419C000058
S1130030419C0000419C0000419C0000419C000048
S1130040419C0000419C0000419C0000419C000038
S1130050419C0000419C0000B1A30000419C0000B1
S1130060419C0000419C0000419C0000419C000018
S11300709B8A0000419C0000419C0000419C0000C0
S1130080419C0000419C0000419C0000879F0000AF
S1130090419C0000615C0000419C0000419C000008
S11300A0419C0000F7870000E987000089510000A7
S11300B08D510000419C0000419C0000419C0000C7
S11300C0419C0000419C0000419C0000419C0000B8
S11300D0419C0000419C0000419C0000419C0000A8
S11300E0419C0000419C0000419C0000419C000098
S11300F0419C0000419C0000419C0000419C000088
S1130100419C0000419C0000419C0000419C000077
S1130110419C0000419C0000419C0000419C000067
S1130120419C0000419C0000419C0000419C000057
S1130130419C0000419C0000B59F0000419C0000D0
S1130140401E00D0FCE770470000020000000000E1
S113015000000000BA0400000000000000000200DB
S11301600000000000000000BA04000000000000CD
S1130170A0BB0D00C07A1000001F408240420F0057
S1130180C07A100020D613003A1F41A200000000DC
S113019020D61300905817003A1F42A20000000016
S11301A09058170040771B003A9F43B600000000A8
S11301B040771B0070CE2000001F408180841E0009
S11301C070CE200040AC27003A1F41A1000000007F
S11301D040AC2700108A2E003A1F42A10000000004
S11301E0108A2E0080EE36003A9F43B500000000CE
S11301F080EE3600E09C4100001F408000093D0075
S1130200E09C410080584F003A1F41A000000000CC
S113021080584F0020145D003A1F42A000000000E7
S113022020145D00C0047700009F43B4C0CF6A006F
S1130230C0047700408995003A9F44B40000000050
S113024040899500C00DB4003A9F45B400000000F9
S1130250C00DB40000BADB00009F66B4405DC60068
S113026000BADB0080730601009F67B40024F40029
S11302708073060120992C01009F68A8C0EA21011F
S113028020992C01C0286B013A9F89B80000000016
S1130290C0286B0160EDB501009F8AB880BA8C015B
S11302A060EDB50180011302009FABB80048E8017E
S11302B08001130280138D02009FCCA880D54302D5
S11302C080138D02805A1303009FEDAC006CDC0296
S11302D0805A130320289B03009FEEBC007E560324
S11302E020289B03C0C95304009FEFBC0090D00397
S11302F0C0C9530400B4C404009FF0CC00B4C404C7
S1130300433A5C55736572735C4A756E79694875D6
S1130310616E675C53696D706C6963697479537459
S11303207564696F5C76365F776F726B7370616347
S1130330655C627473656E736F725C73696D706C07
S113034069636974795F73646B5F323032362E3659
S11303502E305C706C6174666F726D5F636F726572
S11303605C706C6174666F726D5C656D6C69625C07
S1130370696E635C656D5F6275732E6800000000D2
S1130380433A5C55736572735C4A756E7969487556
S1130390616E675C53696D706C69636974795374D9
S11303A07564696F5C76365F776F726B73706163C7
S11303B0655C627473656E736F725C73696D706C87
S11303C069636974795F73646B5F323032362E36D9
S11303D02E305C706C6174666F726D5F636F7265F2
S11303E05C706C6174666F726D5C656D6C69625C87
S11303F07372635C656D5F636D752E63000000004E
S1130400433A5C55736572735C4A756E79694875D5
S1130410616E675C53696D706C6963697479537458
S11304207564696F5C76365F776F726B7370616346
S1130430655C627473656E736F725C73696D706C06
S113044069636974795F73646B5F323032362E3658
S11304502E305C706C6174666F726D5F636F726571
S11304605C706C6174666F726D5C656D6C69625C06
S11304707372635C656D5F656D752E6300000000CB
S1130480433A5C55736572735C4A756E7969487555
S1130490616E675C53696D706C69636974795374D8
S11304A07564696F5C76365F776F726B73706163C6
S11304B0655C627473656E736F725C73696D706C86
S11304C069636974795F73646B5F323032362E36D8
S11304D02E305C706C6174666F726D5F636F7265F1
S11304E05C706C6174666F726D5C656D6C69625C86
S11304F07372635C656D5F6575736172742E6300FE
S1130500433A5C55736572735C4A756E79694875D4
S1130510616E675C53696D706C6963697479537457
S11305207564696F5C76365F776F726B7370616345
S1130530655C627473656E736F725C73696D706C05
S113054069636974795F73646B5F323032362E3657
S11305502E305C706C6174666F726D5F636F726570
S11305605C706C6174666F726D5C656D6C69625C05
S11305707372635C656D5F696164632E6300000080
S1130580433A5C55736572735C4A756E7969487554
S1130590616E675C53696D706C69636974795374D7
S11305A07564696F5C76365F776F726B73706163C5
S11305B0655C627473656E736F725C73696D706C85
S11305C069636974795F73646B5F323032362E36D7
S11305D02E305C706C6174666F726D5F636F7265F0
S11305E05C706C6174666F726D5C656D6C69625C85
S11305F07372635C656D5F6D73632E63000000004E
S1130600433A5C55736572735C4A756E79694875D3
S1130610616E675C53696D706C6963697479537456
S11306207564696F5C76365F776F726B7370616344
S1130630655C627473656E736F725C73696D706C04
S113064069636974795F73646B5F323032362E3656
S11306502E305C706C6174666F726D5F636F72656F
S11306605C706C6174666F726D5C656D6C69625C04
S11306707372635C656D5F727463632E6300000064
S113068045A700004FA7000053A7000075A700006E
S1130690D3A7000077A70000ABA700002C00000040
S11306A0433A5C55736572735C4A756E7969487533
S11306B0616E675C53696D706C69636974795374B6
S11306C07564696F5C76365F776F726B73706163A4
S11306D0655C627473656E736F725C73696D706C64
S11306E069636974795F73646B5F323032362E36B6
S11306F02E305C706C6174666F726D5F636F7265CF
S11307005C706C6174666F726D5C656D6C69625C63
S1130710696E635C656D5F6275732E68000000002E
S1130720433A5C55736572735C4A756E79694875B2
S1130730616E675C53696D706C6963697479537435
S11307407564696F5C76365F776F726B7370616323
S1130750655C627473656E736F725C73696D706CE3
S113076069636974795F73646B5F323032362E3635
S11307702E305C706C6174666F726D5F636F72654E
S11307805C706C6174666F726D5C736572766963BC
S1130790655C636C6F636B5F6D616E616765725CF2
S11307A07372635C736C5F636C6F636B5F6D616EBC
S11307B0616765725F696E69745F68616C5F7332EB
S11307C02E630000180000001A0000000E00000054
S11307D00F00000000000000010000000C000000F9
S11307E0150000001E0000000000010001000100CF
S11307F000000600010006000000070001000700D9
S113080000001000010010000000035A1400000052
S1130810C407000000080000040800000000015A9A
S113082004000000CC070000F0070000F4070000FB
S11308300080065003000000D0070000F807000005
S1130840FC0700000040045003000000D80700002B
S1130850E8070000EC070000000000581200000048
S1130860E40700000000045001000000D407000069
S1130870000000000000000008080000433A5C5536
S1130880736572735C4A756E79694875616E675CED
S113089053696D706C696369747953747564696FB5
S11308A05C76365F776F726B73706163655C6274DC
S11308B073656E736F725C73696D706C6963697470
S11308C0795F73646B5F323032362E362E305C7053
S11308D06C6174666F726D5F636F72655C706C617E
S11308E074666F726D5C7065726970686572616C54
S11308F05C696E635C736C5F68616C5F6C646D6192
S11309002E680000433A5C55736572735C4A756ED9
S113091079694875616E675C53696D706C69636968
S1130920747953747564696F5C76365F776F726B34
S113093073706163655C627473656E736F725C730C
S1130940696D706C69636974795F73646B5F32306D
S113095032362E362E305C706C6174666F726D5F49
S1130960636F72655C706C6174666F726D5C6472E7
S1130970697665725C646D615F6368616E6E656CF7
S11309805C7372635C736C5F646D615F6368616EFA
S11309906E656C2E63000000433A5C557365727398
S11309A05C4A756E79694875616E675C53696D70F0
S11309B06C696369747953747564696F5C76365FC6
S11309C0776F726B73706163655C627473656E7369
S11309D06F725C73696D706C69636974795F736459
S11309E06B5F323032362E362E305C706C6174663A
S11309F06F726D5F636F72655C706C6174666F7249
S1130A006D5C6472697665725C646D615F63686174
S1130A106E6E656C5C7372635C736C5F646D615F56
S1130A2064657363726970746F725F616C6C6F6319
S1130A3061746F722E630000433A5C557365727380
S1130A405C4A756E79694875616E675C53696D704F
S1130A506C696369747953747564696F5C76365F25
S1130A60776F726B73706163655C627473656E73C8
S1130A706F725C73696D706C69636974795F7364B8
S1130A806B5F323032362E362E305C706C61746699
S1130A906F726D5F636F72655C706C6174666F72A8
S1130AA06D5C736572766963655C646D615F6D61CD
S1130AB06E616765725C7372635C736C5F646D61B5
S1130AC05F6D616E616765722E630000433A5C5529
S1130AD0736572735C4A756E79694875616E675C9B
S1130AE053696D706C696369747953747564696F63
S1130AF05C76365F776F726B73706163655C62748A
S1130B0073656E736F725C73696D706C696369741D
S1130B10795F73646B5F323032362E362E305C7000
S1130B206C6174666F726D5F636F72655C706C612B
S1130B3074666F726D5C7065726970686572616C01
S1130B405C696E635C736C5F68616C5F6770696F2E
S1130B502E680000433A5C55736572735C4A756E87
S1130B6079694875616E675C53696D706C69636916
S1130B70747953747564696F5C76365F776F726BE2
S1130B8073706163655C627473656E736F725C73BA
S1130B90696D706C69636974795F73646B5F32301B
S1130BA032362E362E305C706C6174666F726D5FF7
S1130BB0636F72655C706C6174666F726D5C647295
S1130BC0697665725C6770696F5C7372635C736C81
S1130BD05F6770696F2E6300433A5C557365727387
S1130BE05C4A756E79694875616E675C53696D70AE
S1130BF06C696369747953747564696F5C76365F84
S1130C00776F726B73706163655C627473656E7326
S1130C106F725C73696D706C69636974795F736416
S1130C206B5F323032362E362E305C706C617466F7
S1130C306F726D5F636F72655C706C6174666F7206
S1130C406D5C7065726970686572616C5C696E6315
S1130C505C736C5F68616C5F6770696F2E6800001D
S1130C60433A5C55736572735C4A756E796948756D
S1130C70616E675C53696D706C69636974795374F0
S1130C807564696F5C76365F776F726B73706163DE
S1130C90655C627473656E736F725C73696D706C9E
S1130CA069636974795F73646B5F323032362E36F0
S1130CB02E305C706C6174666F726D5F636F726509
S1130CC05C706C6174666F726D5C7065726970687B
S1130CD06572616C5C7372635C736C5F68616C5F9A
S1130CE06770696F2E630000433A5C5573657273D5
S1130CF05C4A756E79694875616E675C53696D709D
S1130D006C696369747953747564696F5C76365F72
S1130D10776F726B73706163655C627473656E7315
S1130D206F725C73696D706C69636974795F736405
S1130D306B5F323032362E362E305C706C617466E6
S1130D406F726D5F636F72655C706C6174666F72F5
S1130D506D5C7065726970686572616C5C696E6304
S1130D605C736C5F68616C5F6275732E6800000071
S1130D70433A5C55736572735C4A756E796948755C
S1130D80616E675C53696D706C69636974795374DF
S1130D907564696F5C76365F776F726B73706163CD
S1130DA0655C627473656E736F725C73696D706C8D
S1130DB069636974795F73646B5F323032362E36DF
S1130DC02E305C706C6174666F726D5F636F7265F8
S1130DD05C706C6174666F726D5C7065726970686A
S1130DE06572616C5C696E635C736C5F68616C5F97
S1130DF06932632E68000000433A5C557365727370
S1130E005C4A756E79694875616E675C53696D708B
S1130E106C696369747953747564696F5C76365F61
S1130E20776F726B73706163655C627473656E7304
S1130E306F725C73696D706C69636974795F7364F4
S1130E406B5F323032362E362E305C706C617466D5
S1130E506F726D5F636F72655C706C6174666F72E4
S1130E606D5C7065726970686572616C5C737263E5
S1130E705C736C5F68616C5F6932632E63000000B1
S1130E80433A5C55736572735C4A756E796948754B
S1130E90616E675C53696D706C69636974795374CE
S1130EA07564696F5C76365F776F726B73706163BC
S1130EB0655C627473656E736F725C73696D706C7C
S1130EC069636974795F73646B5F323032362E36CE
S1130ED02E305C706C6174666F726D5F636F7265E7
S1130EE05C706C6174666F726D5C70657269706859
S1130EF06572616C5C696E635C736C5F68616C5F86
S1130F006C646D612E680000433A5C5573657273BE
S1130F105C4A756E79694875616E675C53696D707A
S1130F206C696369747953747564696F5C76365F50
S1130F30776F726B73706163655C627473656E73F3
S1130F406F725C73696D706C69636974795F7364E3
S1130F506B5F323032362E362E305C706C617466C4
S1130F606F726D5F636F72655C706C6174666F72D3
S1130F706D5C7065726970686572616C5C737263D4
S1130F805C736C5F68616C5F6C646D612E63000000
S1130F90433A5C55736572735C4A756E796948753A
S1130FA0616E675C53696D706C69636974795374BD
S1130FB07564696F5C76365F776F726B73706163AB
S1130FC0655C627473656E736F725C73696D706C6B
S1130FD069636974795F73646B5F323032362E36BD
S1130FE02E305C706C6174666F726D5F636F7265D6
S1130FF05C706C6174666F726D5C70657269706848
S11310006572616C5C696E635C736C5F68616C5F74
S11310106C6574696D65722E68000000433A5C5516
S1131020736572735C4A756E79694875616E675C45
S113103053696D706C696369747953747564696F0D
S11310405C76365F776F726B73706163655C627434
S113105073656E736F725C73696D706C69636974C8
S1131060795F73646B5F323032362E362E305C70AB
S11310706C6174666F726D5F636F72655C706C61D6
S113108074666F726D5C7065726970686572616CAC
S11310905C7372635C736C5F68616C5F6C657469CC
S11310A06D65722E63000000433A5C55736572737C
S11310B05C4A756E79694875616E675C53696D70D9
S11310C06C696369747953747564696F5C76365FAF
S11310D0776F726B73706163655C627473656E7352
S11310E06F725C73696D706C69636974795F736442
S11310F06B5F323032362E362E305C706C61746623
S11311006F726D5F636F72655C706C6174666F7231
S11311106D5C7065726970686572616C5C696E6340
S11311205C736C5F68616C5F6932632E68000000F9
S1131130433A5C55736572735C4A756E7969487598
S1131140616E675C53696D706C696369747953741B
S11311507564696F5C76365F776F726B7370616309
S1131160655C627473656E736F725C73696D706CC9
S113117069636974795F73646B5F323032362E361B
S11311802E305C706C6174666F726D5F636F726534
S11311905C706C6174666F726D5C706572697068A6
S11311A06572616C5C696E635C736C5F68616C5FD3
S11311B06770696F2E680000433A5C5573657273FB
S11311C05C4A756E79694875616E675C53696D70C8
S11311D06C696369747953747564696F5C76365F9E
S11311E0776F726B73706163655C627473656E7341
S11311F06F725C73696D706C69636974795F736431
S11312006B5F323032362E362E305C706C61746611
S11312106F726D5F636F72655C706C6174666F7220
S11312206D5C6472697665725C69326373706D5C5F
S11312307372635C736C5F69326373706D2E6300E9
S1131240433A5C55736572735C4A756E7969487587
S1131250616E675C53696D706C696369747953740A
S11312607564696F5C76365F776F726B73706163F8
S1131270655C627473656E736F725C73696D706CB8
S113128069636974795F73646B5F323032362E360A
S11312902E305C706C6174666F726D5F636F726523
S11312A05C706C6174666F726D5C73657276696391
S11312B0655C696E746572727570745F6D616E6180
S11312C06765725C7372635C736C5F696E7465727C
S11312D0727570745F6D616E616765725F636F7262
S11312E07465786D2E630000433A5C5573657273C0
S11312F05C4A756E79694875616E675C53696D7097
S11313006C696369747953747564696F5C76365F6C
S1131310776F726B73706163655C627473656E730F
S11313206F725C73696D706C69636974795F7364FF
S11313306B5F323032362E362E305C706C617466E0
S11313406F726D5F636F72655C706C6174666F72EF
S11313506D5C736572766963655C6D656D6F7279DA
S11313605F6D616E616765725C7372635C736C5F01
S11313706D656D6F72795F6D616E616765722E6305
S113138000000000433A5C55736572735C4A756EE5
S113139079694875616E675C53696D706C696369DE
S11313A0747953747564696F5C76365F776F726BAA
S11313B073706163655C627473656E736F725C7382
S11313C0696D706C69636974795F73646B5F3230E3
S11313D032362E362E305C706C6174666F726D5FBF
S11313E0636F72655C706C6174666F726D5C73655B
S11313F072766963655C706F7765725F6D616E614B
S11314006765725C7372635C736C6565705F6C6F47
S11314106F705C736C5F706F7765725F6D616E6126
S11314206765722E63000000433A5C5573657273FE
S11314305C4A756E79694875616E675C53696D7055
S11314406C696369747953747564696F5C76365F2B
S1131450776F726B73706163655C627473656E73CE
S11314606F725C73696D706C69636974795F7364BE
S11314706B5F323032362E362E305C706C6174669F
S11314806F726D5F636F72655C706C6174666F72AE
S11314906D5C736572766963655C706F7765725FA6
S11314A06D616E616765725C7372635C636F6D6DB1
S11314B06F6E5C736C5F706F7765725F6D616E6188
S11314C06765725F636F6D6D6F6E2E630000000061
S11314D0433A5C55736572735C4A756E79694875F5
S11314E0616E675C53696D706C6963697479537478
S11314F07564696F5C76365F776F726B7370616366
S1131500655C627473656E736F725C73696D706C25
S113151069636974795F73646B5F323032362E3677
S11315202E305C706C6174666F726D5F636F726590
S11315305C706C6174666F726D5C736572766963FE
S1131540655C706F7765725F6D616E616765725C13
S11315507372635C736C6565705F6C6F6F705C73E2
S11315606C5F706F7765725F6D616E616765725FE6
S113157068616C5F73322E6300000000433A5C556F
S1131580736572735C4A756E79694875616E675CE0
S113159053696D706C696369747953747564696FA8
S11315A05C76365F776F726B73706163655C6274CF
S11315B073656E736F725C73696D706C6963697463
S11315C0795F73646B5F323032362E362E305C7046
S11315D06C6174666F726D5F636F72655C706C6171
S11315E074666F726D5C736572766963655C736C47
S11315F065657074696D65725C7372635C736C5F4E
S1131600736C65657074696D65722E63000000000B
S1131610433A5C55736572735C4A756E79694875B3
S1131620616E675C53696D706C6963697479537436
S11316307564696F5C76365F776F726B7370616324
S1131640655C627473656E736F725C73696D706CE4
S113165069636974795F73646B5F323032362E3636
S11316602E305C706C6174666F726D5F636F72654F
S11316705C706C6174666F726D5C636F6D6D6F6EC0
S11316805C696E635C736C5F636F6D6D6F6E2E6807
S113169000000000433A5C55736572735C4A756ED2
S11316A079694875616E675C53696D706C696369CB
S11316B0747953747564696F5C76365F776F726B97
S11316C073706163655C627473656E736F725C736F
S11316D0696D706C69636974795F73646B5F3230D0
S11316E032362E362E305C706C6174666F726D5FAC
S11316F0636F72655C706C6174666F726D5C736548
S113170072766963655C736C65657074696D657226
S11317105C7372635C736C695F736C656570746928
S11317206D65725F68616C2E68000000433A5C5519
S1131730736572735C4A756E79694875616E675C2E
S113174053696D706C696369747953747564696FF6
S11317505C76365F776F726B73706163655C62741D
S113176073656E736F725C73696D706C69636974B1
S1131770795F73646B5F323032362E362E305C7094
S11317806C6174666F726D5F636F72655C706C61BF
S113179074666F726D5C636F6D6D6F6E5C73726394
S11317A05C736C5F736C6973742E6300433A5C55AD
S11317B0736572735C4A756E79694875616E675CAE
S11317C053696D706C696369747953747564696F76
S11317D05C76365F776F726B73706163655C62749D
S11317E073656E736F725C73696D706C6963697431
S11317F0795F73646B5F323032362E362E305C7014
S11318006C6174666F726D5F636F72655C706C613E
S113181074666F726D5C736572766963655C75641A
S1131820656C61795C7372635C736C5F7564656C21
S113183061792E6300000000433A5C55736572734E
S11318405C4A756E79694875616E675C53696D7041
S11318506C696369747953747564696F5C76365F17
S1131860776F726B73706163655C627473656E73BA
S11318706F725C73696D706C69636974795F7364AA
S11318806B5F323032362E362E305C706C6174668B
S11318906F726D5F636F72655C706C6174666F729A
S11318A06D5C736572766963655C6D656D6F727985
S11318B05F6D616E616765725C7372635C736C69A2
S11318C05F6D656D6F72795F6D616E616765725F83
S11318D0636F6D6D6F6E2E6300000000433A5C55BC
S11318E0736572735C4A756E79694875616E675C7D
S11318F053696D706C696369747953747564696F45
S11319005C76365F776F726B73706163655C62746B
S113191073656E736F725C73696D706C69636974FF
S1131920795F73646B5F323032362E362E305C70E2
S11319306C6174666F726D5F636F72655C706C610D
S113194074666F726D5C7065726970686572616CE3
S11319505C696E635C736C5F68616C5F6C65746911
S11319606D65722E68000000433A5C5573657273AE
S11319705C4A756E79694875616E675C53696D7010
S11319806C696369747953747564696F5C76365FE6
S1131990776F726B73706163655C627473656E7389
S11319A06F725C73696D706C69636974795F736479
S11319B06B5F323032362E362E305C706C6174665A
S11319C06F726D5F636F72655C706C6174666F7269
S11319D06D5C656D6472765C756172746472765C5C
S11319E07372635C756172746472762E63000000B6
S11319F078B591B0002104AC21606160A16007A8B2
S1131A005949282200F0C8F80FF284125EA6116822
S1131A10D6E900452A200191CDE90245012100F0D3
S1131A20C7F8524C204600F0EDFA02214FF4B060A2
S1131A3000F048FE00208DF8130000224C49204697
S1131A4000F06AFB8DF8150003219DF815008DF850
S1131A501F1040F6C4120A9202218DF81E100022B3
S1131A6000908DF82C2000234249204600F07EFB94
S1131A70042100228DF81D108DF80A208DF80D2008
S1131A800122832109908DF808208DF805108DF826
S1131A90042007AA04A9204600F0C4F801AA02A958
S1131AA0204600F02EFA3448016841F48031016088
S1131AB00268324942F0010202604FF4007008608B
S1131AC00122E260012012B070BD0000F8B500BF31
S1131AD030A630680024254D0090832101228DF822
S1131AE001108DF800200AE03268E1B2002900926A
S1131AF0F3D0842001218DF801008DF8001069468F
S1131B00284600F043FA4FF400701E490860012291
S1131B10EA60686A8005FCD5686A19490A78800514
S1131B200AD5E86F01EB8403586528206043081840
S1131B3000EB8207586D7860012C07D1521C0A23F0
S1131B4092FBF3F30A2000FB13220A70641C012C9D
S1131B50CADDF1BD80B5FFF74BFFFFF7B7FF0348C0
S1131B60BDE8024000F04EBA480100000040005AAF
S1131B70002D31018096980020C303502850005A4C
S1131B80A81100202460005A000003000000000097
S1131B9001000000010000004AB1000011F8013BFF
S1131BA0521E00F8013B1CBF11F8013BF8E77047D7
S1131BB0F8B5054600260C464009124F06D14FF4ED
S1131BC05C7107F5047001F089FA07E0012808BF89
S1131BD00D4E03D002280CBF0C4E0D4E05F01F0510
S1131BE01F2D04D9912107F5C87001F077FA002C54
S1131BF014BF06F5805606F50056012000FA05F5D7
S1131C003560F1BD700100006480005068800050B0
S1131C10608200504169CB01FCD4012142F20402EC
S1131C20815070472DE9F84F14462DED028B834601
S1131C30DFF8982584B00E46934502D0EC2100F0DD
S1131C40D5F9DFF88C7500223946584600F064FA5D
S1131C50804670794045A8BF80465846FFF7DAFFB2
S1131C60317908000AD100F07BFAB84228BFB0FBF2
S1131C70F8F00146584600F02AFA0146F0780904C3
S1131C8001F4FE01000100F0300001434FEA087046
S1131C9000F0E0400143307808B141F0020170786F
S1131CA008B141F00401B07808B141F00801CBF863
S1131CB00810F088DFF81C75CBF8100031897089A2
S1131CC0002640EA0140CBF8200002948DF80480FD
S1131CD00FE040F2F11100F089F905E0C0F31100C2
S1131CE040EA0A0AC8F850A0C9F30909C8F8549090
S1131CF0761CDFF8D80483450CBF022000208642FE
S1131D0080F0F580142102987143441894F800A0DF
S1131D102589BAF1000F0CBFDFF8BC14DFF8BC143E
S1131D209DF80400534600220090584600F01EFA25
S1131D30A84238BF28460BEB06188146D8F848005D
S1131D4061786AF3010061F38400A17861F30E30D5
S1131D50E17861F31240217C61F35750217961F3FA
S1131D601D70C8F84800D8F84800C0F30230411E7E
S1131D7004290BD8DFE801F00A0A030507003D68CF
S1131D8002E07D6803E07D682D0C00E03D68BAF157
S1131D90000F9ED19FED930A032802D1F868001426
S1131DA00BE0042803D1F8680014400005E005287E
S1131DB007D1F868001400EB400000EE100AB8EEFA
S1131DC0C00AA9B249F6FF7008404FEA804A0004ED
S1131DD048BF4AF0004AD8F848100120C1F38201F4
S1131DE0491C884000EE900AF8EEE08A022808D1E7
S1131DF0F86800B200EE900AF8EEE00A30EE808A4D
S1131E0015E03869F6EE000A68EEA00A00B201EEA9
S1131E10100AB868B8EEC11A31EE400A00B201EEF9
S1131E20900AC0EE200AF8EEE11A30EEA18AE078BA
S1131E3070B900F0EBF900EE100AB8EE400ADFEDDD
S1131E406A0A80EE200AB7EE041A81EE001A0BE04B
S1131E5094ED030AB8EE400ADFED630AC0EE200AEF
S1131E60B7EE041A81EE201A21EE080AF1EE001AE8
S1131E70DFED600A20EE210AC0EEA80A9FED5E1A8B
S1131E8000EE810ABAF1004F0BD09FED5C1A00EE10
S1131E90905A30EE011AFBEE600A9FED590A00EEEB
S1131EA0810AF1EE400AF5EE400AF1EE10FA08D587
S1131EB0FEEE000A30EEC00ABDEEC00A10EE100AB3
S1131EC007E0B6EE001A31EE401ABDEEC11A11EE6B
S1131ED0100AB0F5003FA8BFDFF80403BFF600AF57
S1131EE010F5003FBFF6FAAE4AF4003AFAE60120D4
S1131EF041F204014BF8010004B0BDEC028BBDE8D3
S1131F00F18F70B5164600F066F803D04FF41971DE
S1131F1000F06CF82046FFF77DFE6878002814BFB7
S1131F200821002100F023F82167E16AA87900283C
S1131F3014BF4FF4803200222B79DFF8A80201404D
S1131F4068791B0203F4E0630003194300F4805032
S1131F5001431143E1623146204600F017F80121A4
S1131F6041F20402A150E87900B1E16070BDE87863
S1131F7008B14FF480702A78AB7802F0070211435D
S1131F801B0103F0300319430143704738B500F0D7
S1131F9022F803D04FF4277100F028F8012241F20F
S1131FA004036168E250E87801F0010108B14FF4DC
S1131FB000302A786B78AD7842EA03222D0405F4C8
S1131FC080352A431043C4F8980019B92046BDE867
S1131FD032401FE631BD04467C4A0D4694427047A8
S1131FE0000000000000000000007A447E4801F078
S1131FF075B8000000008043000020440000004940
S1132000000000C938B50446704A944203D040F237
S11320101931FFF7EBFF012141F204002150734A0B
S1132020E260734960690842FCD10022A261002089
S113203004F184014861606910F4401FFBD16069B8
S1132040C10501D4A06F10B1606FF8E70968606939
S113205004F184018205F9D448680028F6D1E06FC0
S113206089682046FFF7D6FD0020A0600021216189
S1132070E0622162302020673021C4F88010002102
S113208052485C4D08E004EB011242F26003491C23
S1132090936415650023536584420CBF0222002219
S11320A09142F0D3002105E0002204EB8103C3F840
S11320B0A020491C84420CBF102200229142F3D379
S11320C042F2240020184C490160416031BD10B532
S11320D03E4A0C46904203D040F26F31FFF786FF30
S11320E07CB900F03DF8040008BF012409D043483E
S11320F0844206D342490868C0F30270401CB4FB12
S1132100F0F4404804194049B4FBF1F0401E7F2824
S113211028BF7F20C0B210BD70B515462B4A0C46AF
S1132120314E904203D040F2AA3100F01CF824B999
S113213040F2AB3100F017F803E02548844228BF91
S1132140044615B900F00CF8054665196D1EB5FB7B
S1132150F4F018B1401E042828BF0320C0B270BD9B
S11321602A2000F041B9304600F0B8BFF8B5154652
S1132170164A0C461E461C4F904204D04FF4797107
S1132180384600F0ABFF24B940F2E531384600F0A0
S1132190A5FF002E0CBF10481048A04238BF0446CB
S11321A015B9FFF7DDFF05460698C0B2401CB5FB24
S11321B0F0F02018401EB0FBF4F028B1401E40F2AD
S11321C0FF31884228BF084680B2F2BD0040005A61
S11321D0005A62028081E00F80969800404B4C00C8
S11321E0FFFF0100FFE8FEFF0005000012000200EF
S11321F05200010000C002808F330F80015A620236
S11322000840005A3F420F0040420F0038B50446D0
S11322106846002500F064FF042C10D8DFE804F0C1
S113222003060F090C0040F2BA450CE040F2E24507
S113223009E040F6B83506E04FF4166503E040F2D5
S11322409141FFF7D3FE284632BD30B5016884685A
S11322504218416802EB5103C90703D54C4401E01D
S1132260491C08D19A4218BF12F9011B01D10C3044
S113227030BD12F8015B002904F8015BF0D4491E5B
S1132280F7D5EFE7DFF89C170868C0F300100028C3
S1132290FAD10868C0F38110704710B50024DFF844
S11322A08428DFF88418002818BFB0F5C07F09D04F
S11322B0B0F5007F23D0B0F5207F24D0B0F5607F47
S11322C00FD023E00868C0F30334002C18BF012C9E
S11322D01CD0032C1CBF072C0F2C17D04FF42771D4
S11322E009E00869C0F30114002C1CBF012C032C65
S11322F00CD04FF42B71104600F0F0FE06E0086A93
S1132300C0F3046402E00868C0F38024601C10BDBC
S113231038B502464C1EDFF80C08DFF80C58002ACA
S113232018BFB2F5C07F09D0B2F5007F3AD0B2F53C
S1132330207F45D0B2F5607F23D04FE0012918BF3C
S1132340022909D0042918BF082905D010291CBF67
S11323504FF43C7100F0C2FE00F025FE00F0E8FDF1
S1132360286820F4704040EA04302860FFF78AFFB0
S1132370044600F0D5FEC4F10204214600F036FC08
S113238088E1012918BF022905D004291CBF4FF494
S1132390487100F0A3FE286920F0300040EA0410E0
S11323A0286131BD09B1212903D340F2363100F04F
S11323B095FE286A20F0F85040EA0460286231BD96
S11323C001291EBF02294FF44F7100F087FE2868CF
S11323D020F4806040EA8420286031BD40F253310B
S11323E0BDE8344000F07ABE1CB5002100910028FD
S11323F055D0203853D0401E5AD0801E58D0401E8D
S1132400032871D9001F012852D9801E78D0401E9C
S113241054D0401E7CD0401E34D0401E4ED0401EAE
S1132420022845D9093867D0401E61D0401E0228D1
S11324303ED9C01E78D0401E72D0401E38D00E380F
S11324402DD0801E02282AD9C01E4DD00E38012856
S113245025D9203820D0803856D080381FD08038F5
S113246020D0803824D0803828D0803831D08038AB
S11324703AD080383CD080383ED0803840D0803844
S113248046D0803848D080384AD080384CD04FF479
S11324908072801A4CD04FE000F044FE22E000F03D
S11324A05FFE1FE000F03EFE04464FF4007015E0AE
S11324B000F056FE04464FF420700FE000F050FE8A
S11324C004464FF42070FFF7E8FEB4FBF0F0400838
S11324D008E000F027FE04464FF46070FFF7DDFECD
S11324E0B4FBF0F000902BE0684600F0F9FB27E025
S11324F0684600F081FB23E0684600F0B3FB1FE070
S1132500684600F0EDFC1BE0684600F07DFD17E036
S1132510684600F007FC13E0684600F04BFD0FE04E
S1132520684600F01DFD0BE0684600F029FC07E05A
S1132530684600F0AFFB03E040F2F74100F0EEFA2A
S1132540009816BD80B5002124380091DFF8D42509
S1132550032841D9801F3AD0801E46D0401E53D054
S11325600B385AD0401F45D0401E5BD0143833D0AE
S11325702E3818D0803834D04FF44073C01A2BD082
S113258080383CD0803848D0803820D080382CD057
S1132590803839D0803845D080382BD080382ED040
S11325A0803836D043E000F0C6FA0DD8DFE800F0FA
S11325B009020406052102E0032203E00721009139
S11325C03AE00222009237E040F2295131E06946B4
S11325D0002000F085FC2FE06946002000F080FB1D
S11325E02AE0694600F010FD26E06946002000F06C
S11325F099FB21E06946002000F0C2FB1CE069461B
S1132600002000F0F9FA17E06946002000F0D2FC3F
S113261012E0694600F03EFB0EE06946002000F03F
S113262021FB09E06946002000F09AFC04E040F236
S1132630F151104600F052FD009802BD80B5012111
S1132640022000F052FE4FF42070FFF726FEDFF860
S11326507815087000F0A7FCBDE8014000F068BCE4
S113266038B50446FFF70EFE054600F059FDC5F1E6
S11326700205294600F0BAFA0121002000F023FEE9
S113268004B107E0DFF8400501784FF42070BDE89D
S113269034403DE6BDE8314000F050BCDFF8B404FE
S11326A001684FF48030DFF8A8241060DFF8A82414
S11326B013685B085B001360C9035CBFDFF8102577
S11326C0106070472DE9F84302460D4600260024A9
S11326D0243ADFF85004DFF87814DFF87894DFF850
S11326E0F484DFF8F474032A40F28E80921F1AD027
S11326F0921E1AD0521E1BD00B3A11D0521F1DD05D
S1132700521E18D0143A07D02E3A20D0803A00F046
S113271091804FF44073D21A76D0803A11D0803A27
S113272000F04581803A5CD0803A00F0B480803A71
S113273000F00481803A00F05081803A00F0C580B6
S1132740803A00F0DC80803A00F019815DE1022DCE
S113275019D0032D06D0052D02D0072D11D014E079
S1132760022616E04FF400220A60DFF870341C6879
S11327700120DFF8581464080326086004F00104FB
S113278007E0042605E0012603E040F2B56100F00D
S1132790A5FC0121022000F0A8FD00F004FC00F0DB
S11327A0C7FBD9F80C00C00846EAC006C9F80C609B
S11327B0FFF768FD064600F0B3FCC6F10206314699
S11327C000F014FA0121002000F07DFD00F0B6FBBA
S11327D0002C08BF032D03D10120DFF80414086086
S11327E019E1022D07D00F2D0EBF012640F2FF6123
S11327F000F074FC00E00226DFF8E80301688908B1
S113280046EA8106066006E1012D0ED0022D0BD0AA
S1132810032D07D0052D0EBF012640F23E7100F0B6
S11328205DFC02E0022600E00326386A00F0F5F8B9
S11328303E62F0E0DFF8B023DFF89433DFF81843AA
S11328404FF48036082D1CBF092D0B2D03D00C2D01
S11328500FD0102D1CD1D9F800000E602168C003E0
S113286041F00101216058BF1E60116821F004018C
S11328700CE0D9F800000E60216849084900216085
S1132880C00358BF1E60116841F004011160C2E02A
S113289040F26671BBE0012D12D0082D08D0092D3D
S11328A018BF0A2D02D00B2D04D005E0012607E045
S11328B0022605E0032603E040F2867100F00EFCD8
S11328C0386C00F0AAF83E64A5E0012D12D0082D62
S11328D008D0092D18BF0A2D02D00B2D04D005E015
S11328E0012607E0022605E0032603E04FF4F56124
S11328F000F0F4FB386E00F090F83E668BE06D1E3D
S1132900062D11D8DFE805F01408060E040C0A00A1
S113291001260DE002260BE0032609E0042607E069
S1132920052605E0062603E040F2D17100F0D6FB4F
S1132930786AC00846EAC0067E626CE0012D16D0B3
S1132940082D0AD0092D18BF0A2D04D00B2D06D04E
S11329500E2D06D007E0012609E0022607E0032633
S113296005E0042603E040F2F57100F0B7FBD8F867
S11329700000C00846EAC006C8F800604BE0012D1C
S113298010D0032D04D0072D06D0082D02D005E069
S1132990012607E0022605E0032603E040F63501A0
S11329A000F09CFB386800F038F83E6033E0012DFD
S11329B00CD00F2D02D0102D02D003E0012605E02B
S11329C0022603E040F6960100F088FBD8F82000C8
S11329D000F023F8C8F820601DE0083D032D09D855
S11329E0DFE805F004020206012607E0022605E0FE
S11329F0032603E040F61E1100F070FBD8F84000F7
S1132A0000F00BF8C8F8406005E040F62221BDE86C
S1132A10F44300F063BBBDE8F183800846EA800616
S1132A2070470000844000502DE9F843054600F04B
S1132A30FBF9040018BF14F1010F03D140F6A621DD
S1132A4000F06CF84FF4C020DFF804110860DFF8E0
S1132A50C8030268012A07D10121DFF8C0231160ED
S1132A60416911F0030FFBD18020FFF76BFD0528AE
S1132A7003D100F098FA00F05BFADFF8B01424F008
S1132A8040748D4206D0DFF898138D4208BF44F09D
S1132A90807401E044F0007400F02AFD8146A945E9
S1132AA003D20121284600F00EFCDFF87863706839
S1132AB010F0060FF9D137683460306804F4F81464
S1132AC0DFF8608000F4F810844206D040F6F1216B
S1132AD000F03BF837604D4602E0284600F034FD34
S1132AE08020FFF72FFD05280ED100F019FB0446C6
S1132AF0A54203D240F6023100F027F8FFF7C2FBEB
S1132B0000F014F800F01AFAA94505D301210020B9
S1132B10BDE8F44300F0D7BBBDE8F183014800F001
S1132B20DDBA000080030000708000500146C1F14E
S1132B30020120465AE0DFF80815086800F0070093
S1132B40401E0328704740F22951404600F0C6BA9F
S1132B50649000506480005020C0075010B54FF4BA
S1132B600011DFF8E4241160DFF8E044022323605D
S1132B706168CA03FCD4012820D100F0F7FCDFF817
S1132B80D014884204D1DFF8CC1445F67A1010E052
S1132B90DFF8C414884204D1DFF8C01445F61A00E3
S1132BA007E000EB8001DFF8B824400A490AB2FBD1
S1132BB0F0F0A162E0620120206201E000212162C4
S1132BC00020206010BD0000C01C002028D0005050
S1132BD064A00050008200500081005028C00050C2
S1132BE028E000508081005010E000E00029CCBFB4
S1132BF001210021E6E00000F8B50D460446DFF8A7
S1132C0064140868002600F00700062825D8DFE8C9
S1132C1000F022040E181D09130000F069FC06469A
S1132C2005271EE000F064FC0646062719E000F0C4
S1132C309DFC0646032714E000F098FC0646042792
S1132C400FE000F099FC064602270AE000F098FC29
S1132C500646072705E0012703E041F2BA0100F028
S1132C6089F838E0DFF80024136803F00303012B2C
S1132C7002D0022B01D001E032E053E008B100227F
S1132C80026009B10020086041F2E401DFF8B403F6
S1132C9000F024BAF8B50D460446DFF8D01300F06E
S1132CA063F814D8DFE800F01102070C00F05EFCB2
S1132CB0064603270FE000F067FC064608270AE0F3
S1132CC000F05EFC0646072705E0012703E041F219
S1132CD0373100F04FF804B1266005B12F60F1BD23
S1132CE0F8B50D460446DFF8881300F03DF814D813
S1132CF0DFE800F01102070C00F0FAFB0646052796
S1132D000FE000F033FC064603270AE000F034FC31
S1132D100646022705E0012703E041F27E3100F078
S1132D2029F8D8E7F8B50D460446DFF8481300F053
S1132D301BF814D8DFE800F01102070C00F02AFC9D
S1132D40064609270FE000F01FFC064608270AE0A4
S1132D5000F023FC06460B2705E0012703E041F2BF
S1132D60B03100F007F8B6E70868002600F0030069
S1132D7003287047DFF8CC02002700F0AFB9000049
S1132D80F8B50D460446DFF8F012FFF7EDFF14D84E
S1132D90DFE800F01102070C00F0FCFB06460927EF
S1132DA00FE000F0F1FB064608270AE000F0F5FB0F
S1132DB006460B2705E0012703E041F2E231FFF765
S1132DC0D9FF88E7F8B50C4605464FF40031DFF823
S1132DD0AC2211600020FFF760FADFF8A41241F67C
S1132DE071334A694B630B68120C454302F00102CC
S1132DF023F440134FF440104FF480168F4F002CEF
S1132E0000D003DDBD422CBF3046002003430B60DD
S1132E100AB100204863F1BD04C0015004E0015030
S1132E2080841E000800015010B500249549002834
S1132E3054D03E4A90421FBF934A9042934A9042D4
S1132E402AD0934A90423FD0924A904226D0924A46
S1132E5090423BD0914A904222D0914A904221D054
S1132E60904A904220D0904A904231D08F4A90426A
S1132E701CD08F4A90421BD08E4A90421AD08E4A60
S1132E80904219D08D4A904218D08D4A904217D062
S1132E908C4A904216D01DE00C681FE0CC681DE0FF
S1132EA08C691BE0CC6919E00C6A17E08C6A15E0A8
S1132EB0CC6A13E00C6B11E04C6B0FE08C6B0DE0F3
S1132EC0CC6B0BE00C6C09E04C6807E00C6905E086
S1132ED04C6A03E041F2B841FFF720FE204610BDE2
S1132EE07CB504460D460020009077490A6802F03C
S1132EF00302012A02D0022A06D00AE00021684611
S1132F00FFF7EEFE0F260AE000F036FB00900226E3
S1132F1005E041F2E3414B48002600F0DFF80CB134
S1132F200098206005B12E6073BD000040420F0080
S1132F304348016841F48061016070474FF4C070F8
S1132F4010B5FFF751FA02246049884238BF0124C2
S1132F5021464FF42070BDE81040FFF7D9B90000B6
S1132F60F8B504460D465A480168002601F00301ED
S1132F70012904D012D303290BD005D30EE000F0AD
S1132F8009FB064609270DE000F0FEFA064608276D
S1132F9008E000F002FB06460B2703E041F22C5147
S1132FA0FFF7E8FE97E680B500F0FAFA0021BDE8E5
S1132FB0044007E7F8B50D4604464649086800266C
S1132FC000F0070004281AD8DFE800F01703080D02
S1132FD0120000F0DFFA0646092714E000F0D4FAE4
S1132FE0064608270FE000F0D8FA06460B270AE049
S1132FF000F0B6F8860A0E2705E0012703E041F247
S1133000A151FFF7B7FE66E63EB504460D46002023
S1133010019031490A68500705D500F0A1F80C2148
S11330200190009103E0694601A8FFF77BFE0CB113
S1133030019820600DB10098286037BD015A6202E2
S113304070800050800300006490005004400250DF
S113305000F04902D8B80500C0175302BBCF0500E1
S1133060646666662481005020820050008100500E
S113307020810050408100506081005068900050D1
S1133080080003505880E00F80841E0000093D00B2
S1133090404B4C00C0CF6A0080969800405DC6004B
S11330A00024F400C0EA2101002D310180BA8C0112
S11330B00048E80180D54302006CDC02007E560320
S11330C00090D00300B4C4048081005081F0FA025F
S11330D0408200500082005010E000E0FEE7020051
S11330E010B54FF480310B4A11600B4C21688B09E9
S11330F003F03F0301F03F0283704270090B01703B
S113310010BD0648006801210A3000F01F0001FAD2
S113311000F070476490005014C007500880E00F1E
S113312000F01EB80A49086800F00700401E032892
S11331300CD8DFE800F00902040700F0D9B905480B
S1133140006870470448704704487047FEE700BFB2
S1133150708000502811002080D54302002D3101D9
S113316080B5FFF7DFFF05490968C1F30331491C46
S1133170B0FBF1F00249086002BD00BF708000504E
S113318034110020DFF800F0D11C0020BFF34F8F72
S1133190BFF36F8F30BF704770B5DFF8F422DFF8EC
S11331A0F412DFF8F44250B94FF40033DFF8EC5274
S11331B02B602468012C08BF0868106070BD10687B
S11331C000281CBF2268012AF8D008608020FFF77D
S11331D0B9F9DFF8CC5205281DD14FF4C070FFF7C0
S11331E05CF80646012E04D102214FF4C070FFF7AB
S11331F08FF80720DFF8AC12086001222A60E0682B
S1133200C107FCD5012ED9D101214FF4C070BDE80E
S11332107040FFF77DB80120286070BD0278DFF8A8
S1133220883201211A7000204DE0DFF880120A680C
S1133230407822F4407242EA00220A60704738B5AE
S113324004001CBF0020FFF7A7FF00F019F800F0EE
S1133250ABF900F0CDF9DFF8580201684A0100F03B
S113326016F800F0C6F90546FFF78CFF284600F073
S1133270C4F900F0C7F900F04FFA04B10EE011E010
S1133280DFF83002016841F004010160704704D5A1
S1133290DFF82402DFF82412086070470120BDE83B
S11332A0324079E7BDE8314000F075BA002073E799
S11332B0012071E7DFF808120A68007922F0300271
S11332C002430A60704710B50C4608B9FFF72AFF9D
S11332D0754A117829B17C4A904202D221460120D4
S11332E001E021460220BDE810402DE9F0410446EA
S11332F0764D286AC0F300100028FAD1286AC0F37A
S11333008110A0423AD0FFF70DFF06466D4F012C05
S11333100BD16D498E4204D340F2A6713846FFF7B3
S1133320DDFE01213046FFF761FC00F062F98046C2
S11333304FF0007066490860204600F02EFA4FF402
S11333408062601E8240EA6007E0286A810604D534
S113335040F2BE713846FFF7C1FE2868810102D4ED
S1133360286A8106F1D5404600F047F9022C05D1C0
S113337030460021BDE8F041FFF738BCBDE8F081DC
S11333804FF00042F8B5454B1A60524A01251560CA
S1133390514BDD6B4AF6CD369E630024002105F0C7
S11333A001054E4E4E4F90B91868C0070BD5012247
S11333B0726000E0491C586AC20701D4B942F9D3CB
S11333C0B94228BF07240120306016E0491C586A1E
S11333D0000701D5B942F9D3B9420DD22020306299
S11333E001215160002000E0401CD9698A0601D403
S11333F0B842F9D3B84200D307240DB139489863D1
S113340000F0CCF92046F2BD38B54FF00041234A14
S113341011604AF6CD3201232E4C23602E4CE56B0D
S1133420A2634178304A05F00105490041F00101E9
S113343011602268C17801B10421837822F07402FA
S113344042EA03120A4322600179827942EA0122A4
S1133450A2604179C27942EA0122E2600078FFF772
S11334608FFF0DB11F48A06300F098F9012032BD11
S11334701E480168DFED050AC1F30A0100EE101AC7
S1133480BBEECF0A30EE200A70470000339388C3A6
S11334900C1200200081005004C0015064900050C0
S11334A004D0015010E00150C11C002074400050B1
S11334B06480005010ED00E00000FF0F20E4035092
S11334C06C40005000040000015A62026440005045
S11334D064600050045009500840095004600950C9
S11334E040420F003254FFFF3C40005088400050DF
S11334F001480068704700BF3011002038B51448F7
S113350014490860144803684FF40041134A43F413
S1133510700303601160124C4FF0FF3363654FF684
S1133520DF71A16502228264BFF34F8FBFF36F8FF7
S1133530032000F0BAF94FF440352560032000F071
S11335405FF90848056031BD07490860704700000D
S11335500000000008ED00E088ED00E068900050F5
S11335600CA0004410800044301100200148006881
S1133570704700BF2811002000487047002D31011A
S11335800048704780D5430201480068704700BF77
S11335902C1100204FF4004070474FF47A707047AC
S11335A00048704700B4C40480B50D49087898B148
S11335B00C4800220A700268012161F302020260D1
S11335C00948016841F0030101604268032161F385
S11335D00202426000F0B6F901200449086001BD0E
S11335E0C31C0020708000502081005074E0005003
S11335F07047EFF3108072B6704710B962B6BFF32C
S11336006F8F7047704700007CB500218DF8001063
S11336106846FFF703FE002000F05AF8544D28686E
S1133620544C4FF4002100F0030020615248016023
S11336304FF40032026000F087F94FF4C87000F0D4
S1133640EEF9E36C206502460A20002100FB0233F8
S1133650C8B2491C04EB8006C8B272620A28F7DBC0
S1133660A078E36408B3296801F00301012904D0B8
S113367028D3032923D01FD324E0FFF777FF0200C8
S113368013D03E4803683E4D501EC3F30B035B1C2E
S113369003EB83030021E5FB0301002300F0D2F9CF
S11336A000F0BDF9E1694018E0611F2000F0B7F9AE
S11336B0E1694018E06173BDFFF766FFDFE7FFF7DC
S11336C05FFFDCE7F2212F48FFF708FDEDE700007C
S11336D038B5284D2978044688421CD02DA210887C
S11336E02100ADF8000014BF022000208DF8010075
S11336F06846FFF79AFD200006D0402000F08FF9BD
S11337000146E869401A04E0402000F088F9E969BC
S11337104018E8612C7031BD10B501201A4A1060C0
S1133720144C6178F9B1022000F010FAD8B100F01D
S11337301FFAC0B115480168CA0302D541688A0757
S113374011D40068C1070ED40120E07000F022FA01
S113375020620F480268032161F302020260BDE89F
S1133760104000F0EFB810BD4FF4C87000F057B926
S1133770008100506C100020649000500CC0015077
S113378040420F00D014000074D0005058C00050C4
S113379070800050000200F009BA704770470000C2
S11337A010B500F005FA5F4A117871B9012313705E
S11337B000F004FA6FF00404052160B200F080F810
S11337C0641C60B24028F7DB10BDBDE8104000F077
S11337D0F5B910B50446412C03D34FF4967100F0AB
S11337E036F8002C0BD4012104F01F0081404E4A0E
S11337F0640942F82410BFF34F8FBFF36F8F10BDDD
S113380010B50446412C03D340F2371100F01FF8E1
S1133810002C07D4012104F01F008140434A6409AD
S113382042F8241010BD10B50446402C03D34FF4C5
S1133830A17100F00CF83D49601151F8200004F02A
S11338401F04E04000F0010080F0010010BD384882
S1133850FFF744BC10B5044604F10C004C2803D314
S11338604FF4AA71FFF7F3FFEFF31080C00718D4E9
S11338702046FFF7D8FFA0B9204600F044F80446DC
S1133880EFF3118010B1B4EB101F0AD2294800687D
S1133890C0F30800002806D0103800F034F8844241
S11338A001D3012010BD002010BD002807D401223F
S11338B000F01F018A40204B400943F82020704744
S11338C070B5044604F110020D46194E512A04D372
S11338D040F20E213046FFF701FC102D04D340F2D4
S11338E00F213046FFF7FAFB60B2290164B2002CC5
S11338F002D4124A115470BD114B00F00F00181875
S113390000F8041C70BD41B240B2002802D40B4838
S1133910405C05E00A4801F00F01411811F8040C5D
S113392000097047C21C002080E100E000E100E0D3
S11339304012000004ED00E080E200E000E400E05A
S113394018ED00E000F03FB930B518480268184996
S113395002F007024A610068164A00F47440886164
S11339601068154A400800F001008870486903286F
S11339701EBF106A00F0030002281EBF506A00F048
S11339800700022801D1012300E000238D7883F091
S11339900104254207D0180004D1106800F0030088
S11339A0012800D101234B7030BD00BF708000504E
S11339B06C10002018C001500081005038B5FFF78A
S11339C018FE04461A4800F000F91A4D287878B910
S11339D000F0FEF800F002F90020A86100F000F900
S11339E028611548016841F00101016000F0FEF80A
S11339F0FFF70AFEFFF7B8FE686101202870204631
S1133A00FFF7FBFD002032BD10B5FFF7F2FD0446C1
S1133A1000F0F6F82046BDE81040FFF7EEBD054B78
S1133A201A690649064B02FB0010B0FBF3F070471D
S1133A30C8070000541B0020744000503F420F0090
S1133A4040420F00D3BBD9B1B2F5803F5BD2022A0A
S1133A501ED98C46B1FBF2F102FB11C31B0443EAED
S1133A601043B3FBF2FC02FB1C3380B240EA034375
S1133A70B3FBF2F002FB103240EA0C400023704723
S1133A80022A05D98446B0FBF2F002FB10C270474B
S1133A904AB105D100F0010249085FEA30007047DD
S1133AA000220023704700F0CDB80B000200002173
S1133AB000207047F7D3002200237047904271EB37
S1133AC0030CF2D370B5B1FA81F4B3FA83F52C1B6D
S1133AD0A340C4F1200532FA05F63343A2405FF057
S1133AE00046E64002E05B085FEA3202841A71EBAA
S1133AF0030524BF204629467641F4D302000B0077
S1133B003000002170BD70B5B1FA81F4B2FA82F5CB
S1133B10C4F120046419B4F12006DAD3B2405FF092
S1133B200044F440002502E052085FEA3303C61A59
S1133B3071EB020E24BF3046714664416D41F3D3EC
S1133B4002000B002000290070BD00000146002087
S1133B50064A1268012905D0022905D1900900F00E
S1133B600100704702F00100704700BF14000058C4
S1133B7038B5074D6C78200007D000F00BF8EA68E0
S1133B809169401A032828BF0024204632BD00BF93
S1133B90941B002038B500F00BF8044600F054F8EC
S1133BA00546204600F00AF8284632BDFFF7D8BA89
S1133BB0EFF31180302181F31188704780F311886D
S1133BC0BFF36F8F7047FFF7CBBA012100F044B801
S1133BD0014800F051B80000901B0020704700001D
S1133BE001488068704700BF941B0020E0B50020A6
S1133BF000908DF804006846FFF75CFB07BD0000E9
S1133C0010B50F4CE079012818D1607A18B100F092
S1133C1049F800206072002000F084F850B100F0F0
S1133C2083F80020E0716078012100F0A7F80120FA
S1133C30607010BD0121A1716078607110BD00BF7A
S1133C40541B002070470000024881680A07FCD416
S1133C5000687047200000581CB50C4600230193EF
S1133C606A4601A900F0C6F828B9009901982246CD
S1133C7000F0D6F8002016BD00210160704738B569
S1133C8004460D0018BF002C02D1372100F004F8BF
S1133C9021682960256031BD0148FFF71FBA000083
S1133CA02C17000038B51C4C6078A0B3E078A0B99C
S1133CB01A480168CA0302D541688A072BD40068F0
S1133CC0C10728D4FFF766FF206215480268032164
S1133CD061F302020260FFF735FEFFF75BFF216A22
S1133CE02279401AE36C04EB8205521C696AD2B251
S1133CF068625B1A0A2192FBF1F1C31803F109000F
S1133D000A25B0FBF5F50A2000FB11222565E364C2
S1133D1022710022E27031BD6C10002058C00050A6
S1133D20708000500120704710B5FFF7C1FA0F49A9
S1133D300F4A0B685069DB0840EAC3030B600D4B64
S1133D4019689068890840EA810119605C68D16843
S1133D50E40841EAC4045C60507810B101210648CB
S1133D600160BDE81040FFF7EDBD00BF708000505A
S1133D706C1000202081005028E00050F8B5054662
S1133D800E460027194C300003D0022E05D002D372
S1133D9005E0012707E0042705E0102703E0B3212D
S1133DA02046FFF79BF9280003D0022D07D003D348
S1133DB008E047F0020709E047F0080706E047F08B
S1133DC0200703E0C4212046FFF788F90848046867
S1133DD008E062681068384203D0526831462846C9
S1133DE090472468002CF4D1F1BD00BF28140000D2
S1133DF0901B002078B1037803F03F031360006840
S1133E00064AC0F3821010B90A60002070470128E6
S1133E1008BF121DF8D00E20704700BF6480005008
S1133E2070B50E4605461446202E04D39121DFF8C2
S1133E302000FFF753F9002C14BF05F5805505F554
S1133E400055012000FA06F62E6070BD0020704770
S1133E50A0060000C26C0A42FCD1704770B500F0A5
S1133E606BF802D0712100F06FF814B9732100F0DF
S1133E706BF8207B802802D1772100F065F8607B05
S1133E80042802DB7A2100F05FF82146284600234B
S1133E9000224EE0F8B50546DFF8E0730C46DFF883
S1133EA0E063BD4202D08B2100F04EF814B98D219D
S1133EB000F04AF8BD420AD13820FEF743FB0B2834
S1133EC018BF082806D0092818BF102802D0AA2134
S1133ED000F03AF8607B042802DBAE2100F034F8ED
S1133EE0207B802802D0B02100F02EF86069B0F168
S1133EF0804F02D0B22100F027F8B4F91000B0F5D9
S1133F00805F18BFB0F5405F02D0B42100F01CF808
S1133F10A06842F28151884200D210B9B62100F063
S1133F2013F82146284601B000230022BDE8F040E2
S1133F30FAE0BDE87040F7E00546DFF840230C46A0
S1133F40DFF83C63954270473046FFF7C7B810B5B9
S1133F50044600F0A9F90020E0600021A16041F2CC
S1133F6002002061E16100206061A1612062616260
S1133F70E0620022A264DFF80C0342F244016050C4
S1133F80A26210BD38B500F0BBF803D04FF4B57190
S1133F9000F0BBF8280003D12046BDE8324083E19D
S1133FA0012041F20401605005F00F00E16C4A0564
S1133FB0FCD12063E06C10F0780FFBD10020E907FE
S1133FC048BF0120690748BF40F00200216C01F09E
S1133FD003018142FAD131BD0146C86810F4C01F03
S1133FE003D0486B4A6C930603D5086C0206FCD5D3
S1133FF0486BC0B2704700E00000026C5306FCD569
S1134000C1637047F8B506460C461500DFF87072B8
S113401003D140F2322100F070F8DFF860229642BA
S113402003D040F2352100F068F82CB9304600F096
S11340306FF8FEF7D9F904467068012803D040F2FE
S1134040672100F05AF8B06810F0E00008D020288A
S113405025D040282CD0602835D080283CD045E09D
S11340602109A94203D240F28F2100F046F8102022
S113407045436401B4FBF5F4DFF80C52203CE40042
S1134080AC4203D94FF42D7100F037F82C40F06C9A
S1134090C107FCD4B462F06CC107FCD4F1BDE008E4
S11340A0A84203D24FF4257100F027F80820DFE777
S11340B00620B4FBF0F0A84203D240F2992100F0AC
S11340C01CF80620D4E7A008A84203D240F29E219F
S11340D000F013F80420CBE705EB4500844203D23B
S11340E040F2A32100F009F80120C1E7384640F26C
S11340F0A921BDE8F440FEF7F1BF3846FEF7EEBF54
S113410004465E4A0D46944270475D48FEF7E6BF9A
S11341105A4980B5884201D1382002BD40F2863127
S1134120FFF7F3FF002002BDF8B5054614466A68A0
S11341300E461AB140F2FF71FFF78CFE2846FFF7D6
S113414006FF2A69717B51480240B6F90E000A4302
S1134150B6F9101002434E480A432A61AA68317B1B
S11341600240307E0A43716902430A43AA60B06880
S113417018B9A86840F00040A860F06941F2040151
S11341806B18002855D0AA68077A42490A4042EAC7
S11341908752817A878842EA4142417807F4C047CE
S11341A03A43477B42EA8102817B42EAC70287782D
S11341B042EA0112384942EA8722AA60EF6802699A
S11341C00F404169174382790F43C17947EA822737
S11341D047EA4127EF600178012918BF032903D179
S11341E0E96841F00401E9600178022918BF032954
S11341F003D10121294A116002E0012728490F60F7
S1134200427ADA61417A19B1E96841F40061E960FE
S1134210C17A41B1E968234A41F40041E960017B74
S113422001F00F011160E969C07B890840EA81014E
S1134230E96184B104F12001087810B101215961C8
S113424009E06A698878497822F0090202430A433E
S113425042F001021A6101201860B2681AB1716853
S11342602846FFF7CFFE31782846FFF78BFE286CEF
S1134270C04310F4405FFAD1F1BD00000000035ABE
S1134280800400007F370C01F8FF7F00FCCCFFFFA7
S11342901DFFFFBFE39BBDFFFFF9E4FFC0D4035044
S11342A0C0E403508090035010B504466068C10711
S11342B018D50A22226350212046FFF7CBFD206C3B
S11342C010F0030FFBD1A06A0121A0622046FFF782
S11342D0C1FD00E0606B216C0A06FBD4012042F2B0
S11342E00401605010BD00004FF400300F49086015
S11342F041F671320E4B1A6001200E490860704776
S113430030B50D490A684FF4003093035CBF074988
S11343100860074941F671340C600122054B1A60AC
S113432000250D600549086030BD0000689000500C
S11343303C0003500C2003506880005068A00050DB
S11343403F49086800281CBF486A0028F9D1704713
S113435080B5FFF7F5FF02203A49086001BD38B582
S113436004460D46032C03D34C213748FEF7B6FE12
S113437029786878EA782B7941EA800141EA421188
S11343800C22624341EA0311304881502978012903
S113439003D1A8782E4941F8240031BD10B5014657
S11343A0274C206808B908001ED022682AB120686A
S11343B000281CBF606A0028F9D151B10121254AA7
S11343C01160206800281CBF606A0028F9D1A16030
S11343D010BDFFF7BDFF206800281CBF606A0028DD
S11343E0F9D101211C48016010BD10B5144B1A68A5
S11343F001462AB1186800281CBF586A0028F9D160
S11344000122154802604A7802B10122887808B175
S113441042F00202C87808B142F0040208794C79EB
S113442042EA001242EAC4025A600122094C2260A4
S11344300878002814BF01200220986010BD0000F5
S1134440040000580C00005800060000300000581A
S1134450E880035004100058042000588269530671
S1134460FCD5C163704700000549C879002800D015
S1134470704780B500F008F8024880ED000A01BDDD
S1134480041200200010002080B5902286B0002085
S1134490ADF804208DF80200ADF800000DF1020221
S11344A0042102920220ADF80610ADF81400104A5F
S11344B001211068ADF80C10CDF810D001A900F05E
S11344C06BF810B19FED090A0DE09DF800109DF8FE
S11344D0010040EA0120ADF80000BDF9001000EE33
S11344E0101ABAEE440A07B000BD00BF00C079C478
S11344F0281000207FB50400574D03D154212846CD
S1134500FEF7ECFD2068554A5549904204D1002637
S1134510904207D153480FE0884208BF0126F7D0E4
S1134520592135E0884208BF4F4805D04FF48271C5
S11345302846FEF7D3FD0020009008B9662127E045
S113454000208DF80400E0684849884238BF002004
S113455004D34749884234BF012002208DF8050066
S11345602079444A69468DF8060060798DF8070081
S1134570A0798DF80800E0798DF809008C20464375
S1134580901900F085F8122818BF002803D079216B
S11345902846FEF7A3FD7FBD3EB5002818BF0029BD
S11345A057D02E4A904208BF002303D02C4A904291
S11345B04FD101238C2253432E4AD058002848D08F
S11345C00C88D0184A88E4052B4D012A06D0022A0B
S11345D00DD0042A13D0082A1CD03AE00B89002BF2
S11345E037D000954A68210E00F015F91CE00B89BC
S11345F07BB300954A68210E00F033F914E00B896F
S1134600002B1CBF0A8A002A23D000F037F800F0E0
S113461054F909E00B89002B1CBF0A8A002A18D020
S113462000F02CF800F020FBA8B1062808D00728D9
S11346300CD02D2804D02F2808D0312803D008E02E
S11346404FF0FF303EBD6FF002003EBD6FF0010041
S11346503EBD6FF003003EBDB81100000000015ADA
S1134660008006501C08000030080000A1860100EC
S1134670811A0600341A0020E09304000295019286
S1134680CA6800924A68210E7047000000687047AB
S11346902DE9F84305000E4614BF002E222012D047
S11346A03068DFF8AC15006888420DD100273079F6
S11346B0002818BF012805D1707900281CBF0128E3
S11346C0022809D021209DE0DFF84817884208BF5E
S11346D00127ECD00F2095E0FFF76AFA8046DFF857
S11346E0B41751F8270018B100F0E4F8122089E05B
S11346F030688068FFF769FADFF81C07FFF765FA8E
S113470001220A21B01D00F053FD01220A2106F105
S1134710080000F04DFD307900283CD10A24DFF870
S1134720FC96B01D04D140F2E6214846FEF7D6FCC3
S1134730B07908B97F2010E0012808BF07200CD009
S113474002280CBF3F20032807D0042818BF0528DF
S113475002D0062818BF07280020F179C840C007F6
S113476004D440F2E7214846FEF7B8FCB279302180
S1134770DFF824074A4301238118F07983400B6151
S1134780642000F06DFEB01D00F092FE642000F085
S113479067FE641EC5D13F01DFF800070322C25142
S11347A0F179B27942EA0142011D0830CA51737AA3
S11347B0317A41EA0341C15132682A603179297161
S11347C070796871F188298130896881DFF8D006B1
S11347D0FFF7FBF905F10C01002000F016FF38B9D2
S11347E005F10D0100F011FF30B1297B00F00CF848
S11347F000F060F8192005E0284600F0B3F800F056
S113480059F80020BDE8F283002000F02CBFDFF847
S1134810B408FEF763BC2DE9FC4100F08DF814BF29
S1134820002D22201BD0207908B1242017E016B1D6
S1134830B7F5806F01DB212011E0FFF7B9F900F033
S113484084F8E78000F07FF8089800210091019037
S113485000F06DF800F028FB00F02BF82046BDE8CE
S1134860F6812DE9FC4100F067F814BF002D2220E9
S11348701DD0207908B1242019E016B1B7F5806F56
S113488001DB212013E0FFF793F9804600206067E5
S11348900121E78000F055F8089800962B46019016
S11348A000F05BF800F000FB00F003F82046BDE8E0
S11348B0F68104464046FFF781B92DE9FC47040020
S11348C089461546984618BF002D01D00A9F0FB996
S11348D0222029E0207908B1242025E0B8F1000F36
S11348E01CBF0B9E002E02D0B9F5806F01DB212086
S11348F01AE0FFF75DF98246002020676067022016
S113490084F87A00A4F8069000F01DF80C983B4651
S11349104246019000962946204600F0C5FA044616
S11349205046FFF74BF92046BDE8F6870091002377
S1134930324629462046704704000F4615461E4657
S1134940704784F87A10204675E28046002020677C
S113495084F87A00704700962B46002200212046F6
S1134960704700002DE9FC41040008BF222047D015
S11349702068B74FDFF89C640568BD421CBFB54290
S11349800F203DD100F0B6FE694600F0B5FE08B137
S1134990012035E0284600F071FFDFF874874146B6
S11349A0284600F0FFFF4146284601F013F821791C
S11349B0284600F0A7FE207950B960790FF244022E
S11349C011A1135C51F820200099284600F0EAFE5A
S11349D0BD4218BFB54202D0FD21FFF718FF0120E8
S11349E041F204016850BD4208BF002004D0B54222
S11349F00CBF04206FF00300DFF898140C50002063
S1134A00BDE8F68100010200A0860100DDFB05007F
S1134A101F100F002DE9F0410546296805F17804BF
S1134A200E68304600F0EEFF074678062DD540218B
S1134A3000F015F92078032804D004280ED00828A3
S1134A4020D012E0E9887F2905DAA178002060707F
S1134A5001290AD007E00421217006E0A07801288A
S1134A6005D0002161700B202070BDE8F081304634
S1134A7000F042FFE178304641F0010100F054FEBD
S1134A800820F1E700206070EFE7380710D508210F
S1134A9000F0E5F8082100F0DEF8304600F02CFFC5
S1134AA0E1783046BDE8F04141F0010100F03CBE40
S1134AB0380616D5802100F0D2F8207803281CBFD0
S1134AC00428082804D00B2804BF0320607001E0E8
S1134AD00A2161700E2121703046BDE8F04100F0DA
S1134AE023BFDFF82C86F8050DD500F0B7F800F0E9
S1134AF0B1F800F0B7F80021B16060780028B4D1B3
S1134B0001216170B1E717F4C06FAED000F0A6F8D0
S1134B1000F0A0F800F0A6F82020F060B90548BF26
S1134B200420B0D47805A0D50521EAE72DE9F041A9
S1134B300546296805F1780441F208080E683046F4
S1134B4000F060FF0746780728D5304600F072FF72
S1134B50DFF8181600F083F8DFF81416304600F07A
S1134B6085FF2078052802D0092813D06EE0E98853
S1134B707F2908DAA17800206070012966D1042019
S1134B8046F8080062E02021304600F06FFF06205E
S1134B9020705BE0042100F05EF81AE0B80629D525
S1134BA0202100F05CF8202100F055F82078062838
S1134BB018D1E8882179400000F0FF00884230468F
S1134BC00CD100F037FFA078012804D1042146F865
S1134BD00810002034E00921217037E000F05EFF66
S1134BE00A202DE0304600F0CBFE3046BDE8F0410F
S1134BF000F054BF380605D530468021BDE8F041A9
S1134C0000F0E8BEDFF86C85F8030BD500F022F85D
S1134C1000F024F800F026F80021B1606078A8B90B
S1134C20012112E017F4C06F10D000F013F800F067
S1134C3015F800F017F82020F060B90502D504201B
S1134C40607003E0780501D505216170BDE8F0814D
S1134C500000015A4146304600F0BCBE4146304691
S1134C6000F0A0BE284635E22DE9FE4F05000E46B1
S1134C7018BF5FEA020A01D00C9C0CB9222046E05E
S1134C80287908B1242042E05FEA030B1CBF0D9F82
S1134C90002F01D0802E01DB212038E0FEF788FFB1
S1134CA00190EE8000202867686705F17806B070EF
S1134CB0284600F0C0F828680221D0F8009031702E
S1134CC0EA8850008DF8000000F0AEF80E990C94BC
S1134CD080460D97584657464FF0000B0C468246C7
S1134CE004E0402100F09DF80A2030708CB100F0FF
S1134CF09BF8A0EB0800A0420BD32020C9F80C00BD
S1134D000B20072470700198FEF758FF2046BDE879
S1134D10FE8F484600F076FE014611F4C06F10D0B5
S1134D200C46DFF8501400F07CF82020C9F80C0081
S1134D3000213170A00559BF05202F2404203124FF
S1134D40E0E7327801F08000022A3FD0032A2FD016
S1134D500A2A12D00B2A02D00D2A43D054E0490665
S1134D60BFD40028C2D000F05BF8484600F0DCFD58
S1134D700D20307003217170B8E7286F504507D2B9
S1134D80411C2967395C484600F0CEFC0B20ACE797
S1134D90BBF1000F07D10C9FDDF834A0C5F870B04B
S1134DA04FF0010BA2E7484600F0BEFD0D209CE742
S1134DB0490696D4002899D000F032F8484600F00D
S1134DC0B3FD02200D21707031708FE7484600F06A
S1134DD093FD9DF80010484600F0A6FC03203070B7
S1134DE00021C8E7C805F0D548464FF4807100F0AB
S1134DF0D9FD7078022808BF2D2483D003281ABF58
S1134E000120002406247DE70021082031700124BC
S1134E1078E7000000800650C80700003011000049
S1134E208021484600F0BEBD80B5FEF7B3FEBDE864
S1134E30024000F04FBE38B505462868FFF726FC4F
S1134E400446DFF834138C4211D11B20FEF7C1FC59
S1134E50204600F095FD00F018F8287970B995F80F
S1134E607A004FF4F86158B14FF4FC6108E00D4842
S1134E70844208BF1C20E9D0232032BDDFF8FC1295
S1134E80204600F0F3FD002032BDDFF8E812204692
S1134E9000F088BD2C1A002000E0035090C4035099
S1134EA0D8070000008006502DE9F04F85B0054674
S1134EB02868884691461F46FFF7E8FB834605F1BC
S1134EC0780402202070E8888028ACBF01260026E0
S1134ED040003EB1010A01F0060141F0F00A8DF8EC
S1134EE0000006E000F0FE0AA078012808BF4AF09E
S1134EF0010AFFF799FF41464A46DDF83890DDF88C
S1134F003C8004910392029701965646824656E0ED
S1134F100D46DFF8601200F0FEF82020CBF80C00FC
S1134F2000212170A80503D5042161703120CEE051
S1134F30052060702F20FAE7490628D500F0EAF82A
S1134F40019828B19DF8001000F0BEF8042035E067
S1134F50A078012814BF0A200C202FE0490616D59A
S1134F6000F0D8F8A078012808D1584600F0C4FC15
S1134F7046F0010100F0A8F808201FE00A22227080
S1134F801DE0490603D500F0C5F80C2016E0B0B1C9
S1134F90802100F0C0F8584600F0C6FC0220607082
S1134FA00D2121700BE0286F039988423CD2421CEA
S1134FB02A670499095C00F087F80B202070B8F187
S1134FC0000F05D0FFF730FFA0EB0A00404524D2C4
S1134FD0584600F017FD014611F4C06F98D12278AD
S1134FE001F08000921E0B2A66D8DFE802F00B0A5B
S1134FF009656508076506273952D4E7C1E7B4E7B0
S1135000ACE799E7584600F077FC314600F05CF8CD
S11350100320207000216170D1E72020CBF80C0020
S11350200B216170072082E7A078022808BF0720BF
S1135030C4D0584600F078FC0D20BFE7490603D5DC
S113504000F068F80A20B9E70028B8D0802100F001
S113505062F8584600F068FC0D2020700321DAE75E
S11350608806ACD5202100F056F86F6F4F4506D264
S1135070781C6867584600F068FB0299C855686F49
S11350804845584602D100F009FDD2E700F0D2FCB1
S113509095E7C80593D558464FF4807100F082FC1B
S11350A06078022808BF2D2005D003281DBF0120E9
S11350B06070002006203AE708206070002121700B
S11350C0012034E7A8100000584600F02DBB05B0BD
S11350D0BDE8F08F70B5047B457B00F015F80646FB
S11350E0214600F01BFD18B12146304600F028FD92
S11350F02946304600F012FD28B129463046BDE865
S1135100704000F01DBD70BD1D4800F037BD0000AB
S1135110FFFF1F004021584600F044BC10B5194958
S113512051F8204020790028204602D1FFF772FC74
S113513001E0FFF7FBFC04F178004178012906D176
S113514082688AB101692046BDE81040104759B110
S113515002780E2A08D10F230370C36823B10269B1
S11351602046BDE81040184710BD0000240001008F
S113517080000100FFFF1F000000015AE406010047
S1135180640800002C1A00200020C7E70120C5E7AE
S113519070B504460D461646FEF72BFA2168A9435E
S11351A035400D432560BDE87040FEF726BA000087
S11351B02DE9F04104000D461646DFF8708202D155
S11351C08A2100F04AF9207808B97F2010E00128EC
S11351D008BF07200CD002280CBF3F20032807D0AB
S11351E0042818BF052802D0062818BF0728002065
S11351F000F010F902D48B2100F02FF9DFF830020F
S1135200006810B18C2100F028F900270F2D27D851
S1135210DFE805F02A2422201E1C1A181614121086
S11352200E0C0A080F2721E00E271FE00D271DE0B2
S11352300C271BE00B2719E00A2717E0092715E0C4
S1135240082713E0072711E006270FE005270DE0E4
S113525004270BE0032709E0022707E0012705E004
S113526040F2CB1100F0F9F8280007D030002046B6
S113527002D000F01DF901E000F082FC00F024F8F7
S11352808B1861780F20082903DA00F017F8181D2D
S113529004E0083900F012F803F10C00FFF778FF7E
S11352A055B9002E204603D0BDE8F04100F000B906
S11352B0BDE8F04100F064BCBDE8F081890007FA64
S11352C001F200FA01F17047227830205949424333
S11352D070472DE9F84304000D469146534F02D11F
S11352E0FC2100F0B7F8207808B97F2011E00128EC
S11352F008BF07200DD002280CBF3F20032808D088
S1135300042818BF052803D006281CBF072808282E
S1135310002000F07FF802D4FD2100F09BF85FEA42
S1135320090018BFB9F1010F08D0B9F1020F18BF75
S1135330B9F1040F02D0FE2100F08CF83C4800685B
S113534010B1FF2100F086F8DFF8EC8015F1010FB1
S11353500DD0002D24D46178A80880008908B0EB12
S1135360810F1FD040F2031100F074F81AE0D8F84E
S11353701000617840F6FC724FF0FF350A400023BC
S113538051FA83F707F00307BF1820FA07F6F60768
S113539017D55B1CDFB2032FF2DD15F1010F36D0F8
S11353A0002D34D403272278082D0CDAAE00B74040
S11353B0B24039462148FFF7EBFE00F02FF82048B1
S11353C00DE03D46E9E7A5F108008600B740B2408C
S11353D039461C48FFF7DCFE00F020F81A48FFF7B6
S11353E0D7FE1A4819F0050F14BF012200222946DE
S11353F000F0FCFB19F0060F14BF0122002229461D
S1135400404600F0F3FB0120A840114908602846FB
S1135410BDE8F2836178C840C007704760783946B8
S113542000F0030000FA06F270470000600C000070
S113543010C3035000C0035014C4035000C40350ED
S113544008C4035004C403500CC4035010C40350D4
S113545020E403503846FDF741BE4046FDF73EBE0A
S113546010B5044600F0DAFB4FF47A71B0FBF1F1A9
S11354700D4809B9392104E00C4AB2FBF1F121B914
S11354803F21BDE81040FDF729BE4FF47A70444334
S1135490B4FBF1F00321B0FBF1F018B1BDE810400A
S11354A0FAF74EBE10BD00BFAC17000040420F001B
S11354B038B50400174D04D140F2BF212846FDF74A
S11354C00DFE207808B97F2010E0012808BF0720CE
S11354D00CD002280CBF3F20032807D0042818BF93
S11354E0052802D0062818BF072800206178C84084
S11354F0C00704D44FF430712846FDF7EFFD302186
S1135500607824780122044B4C43824019190A61C3
S113551031BD00BFCC0A000000D003502DE9F04794
S113552004460D4600262DB900F098FB050008BF7F
S11355302D2068D0287D2028A8BF0F2063DAFEF72D
S113554037FB8046DFF8A401406800E08069183822
S113555010F1180F10D0A0420AD00168A942F5D169
S113556034B16B2100F070F800F071F823204AE0A8
S113557000F06DF8122046E0DFF87071B8688246DA
S113558074B907F1080200211C2000F0B8FB0400E4
S113559003D000F05CF8204635E0BC68012601E049
S11355A000B9BC60287D04F110030022042100F03E
S11355B0ACFB5FEA00090CD1287D04F1140300223E
S11355C0042100F0A2FB5FEA00090CD0206900F07E
S11355D098FD16B1204600F094FDC7F808A000F02D
S11355E036F848460FE0002060602073A060256014
S11355F004F11801381DFEF742FB284600F010FBA9
S113560000F025F80020BDE8F08738B504460D0009
S113561002D1F12100F018F800F01CF8216862684A
S11356200123097D03FA01F1491E914303D1FEF7D9
S1135630C5FA1A2032BDB1FA81F1C1F11F018B40C4
S11356401A43626029700AE02948FDF747BD4046C5
S1135650FEF7B4BA0CB925488468FEF7A9BAFEF778
S1135660ADFA002032BD38B504000D4604BF1F4812
S1135670846800F022F801D3212032BDFEF798FAA5
S113568061680122AA40914361602169002341F8C5
S11356902530616941F82530E1E770B504000D4615
S11356A0164604BF1148846800F007F801D321208E
S11356B070BDFEF77DFA216912E021680A7D9542EA
S11356C0704770B504000D46164604BF0748846849
S11356D0FFF7F3FF01D3212070BDFEF769FA61697A
S11356E041F82560FEF76AFA002070BDE01800203A
S11356F0380A000000797047002918BF00F005BD82
S11357002220704738B500F01BF81CBF914A944220
S113571002D0692100F005F9204600F0AFF86D00D1
S113572041F20800255031BD38B500F009F81CBF1E
S1135730884A944202D07C2100F0F3F8656331BDBD
S1135740044685480D46844270472DE9F0410446DD
S1135750DFF80482814E7F4F444518BFBC4204D019
S11357608E2106F18800FDF7B9FC6069C105FCD5FE
S1135770656A444518BFBC4204D04FF4BA71304640
S1135780FDF7ACFC616976480140B1F5003F05D1F5
S1135790606A4FF40051204600F004F9E8B2BDE815
S11357A0F08100002DE9F84307466B480E46144685
S11357B01D464FF00009DFF8AC8187421CBF654AE3
S11357C0974202D0B92100F056F814B9BC2100F078
S11357D052F816B9BD2100F04EF8280241F2080132
S11357E07850BA6890070BD57DB1022D03D005D24D
S11357F0DFF8749115E0DFF8749112E0D2210EE025
S11358001DB1022D07D003D308E0DFF8649108E04E
S1135810DFF8609105E0DFF8609102E0E12100F03B
S11358202AF8B14502D3E72100F025F85CA0455DD4
S1135830654302D1F22100F01EF86FF0070000FB6F
S11358400466AE19761EB6FBF5F4641E02D5F92182
S113585000F011F840F2FF10844202D9FA2100F05E
S11358600AF8B868810701D504B90124C4F308040F
S1135870BC61BDE8F1834046FDF730BC2DE9F04141
S11358800446DFF8D480354D324E444518BFB44247
S113589005D04FF4927105F18800FDF71FFCE0215B
S11358A0E1600020A0600021A161E0612162444523
S11358B018BFB44204D04FF487712846FDF70EFC9C
S11358C0606842F204016718C10744BF01203860D0
S11358D0444518BFB44204D04FF4CB712846FDF7B9
S11358E0FDFB264DFD63204600F051F82946204675
S11358F0BDE8F04100F056B810B50446164884429D
S11359001CBF144A944203D040F24F1100F009F82E
S113591061680020CA0701D4112010BD0121E16093
S113592010BD1048FDF7DABB10B504460A4884429E
S11359301CBF084A944203D04FF4B371FFF7F1FF40
S113594061680020CA0701D4112010BD0221E16062
S113595010BD0000008006500000015A700D0000C8
S113596020000200F80D0000404B4C00809FD50041
S113597080841E0040548900002D3101FFFF1F0068
S11359800169CA0744BF2021C160C022C26000E08F
S1135990416A4269D305FBD4202100F003B800001A
S11359A00809110838B5044607480D4684421CBF4F
S11359B0064A944204D04FF4DC710548FDF78EFB8F
S11359C042F23C01655031BD0000015A008006508E
S11359D0700D000038B5044607480D4684421CBFCC
S11359E0064A944204D04FF4CB710548FDF776FB88
S11359F004F501510D6031BD0000015A00800650CC
S1135A00A810000010B50446074884421CBF074A8A
S1135A10944204D04FF4F2710548FDF75FFB206C0B
S1135A20E16B084010BD00BF0000015A0080065021
S1135A30A810000010B50446094884421CBF094A56
S1135A40944204D040F229110748FDF747FB6168EE
S1135A500020CA0701D4112010BD0421E16010BD4B
S1135A600000015A00800650A810000038B5044612
S1135A7007480D4684421CBF064A944204D040F2B3
S1135A8085110548FDF72AFB04F582510D6031BDEF
S1135A900000015A00800650A810000010B504460A
S1135AA0094884421CBF094A944204D040F2591167
S1135AB00748FDF713FB61680020CA0701D41120D1
S1135AC010BD0821E16010BD0000015A008006509D
S1135AD0A810000070B5104A966801460020CEB1A7
S1135AE04FF47A70A0FB0145304600F06FFB48B1DB
S1135AF0304600F073FB024620462946BDE870405C
S1135B0000F072BB2046294632460023BDE87040AF
S1135B10FDF798BF70BD00BF941B002038B50D463B
S1135B200446082D04D340F628210448FDF7D6FA8C
S1135B30E06AE84000F0010032BD00BF7C080000CC
S1135B40F8B50D460126AE400446082D04D340F2B4
S1135B500D110948FDF7C2FAFEF72AF80746314647
S1135B60204600F050FB2946204600F051FB384601
S1135B70BDE8F240FEF722B8080F00000068704745
S1135B8038B50400174D04D140F2E6212846FDF74C
S1135B90A5FA207808B97F2010E0012808BF072063
S1135BA00CD002280CBF3F20032807D0042818BFBC
S1135BB0052802D0062818BF072800206178C840AD
S1135BC0C00704D440F2E7212846FDF787FA3021C4
S1135BD0607824780122044B4C43824019190A61ED
S1135BE031BD00BFD80B000000E0035070B50E4675
S1135BF005461446202E03D374210748FDF76EFA98
S1135C00002C14BF05F5805505F50055012000FA58
S1135C1006F62E6070BD00BFE80C0000FDF7A0BAC8
S1135C2038B5054600F006FB0446A868FDF7CDFF2D
S1135C302248FDF7CAFF1520FDF737FE1520FDF7B2
S1135C40DFFD00BF21A1086869460090204600F0EE
S1135C50F3FA012041F20401605031BD1848704745
S1135C602DE9F041174D284600F026FB0646314643
S1135C70284600F026FB0127B4B2A846002E18D50A
S1135C80E9681148090A01F01F018F400A4640F8EB
S1135C9022704046BDE8F04100F018BBB4FA84F528
S1135CA0C5F11F05E9B2404607FA05F500F00EFB01
S1135CB0AC43002CF2D1BDE8F0810000D80700000D
S1135CC06408000000000450F01800201E000000CA
S1135CD01CB5DFF82C43607808B1122016BD00F023
S1135CE02AFB684600F020FB01990098231D02223C
