S00F0000627473656E736F722E73333775
S113000000100020217900004579000045790000A6
S113001045790000457900004579000045790000E4
S113002045790000457900004579000045790000D4
S113003045790000457900004579000045790000C4
S113004045790000457900004579000045790000B4
S113005045790000457900004579000045790000A4
S11300604579000045790000457900004579000094
S11300700F6D0000457900004579000045790000C6
S1130080457900004579000045790000837C000033
S113009045790000275900004579000045790000A2
S11300A045790000A56500009765000045790000CA
S11300B04579000045790000457900004579000044
S11300C04579000045790000457900004579000034
S11300D04579000045790000457900004579000024
S11300E04579000045790000457900004579000014
S11300F04579000045790000457900004579000004
S113010045790000457900004579000045790000F3
S113011045790000457900004579000045790000E3
S113012045790000457900004579000045790000D3
S11301304579000045790000B17C00004579000054
S1130140000002000000000000000000BA040000EB
S11301500000000000000200000000000000000099
S1130160BA04000000000000A0BB0D00C07A10001B
S1130170001F408240420F00C07A100020D61300B6
S11301803A1F41A20000000020D613009058170027
S11301903A1F42A2000000009058170040771B004D
S11301A03A9F43B60000000040771B0070CE200049
S11301B0001F408180841E0070CE200040AC2700C8
S11301C03A1F41A10000000040AC2700108A2E0015
S11301D03A1F42A100000000108A2E0080EE360073
S11301E03A9F43B50000000080EE3600E09C4100D9
S11301F0001F408000093D00E09C410080584F00F2
S11302003A1F41A00000000080584F0020145D00F8
S11302103A1F42A00000000020145D00C0047700D3
S1130220009F43B4C0CF6A00C004770040899500A2
S11302303A9F44B40000000040899500C00DB4000A
S11302403A9F45B400000000C00DB40000BADB00C2
S1130250009F66B4405DC60000BADB0080730601EF
S1130260009F67B40024F4008073060120992C01D8
S1130270009F68A8C0EA210120992C01C0286B01C5
S11302803A9F89B800000000C0286B0160EDB501F9
S1130290009F8AB880BA8C0160EDB5018001130219
S11302A0009FABB80048E8018001130280138D025F
S11302B0009FCCA880D5430280138D02805A13037B
S11302C0009FEDAC006CDC02805A130320289B03D2
S11302D0009FEEBC007E560320289B03C0C9530434
S11302E0009FEFBC0090D003C0C9530400B4C40401
S11302F0009FF0CC00B4C404433A5C557365727338
S11303005C686578696E5C53696D706C6963697467
S11303107953747564696F5C76365F776F726B734B
S1130320706163655C627473656E736F725C73692C
S11303306D706C69636974795F73646B5F323032BA
S1130340352E31322E335C706C6174666F726D5F62
S1130350636F72655C706C6174666F726D5C656D01
S11303606C69625C696E635C656D5F6275732E684F
S113037000000000433A5C55736572735C686578ED
S1130380696E5C53696D706C6963697479537475D3
S113039064696F5C76365F776F726B7370616365E7
S11303A05C627473656E736F725C73696D706C6993
S11303B0636974795F73646B5F323032352E313226
S11303C02E335C706C6174666F726D5F636F7265FF
S11303D05C706C6174666F726D5C656D6C69625C97
S11303E07372635C656D5F636D752E63000000005E
S11303F0433A5C55736572735C686578696E5C53E7
S1130400696D706C696369747953747564696F5C40
S113041076365F776F726B73706163655C62747359
S1130420656E736F725C73696D706C6963697479FE
S11304305F73646B5F323032352E31322E335C7031
S11304406C6174666F726D5F636F72655C706C6112
S113045074666F726D5C656D6C69625C7372635C0B
S1130460656D5F656D752E6300000000433A5C5551
S1130470736572735C686578696E5C53696D706CE2
S1130480696369747953747564696F5C76365F77F0
S11304906F726B73706163655C627473656E736FA6
S11304A0725C73696D706C69636974795F73646B92
S11304B05F323032352E31322E335C706C617466AB
S11304C06F726D5F636F72655C706C6174666F727E
S11304D06D5C656D6C69625C7372635C656D5F65B0
S11304E075736172742E6300433A5C55736572735D
S11304F05C686578696E5C53696D706C6963697476
S11305007953747564696F5C76365F776F726B7359
S1130510706163655C627473656E736F725C73693A
S11305206D706C69636974795F73646B5F323032C8
S1130530352E31322E335C706C6174666F726D5F70
S1130540636F72655C706C6174666F726D5C656D0F
S11305506C69625C7372635C656D5F696164632E70
S113056063000000433A5C55736572735C68657898
S1130570696E5C53696D706C6963697479537475E1
S113058064696F5C76365F776F726B7370616365F5
S11305905C627473656E736F725C73696D706C69A1
S11305A0636974795F73646B5F323032352E313234
S11305B02E335C706C6174666F726D5F636F72650D
S11305C05C706C6174666F726D5C656D6C69625CA5
S11305D0696E635C656D5F6275732E680000000070
S11305E0433A5C55736572735C686578696E5C53F5
S11305F0696D706C696369747953747564696F5C4F
S113060076365F776F726B73706163655C62747367
S1130610656E736F725C73696D706C69636974790C
S11306205F73646B5F323032352E31322E335C703F
S11306306C6174666F726D5F636F72655C706C6120
S113064074666F726D5C656D6C69625C7372635C19
S1130650656D5F6C646D612E63000000433A5C5508
S1130660736572735C686578696E5C53696D706CF0
S1130670696369747953747564696F5C76365F77FE
S11306806F726B73706163655C627473656E736FB4
S1130690725C73696D706C69636974795F73646BA0
S11306A05F323032352E31322E335C706C617466B9
S11306B06F726D5F636F72655C706C6174666F728C
S11306C06D5C656D6C69625C7372635C656D5F6DB6
S11306D073632E6300000000433A5C5573657273C4
S11306E05C686578696E5C53696D706C6963697484
S11306F07953747564696F5C76365F776F726B7368
S1130700706163655C627473656E736F725C736948
S11307106D706C69636974795F73646B5F323032D6
S1130720352E31322E335C706C6174666F726D5F7E
S1130730636F72655C706C6174666F726D5C656D1D
S11307406C69625C7372635C656D5F727463632E63
S113075063000000B1810000BB810000BF81000084
S1130760E18100003F820000E38100001782000065
S11307702C000000433A5C55736572735C686578BD
S1130780696E5C53696D706C6963697479537475CF
S113079064696F5C76365F776F726B7370616365E3
S11307A05C627473656E736F725C73696D706C698F
S11307B0636974795F73646B5F323032352E313222
S11307C02E335C706C6174666F726D5F636F7265FB
S11307D05C706C6174666F726D5C656D6C69625C93
S11307E0696E635C656D5F6275732E68000000005E
S11307F0433A5C55736572735C686578696E5C53E3
S1130800696D706C696369747953747564696F5C3C
S113081076365F776F726B73706163655C62747355
S1130820656E736F725C73696D706C6963697479FA
S11308305F73646B5F323032352E31322E335C702D
S11308406C6174666F726D5F636F72655C706C610E
S113085074666F726D5C736572766963655C636CF4
S11308606F636B5F6D616E616765725C7372635C0D
S1130870736C5F636C6F636B5F6D616E61676572F0
S11308805F696E69745F68616C5F73322E63000028
S1130890180000001A0000000C0000001500000001
S11308A01E00000000001000010010000000035AA8
S11308B01400000090080000A4080000A80800002C
S11308C00000005812000000A0080000433A5C55E4
S11308D0736572735C686578696E5C53696D706C7E
S11308E0696369747953747564696F5C76365F778C
S11308F06F726B73706163655C627473656E736F42
S1130900725C73696D706C69636974795F73646B2D
S11309105F323032352E31322E335C706C61746646
S11309206F726D5F636F72655C706C6174666F7219
S11309306D5C7065726970686572616C5C696E6328
S11309405C736C5F68616C5F6770696F2E68000030
S1130950433A5C55736572735C686578696E5C5381
S1130960696D706C696369747953747564696F5CDB
S113097076365F776F726B73706163655C627473F4
S1130980656E736F725C73696D706C696369747999
S11309905F73646B5F323032352E31322E335C70CC
S11309A06C6174666F726D5F636F72655C706C61AD
S11309B074666F726D5C6472697665725C67706987
S11309C06F5C7372635C736C5F6770696F2E630036
S11309D0433A5C55736572735C686578696E5C5301
S11309E0696D706C696369747953747564696F5C5B
S11309F076365F776F726B73706163655C62747374
S1130A00656E736F725C73696D706C696369747918
S1130A105F73646B5F323032352E31322E335C704B
S1130A206C6174666F726D5F636F72655C706C612C
S1130A3074666F726D5C7065726970686572616C02
S1130A405C696E635C736C5F68616C5F6770696F2F
S1130A502E680000433A5C55736572735C68657870
S1130A60696E5C53696D706C6963697479537475EC
S1130A7064696F5C76365F776F726B737061636500
S1130A805C627473656E736F725C73696D706C69AC
S1130A90636974795F73646B5F323032352E31323F
S1130AA02E335C706C6174666F726D5F636F726518
S1130AB05C706C6174666F726D5C7065726970688D
S1130AC06572616C5C7372635C736C5F68616C5FAC
S1130AD06770696F2E630000433A5C5573657273E7
S1130AE05C686578696E5C53696D706C6963697480
S1130AF07953747564696F5C76365F776F726B7364
S1130B00706163655C627473656E736F725C736944
S1130B106D706C69636974795F73646B5F323032D2
S1130B20352E31322E335C706C6174666F726D5F7A
S1130B30636F72655C706C6174666F726D5C706516
S1130B40726970686572616C5C696E635C736C5F1A
S1130B5068616C5F6275732E68000000433A5C55EF
S1130B60736572735C686578696E5C53696D706CEB
S1130B70696369747953747564696F5C76365F77F9
S1130B806F726B73706163655C627473656E736FAF
S1130B90725C73696D706C69636974795F73646B9B
S1130BA05F323032352E31322E335C706C617466B4
S1130BB06F726D5F636F72655C706C6174666F7287
S1130BC06D5C7065726970686572616C5C696E6396
S1130BD05C736C5F68616C5F6C6574696D65722EC3
S1130BE068000000433A5C55736572735C6865780D
S1130BF0696E5C53696D706C69636974795374755B
S1130C0064696F5C76365F776F726B73706163656E
S1130C105C627473656E736F725C73696D706C691A
S1130C20636974795F73646B5F323032352E3132AD
S1130C302E335C706C6174666F726D5F636F726586
S1130C405C706C6174666F726D5C706572697068FB
S1130C506572616C5C7372635C736C5F68616C5F1A
S1130C606C6574696D65722E63000000433A5C55CF
S1130C70736572735C686578696E5C53696D706CDA
S1130C80696369747953747564696F5C76365F77E8
S1130C906F726B73706163655C627473656E736F9E
S1130CA0725C73696D706C69636974795F73646B8A
S1130CB05F323032352E31322E335C706C617466A3
S1130CC06F726D5F636F72655C706C6174666F7276
S1130CD06D5C736572766963655C696E7465727266
S1130CE07570745F6D616E616765725C7372635C6D
S1130CF0736C5F696E746572727570745F6D616E2A
S1130D00616765725F636F727465786D2E6300004E
S1130D10433A5C55736572735C686578696E5C53BD
S1130D20696D706C696369747953747564696F5C17
S1130D3076365F776F726B73706163655C62747330
S1130D40656E736F725C73696D706C6963697479D5
S1130D505F73646B5F323032352E31322E335C7008
S1130D606C6174666F726D5F636F72655C706C61E9
S1130D7074666F726D5C736572766963655C706FBF
S1130D807765725F6D616E616765725C7372635CD7
S1130D90736C6565705F6C6F6F705C736C5F706FA4
S1130DA07765725F6D616E616765722E6300000026
S1130DB0433A5C55736572735C686578696E5C531D
S1130DC0696D706C696369747953747564696F5C77
S1130DD076365F776F726B73706163655C62747390
S1130DE0656E736F725C73696D706C696369747935
S1130DF05F73646B5F323032352E31322E335C7068
S1130E006C6174666F726D5F636F72655C706C6148
S1130E1074666F726D5C736572766963655C706F1E
S1130E207765725F6D616E616765725C7372635C36
S1130E30636F6D6D6F6E5C736C5F706F7765725FFF
S1130E406D616E616765725F636F6D6D6F6E2E634A
S1130E5000000000433A5C55736572735C68657802
S1130E60696E5C53696D706C6963697479537475E8
S1130E7064696F5C76365F776F726B7370616365FC
S1130E805C627473656E736F725C73696D706C69A8
S1130E90636974795F73646B5F323032352E31323B
S1130EA02E335C706C6174666F726D5F636F726514
S1130EB05C706C6174666F726D5C73657276696385
S1130EC0655C706F7765725F6D616E616765725C9A
S1130ED07372635C736C6565705F6C6F6F705C7369
S1130EE06C5F706F7765725F6D616E616765725F6D
S1130EF068616C5F73322E6300000000433A5C55F6
S1130F00736572735C686578696E5C53696D706C47
S1130F10696369747953747564696F5C76365F7755
S1130F206F726B73706163655C627473656E736F0B
S1130F30725C73696D706C69636974795F73646BF7
S1130F405F323032352E31322E335C706C61746610
S1130F506F726D5F636F72655C706C6174666F72E3
S1130F606D5C736572766963655C736C65657074DA
S1130F70696D65725C7372635C736C5F736C6565D9
S1130F807074696D65722E6300000000433A5C550D
S1130F90736572735C686578696E5C53696D706CB7
S1130FA0696369747953747564696F5C76365F77C5
S1130FB06F726B73706163655C627473656E736F7B
S1130FC0725C73696D706C69636974795F73646B67
S1130FD05F323032352E31322E335C706C61746680
S1130FE06F726D5F636F6D6D6F6E5C706C61746654
S1130FF06F726D5C636F6D6D6F6E5C696E635C7355
S11310006C5F636F6D6D6F6E2E680000433A5C55C4
S1131010736572735C686578696E5C53696D706C36
S1131020696369747953747564696F5C76365F7744
S11310306F726B73706163655C627473656E736FFA
S1131040725C73696D706C69636974795F73646BE6
S11310505F323032352E31322E335C706C617466FF
S11310606F726D5F636F72655C706C6174666F72D2
S11310706D5C736572766963655C736C65657074C9
S1131080696D65725C7372635C736C695F736C65C4
S1131090657074696D65725F68616C2E680000002C
S11310A0433A5C55736572735C686578696E5C532A
S11310B0696D706C696369747953747564696F5C84
S11310C076365F776F726B73706163655C6274739D
S11310D0656E736F725C73696D706C696369747942
S11310E05F73646B5F323032352E31322E335C7075
S11310F06C6174666F726D5F636F72655C706C6156
S113110074666F726D5C736572766963655C6D6538
S11311106D6F72795F6D616E616765725C73726326
S11311205C736C695F6D656D6F72795F6D616E6123
S11311306765725F636F6D6D6F6E2E6300000000F4
S1131140433A5C55736572735C686578696E5C5389
S1131150696D706C696369747953747564696F5CE3
S113116076365F776F726B73706163655C627473FC
S1131170656E736F725C73696D706C6963697479A1
S11311805F73646B5F323032352E31322E335C70D4
S11311906C6174666F726D5F636F72655C706C61B5
S11311A074666F726D5C7065726970686572616C8B
S11311B05C696E635C736C5F68616C5F6C657469B9
S11311C06D65722E68000000433A5C557365727356
S11311D05C686578696E5C53696D706C6963697489
S11311E07953747564696F5C76365F776F726B736D
S11311F0706163655C627473656E736F725C73694E
S11312006D706C69636974795F73646B5F323032DB
S1131210352E31322E335C706C6174666F726D5F83
S1131220636F72655C706C6174666F726D5C656D22
S11312306472765C756172746472765C7372635CFA
S1131240756172746472762E6300000078B591B093
S1131250002104AC21606160A16007A859492822DB
S113126000F0C8F80FF284125EA61168D6E90045B2
S11312702A200191CDE90245012100F0C7F8524C22
S1131280204600F0EDFA02214FF4B06000F048FE71
S113129000208DF8130000224C49204600F06AFB20
S11312A08DF8150003219DF815008DF81F1040F6E8
S11312B0C4120A9202218DF81E10002200908DF8AB
S11312C02C2000234249204600F07EFB042100220A
S11312D08DF81D108DF80A208DF80D200122832130
S11312E009908DF808208DF805108DF8042007AAC0
S11312F004A9204600F0C4F801AA02A9204600F07F
S11313002EFA3448016841F48031016002683249A0
S113131042F0010202604FF4007008600122E260B2
S1131320012012B070BD0000F8B500BF30A63068CF
S11313300024254D0090832101228DF801108DF8A1
S113134000200AE03268E1B200290092F3D0842040
S113135001218DF801008DF800106946284600F03F
S113136043FA4FF400701E4908600122EA60686A7B
S11313708005FCD5686A19490A7880050AD5E86FA2
S113138001EB8403586528206043081800EB8207AA
S1131390586D7860012C07D1521C0A2392FBF3F399
S11313A00A2000FB13220A70641C012CCADDF1BD63
S11313B080B5FFF74BFFFFF7B7FF0348BDE80240D6
S11313C000F04EBA400100000040005A002D3101E7
S11313D08096980020C303502850005A881100209A
S11313E02460005A00000300000000000100000017
S11313F0010000004AB1000011F8013B521E00F840
S1131400013B1CBF11F8013BF8E77047F8B50546EE
S113141000260C464009124F06D140F23B3107F535
S1131420037001F089FA07E0012808BF0D4E03D0CC
S113143002280CBF0C4E0D4E05F01F051F2D04D9BC
S1131440912107F5C87001F077FA002C14BF06F556
S1131450805606F50056012000FA05F53560F1BD09
S11314606801000064800050688000506082005071
S11314704169CB01FCD4012142F20402815070473E
S11314802DE9F84F14462DED028B8346DFF898259D
S113149084B00E46934502D0EC2100F0D5F9DFF874
S11314A08C7500223946584600F064FA80467079FB
S11314B04045A8BF80465846FFF7DAFF3179080057
S11314C00AD100F07BFAB84228BFB0FBF8F001461D
S11314D0584600F02AFA0146F078090401F4FE01A6
S11314E0000100F0300001434FEA087000F0E040D2
S11314F00143307808B141F00201707808B141F03D
S11315000401B07808B141F00801CBF80810F08864
S1131510DFF81C75CBF8100031897089002640EA89
S11315200140CBF8200002948DF804800FE040F2D3
S1131530F11100F089F905E0C0F3110040EA0A0A4C
S1131540C8F850A0C9F30909C8F85490761CDFF80C
S1131550D80483450CBF02200020864280F0F58029
S1131560142102987143441894F800A02589BAF113
S1131570000F0CBFDFF8BC14DFF8BC149DF80400A6
S1131580534600220090584600F01EFAA84238BF85
S113159028460BEB06188146D8F8480061786AF3B0
S11315A0010061F38400A17861F30E30E17861F306
S11315B01240217C61F35750217961F31D70C8F802
S11315C04800D8F84800C0F30230411E04290BD863
S11315D0DFE801F00A0A030507003D6802E07D68C0
S11315E003E07D682D0C00E03D68BAF1000F9ED148
S11315F09FED930A032802D1F86800140BE0042835
S113160003D1F8680014400005E0052807D1F86804
S1131610001400EB400000EE100AB8EEC00AA9B2B4
S113162049F6FF7008404FEA804A000448BF4AF078
S1131630004AD8F848100120C1F38201491C8840AF
S113164000EE900AF8EEE08A022808D1F86800B2A9
S113165000EE900AF8EEE00A30EE808A15E0386970
S1131660F6EE000A68EEA00A00B201EE100AB868AD
S1131670B8EEC11A31EE400A00B201EE900AC0EE93
S1131680200AF8EEE11A30EEA18AE07870B900F091
S1131690EBF900EE100AB8EE400ADFED6A0A80EEBC
S11316A0200AB7EE041A81EE001A0BE094ED030A47
S11316B0B8EE400ADFED630AC0EE200AB7EE041A62
S11316C081EE201A21EE080AF1EE001ADFED600A1D
S11316D020EE210AC0EEA80A9FED5E1A00EE810AF0
S11316E0BAF1004F0BD09FED5C1A00EE905A30EE29
S11316F0011AFBEE600A9FED590A00EE810AF1EE31
S1131700400AF5EE400AF1EE10FA08D5FEEE000AA2
S113171030EEC00ABDEEC00A10EE100A07E0B6EEC5
S1131720001A31EE401ABDEEC11A11EE100AB0F5DE
S1131730003FA8BFDFF80403BFF600AF10F5003F79
S1131740BFF6FAAE4AF4003AFAE6012041F2040187
S11317504BF8010004B0BDEC028BBDE8F18F70B50D
S1131760164600F066F803D04FF4197100F06CF8D7
S11317702046FFF77DFE6878002814BF0821002169
S113178000F023F82167E16AA879002814BF4FF418
S1131790803200222B79DFF8A802014068791B020D
S11317A003F4E0630003194300F480500143114340
S11317B0E1623146204600F017F8012141F20402AB
S11317C0A150E87900B1E16070BDE87808B14FF448
S11317D080702A78AB7802F0070211431B0103F0F2
S11317E0300319430143704738B500F022F803D0A1
S11317F04FF4277100F028F8012241F204036168D4
S1131800E250E87801F0010108B14FF400302A7881
S11318106B78AD7842EA03222D0405F480352A431F
S11318201043C4F8980019B92046BDE832401FE6B9
S113183031BD04467C4A0D469442704700000000C6
S11318400000000000007A447E4801F075B80000F2
S1131850000080430000204400000049000000C94B
S113186038B50446704A944203D040F21931FFF768
S1131870EBFF012141F204002150734AE2607349F5
S113188060690842FCD10022A261002004F18401B5
S11318904861606910F4401FFBD16069C10501D43F
S11318A0A06F10B1606FF8E70968606904F1840102
S11318B08205F9D448680028F6D1E06F896820468B
S11318C0FFF7D6FD0020A06000212161E0622162C3
S11318D0302020673021C4F88010002152485C4D2C
S11318E008E004EB011242F26003491C936415659D
S11318F00023536584420CBF022200229142F0D39C
S1131900002105E0002204EB8103C3F8A020491C58
S113191084420CBF102200229142F3D342F22400ED
S113192020184C490160416031BD10B53E4A0C4657
S1131930904203D040F26F31FFF786FF7CB900F08C
S11319403DF8040008BF012409D04348844206D36B
S113195042490868C0F30270401CB4FBF0F44048EC
S113196004194049B4FBF1F0401E7F2828BF7F20B2
S1131970C0B210BD70B515462B4A0C46314E90428C
S113198003D040F2AA3100F01CF824B940F2AB3184
S113199000F017F803E02548844228BF044615B92F
S11319A000F00CF8054665196D1EB5FBF4F018B18E
S11319B0401E042828BF0320C0B270BD2A2000F0B6
S11319C041B9304600F0B8BFF8B51546164A0C4682
S11319D01E461C4F904204D04FF47971384600F0F3
S11319E0ABFF24B940F2E531384600F0A5FF002EE4
S11319F00CBF10481048A04238BF044615B9FFF781
S1131A00DDFF05460698C0B2401CB5FBF0F0201877
S1131A10401EB0FBF4F028B1401E40F2FF31884272
S1131A2028BF084680B2F2BD0040005A005A620244
S1131A308081E00F80969800404B4C00FFFF01002E
S1131A40FFE8FEFFE804000012000200520001005B
S1131A5000C002808F330F80015A62020840005A8E
S1131A603F420F0040420F0038B504466846002547
S1131A7000F064FF042C10D8DFE804F003060F091B
S1131A800C0040F2BA450CE040F2E24509E040F6B1
S1131A90B83506E04FF4166503E040F29141FFF7D4
S1131AA0D3FE284632BD30B50168846842184168C7
S1131AB002EB5103C90703D54C4401E0491C08D18A
S1131AC09A4218BF12F9011B01D10C3030BD12F833
S1131AD0015B002904F8015BF0D4491EF7D5EFE758
S1131AE0DFF89C170868C0F300100028FAD10868D2
S1131AF0C0F38110704710B50024DFF88428DFF8A4
S1131B008418002818BFB0F5C07F09D0B0F5007F55
S1131B1023D0B0F5207F24D0B0F5607F0FD023E030
S1131B200868C0F30334002C18BF012C1CD0032C0C
S1131B301CBF072C0F2C17D040F28B2109E0086939
S1131B40C0F30114002C1CBF012C032C0CD040F258
S1131B509B21104600F0F0FE06E0086AC0F304641E
S1131B6002E00868C0F38024601C10BD38B502464A
S1131B704C1EDFF80C08DFF80C58002A18BFB2F529
S1131B80C07F09D0B2F5007F3AD0B2F5207F45D0AE
S1131B90B2F5607F23D04FE0012918BF022909D094
S1131BA0042918BF082905D010291CBF4FF434712B
S1131BB000F0C2FE00F025FE00F0E8FD286820F4E5
S1131BC0704040EA04302860FFF78AFF044600F0C2
S1131BD0D5FEC4F10204214600F036FC88E1012957
S1131BE018BF022905D004291CBF40F2FE2100F0D1
S1131BF0A3FE286920F0300040EA0410286131BDBA
S1131C0009B1212903D340F2123100F095FE286A6C
S1131C1020F0F85040EA0460286231BD01291EBF5B
S1131C2002294FF4467100F087FE286820F4806092
S1131C3040EA8420286031BD40F21E31BDE83440C2
S1131C4000F07ABE1CB500210091002855D0203840
S1131C5053D0401E5AD0801E58D0401E032871D93C
S1131C60001F012852D9801E78D0401E54D0401E37
S1131C707CD0401E34D0401E4ED0401E022845D990
S1131C80093867D0401E61D0401E02283ED9C01ECC
S1131C9078D0401E72D0401E38D00E382DD0801E11
S1131CA002282AD9C01E4DD00E38012825D9203843
S1131CB020D0803856D080381FD0803820D080384B
S1131CC024D0803828D0803831D080383AD0803839
S1131CD03CD080383ED0803840D0803846D08038E0
S1131CE048D080384AD080384CD04FF48072801A63
S1131CF04CD04FE000F044FE22E000F05FFE1FE015
S1131D0000F03EFE04464FF4007015E000F056FE6D
S1131D1004464FF420700FE000F050FE04464FF4E8
S1131D202070FFF7E8FEB4FBF0F0400808E000F094
S1131D3027FE04464FF46070FFF7DDFEB4FBF0F0BD
S1131D4000902BE0684600F0F9FB27E0684600F0BD
S1131D5081FB23E0684600F0B3FB1FE0684600F017
S1131D60EDFC1BE0684600F07DFD17E0684600F0DE
S1131D7007FC13E0684600F04BFD0FE0684600F0F6
S1131D801DFD0BE0684600F029FC07E0684600F002
S1131D90AFFB03E040F2AA4100F0EEFA009816BD52
S1131DA080B5002124380091DFF8D425032841D9D7
S1131DB0801F3AD0801E46D0401E53D00B385AD0D4
S1131DC0401F45D0401E5BD0143833D02E3818D075
S1131DD0803834D04FF44073C01A2BD080383CD0B4
S1131DE0803848D0803820D080382CD0803839D002
S1131DF0803845D080382BD080382ED0803836D0EB
S1131E0043E000F0C6FA0DD8DFE800F0090204064A
S1131E10052102E0032203E0072100913AE00222B7
S1131E20009237E040F2DC4131E06946002000F0E6
S1131E3085FC2FE06946002000F080FB2AE069461B
S1131E4000F010FD26E06946002000F099FB21E037
S1131E506946002000F0C2FB1CE06946002000F047
S1131E60F9FA17E06946002000F0D2FC12E0694656
S1131E7000F03EFB0EE06946002000F021FB09E083
S1131E806946002000F09AFC04E040F28F511046AD
S1131E9000F052FD009802BD80B50121022000F03F
S1131EA052FE4FF42070FFF726FEDFF87815087015
S1131EB000F0A7FCBDE8014000F068BC38B504465A
S1131EC0FFF70EFE054600F059FDC5F1020529464F
S1131ED000F0BAFA0121002000F023FE04B107E06B
S1131EE0DFF8400501784FF42070BDE834403DE64A
S1131EF0BDE8314000F050BCDFF8B40401684FF491
S1131F008030DFF8A8241060DFF8A82413685B0889
S1131F105B001360C9035CBFDFF8102510607047D5
S1131F202DE9F84302460D4600260024243ADFF842
S1131F305004DFF87814DFF87894DFF8F484DFF8DD
S1131F40F474032A40F28E80921F1AD0921E1AD083
S1131F50521E1BD00B3A11D0521F1DD0521E18D046
S1131F60143A07D02E3A20D0803A00F091804FF4F2
S1131F704073D21A76D0803A11D0803A00F045816D
S1131F80803A5CD0803A00F0B480803A00F004815A
S1131F90803A00F05081803A00F0C580803A00F029
S1131FA0DC80803A00F019815DE1022D19D0032D07
S1131FB006D0052D02D0072D11D014E0022616E01C
S1131FC04FF400220A60DFF870341C680120DFF847
S1131FD0581464080326086004F0010407E004268A
S1131FE005E0012603E040F2516100F0A5FC012167
S1131FF0022000F0A8FD00F004FC00F0C7FBD9F8B3
S11320000C00C00846EAC006C9F80C60FFF768FD7A
S1132010064600F0B3FCC6F10206314600F014FA9D
S11320200121002000F07DFD00F0B6FB002C08BF6C
S1132030032D03D10120DFF80414086019E1022DF7
S113204007D00F2D0EBF012640F29A6100F074FCF8
S113205000E00226DFF8E8030168890846EA810601
S1132060066006E1012D0ED0022D0BD0032D07D002
S1132070052D0EBF012640F2D96100F05DFC02E09F
S1132080022600E00326386A00F0F5F83E62F0E02C
S1132090DFF8B023DFF89433DFF818434FF48036C9
S11320A0082D1CBF092D0B2D03D00C2D0FD0102D86
S11320B01CD1D9F800000E602168C00341F0010171
S11320C0216058BF1E60116821F004010CE0D9F8AA
S11320D000000E602168490849002160C00358BF10
S11320E01E60116841F004011160C2E040F2017108
S11320F0BBE0012D12D0082D08D0092D18BF0A2DE0
S113210002D00B2D04D005E0012607E0022605E0ED
S1132110032603E040F2217100F00EFC386C00F05D
S1132120AAF83E64A5E0012D12D0082D08D0092D8F
S113213018BF0A2D02D00B2D04D005E0012607E0BC
S1132140022605E0032603E040F2437100F0F4FBAD
S1132150386E00F090F83E668BE06D1E062D11D8A7
S1132160DFE805F01408060E040C0A0001260DE051
S113217002260BE0032609E0042607E0052605E015
S1132180062603E040F26C7100F0D6FB786AC008C2
S113219046EAC0067E626CE0012D16D0082D0AD0F6
S11321A0092D18BF0A2D04D00B2D06D00E2D06D0F4
S11321B007E0012609E0022607E0032605E00426DD
S11321C003E04FF4F26100F0B7FBD8F80000C00858
S11321D046EAC006C8F800604BE0012D10D0032D7C
S11321E004D0072D06D0082D02D005E0012607E013
S11321F0022605E0032603E04FF4FA6100F09CFB9D
S1132200386800F038F83E6033E0012D0CD00F2D13
S113221002D0102D02D003E0012605E0022603E0DF
S113222040F62B0100F088FBD8F8200000F023F8DA
S1132230C8F820601DE0083D032D09D8DFE805F04B
S113224004020206012607E0022605E0032603E055
S113225040F6B30100F070FBD8F8400000F00BF832
S1132260C8F8406005E040F66911BDE8F44300F0A9
S113227063BBBDE8F183800846EA8006704700002E
S1132280844000502DE9F843054600F0FBF90400B2
S113229018BF14F1010F03D140F6EC1100F06CF8F3
S11322A04FF4C020DFF804110860DFF8C8030268A7
S11322B0012A07D10121DFF8C0231160416911F01F
S11322C0030FFBD18020FFF76BFD052803D100F03D
S11322D098FA00F05BFADFF8B01424F040748D42F1
S11322E006D0DFF898138D4208BF44F0807401E0F3
S11322F044F0007400F018FD8146A94503D2012181
S1132300284600F00EFCDFF87863706810F0060FC2
S1132310F9D137683460306804F4F814DFF8608069
S113232000F4F810844206D040F6342100F03BF863
S113233037604D4602E0284600F022FD8020FFF77A
S11323402FFD05280ED100F019FB0446A54203D247
S113235040F6452100F027F8FFF7C2FB00F014F81F
S113236000F01AFAA94505D301210020BDE8F44381
S113237000F0D7BBBDE8F183014800F0DDBA0000EE
S113238074030000708000500146C1F10201204630
S11323905AE0DFF80815086800F00700401E03281B
S11323A0704740F2DC41404600F0C6BA64900050E9
S11323B06480005020C0075010B54FF40011DFF8BE
S11323C0E4241160DFF8E044022323606168CA0357
S11323D0FCD4012820D100F0E5FCDFF8D0148842B9
S11323E004D1DFF8CC1445F67A1010E0DFF8C414F9
S11323F0884204D1DFF8C01445F61A0007E000EB68
S11324008001DFF8B824400A490AB2FBF0F0A16267
S1132410E0620120206201E00021216200202060AE
S113242010BD0000391C002028D0005064A00050CA
S1132430008200500081005028C0005028E0005065
S11324408081005010E000E00029CCBF0121002170
S1132450E6E00000F8B50D460446DFF864140868A9
S1132460002600F00700062825D8DFE800F0220443
S11324700E181D09130000F057FC064605271EE040
S113248000F052FC0646062719E000F08BFC0646D5
S1132490032714E000F086FC064604270FE000F052
S11324A087FC064602270AE000F086FC064607275A
S11324B005E0012703E040F6E77100F089F838E011
S11324C0DFF80024136803F00303012B02D0022B6E
S11324D001D001E032E053E008B10022026009B10A
S11324E00020086041F21101DFF8B40300F024BABF
S11324F0F8B50D460446DFF8D01300F063F814D89D
S1132500DFE800F01102070C00F04CFC064603273C
S11325100FE000F055FC064608270AE000F04CFCEA
S11325200646072705E0012703E041F2642100F095
S11325304FF804B1266005B12F60F1BDF8B50D4622
S11325400446DFF8881300F03DF814D8DFE800F003
S11325501102070C00F0E8FB064605270FE000F027
S113256021FC064603270AE000F022FC0646022767
S113257005E0012703E041F2AB2100F029F8D8E798
S1132580F8B50D460446DFF8481300F01BF814D8DC
S1132590DFE800F01102070C00F018FC06460927DA
S11325A00FE000F00DFC064608270AE000F011FCDD
S11325B006460B2705E0012703E041F2DD2100F088
S11325C007F8B6E70868002600F003000328704700
S11325D0DFF8CC02002700F0AFB90000F8B50D46D3
S11325E00446DFF8F012FFF7EDFF14D8DFE800F03F
S11325F01102070C00F0EAFB064609270FE000F081
S1132600DFFB064608270AE000F0E3FB06460B273B
S113261005E0012703E041F20F31FFF7D9FF88E716
S1132620F8B50C4605464FF40031DFF8AC221160D2
S11326300020FFF760FADFF8A41241F671334A690B
S11326404B630B68120C454302F0010223F4401360
S11326504FF440104FF480168F4F002C00D003DD50
S1132660BD422CBF3046002003430B600AB100205A
S11326704863F1BD04C0015004E0015080841E0091
S11326800800015010B500249549002854D03E4A52
S113269090421FBF934A9042934A90422AD0934A51
S11326A090423FD0924A904226D0924A90423BD0E8
S11326B0914A904222D0914A904221D0904A90422D
S11326C020D0904A904231D08F4A90421CD08F4AF9
S11326D090421BD08E4A90421AD08E4A904219D012
S11326E08D4A904218D08D4A904217D08C4A90421D
S11326F016D01DE00C681FE0CC681DE08C691BE05F
S1132700CC6919E00C6A17E08C6A15E0CC6A13E016
S11327100C6B11E04C6B0FE08C6B0DE0CC6B0BE0A1
S11327200C6C09E04C6807E00C6905E04C6A03E0B6
S113273041F2E331FFF720FE204610BD7CB504468C
S11327400D460020009077490A6802F00302012A2E
S113275002D0022A06D00AE000216846FFF7EEFE06
S11327600F260AE000F024FB0090022605E041F267
S11327700E414B48002600F0DFF80CB100982060B1
S113278005B12E6073BD000040420F00434801684C
S113279041F48061016070474FF4C07010B5FFF7D9
S11327A051FA02246049884238BF012421464FF47B
S11327B02070BDE81040FFF7D9B90000F8B5044611
S11327C00D465A480168002601F00301012904D08E
S11327D012D303290BD005D30EE000F0F7FA064616
S11327E009270DE000F0ECFA0646082708E000F09F
S11327F0F0FA06460B2703E041F25741FFF7E8FEE3
S113280097E680B500F0E8FA0021BDE8044007E748
S1132810F8B50D46044646490868002600F007004E
S113282004281AD8DFE800F01703080D120000F09E
S1132830CDFA0646092714E000F0C2FA0646082736
S11328400FE000F0C6FA06460B270AE000F0B6F8DF
S1132850860A0E2705E0012703E041F2CC41FFF789
S1132860B7FE66E63EB504460D46002001903149A8
S11328700A68500705D500F0A1F80C2101900091D9
S113288003E0694601A8FFF77BFE0CB101982060C4
S11328900DB10098286037BD015A62027080005063
S11328A074030000649000500440025000F0490298
S11328B0D8B80500C0175302BBCF0500646666662E
S11328C0248100502082005000810050208100505B
S11328D0408100506081005068900050080003500F
S11328E05880E00F80841E0000093D00404B4C00DE
S11328F0C0CF6A0080969800405DC6000024F400B2
S1132900C0EA2101002D310180BA8C010048E801A0
S113291080D54302006CDC02007E56030090D00395
S113292000B4C4048081005081F0FA024082005057
S11329300082005010E000E0FEE7020010B54FF402
S113294080310B4A11600B4C21688B0903F03F0363
S113295001F03F0283704270090B017010BD0648FC
S1132960006801210A3000F01F0001FA00F07047EE
S11329706490005014C007500880E00F00F01EB8A7
S11329800A49086800F00700401E03280CD8DFE855
S113299000F00902040700F0C7B905480068704751
S11329A00448704704487047FEE700BF7080005039
S11329B00C11002080D54302002D310180B5FFF7B2
S11329C0DFFF05490968C1F30331491CB0FBF1F08D
S11329D00249086002BD00BF708000501811002039
S11329E0DFF800F0491C0020BFF34F8FBFF36F8F57
S11329F030BF704770B5DFF8D422DFF8D412DFF8A7
S1132A00D44250B94FF40033DFF8CC522B60246821
S1132A10012C08BF0868106070BD106800281CBF36
S1132A202268012AF8D008608020FFF7B9F9DFF89E
S1132A30AC5205281DD14FF4C070FFF75CF8064670
S1132A40012E04D102214FF4C070FFF78FF8072044
S1132A50DFF88C12086001222A60E068C107FCD507
S1132A60012ED9D101214FF4C070BDE87040FFF7A9
S1132A707DB80120286070BD0278DFF8683201213A
S1132A801A7000204DE0DFF860120A68407822F4E2
S1132A90407242EA00220A60704738B504001CBF45
S1132AA00020FFF7A7FF00F019F800F099F900F0F3
S1132AB0BBF9DFF8380201684A0100F016F800F0AB
S1132AC0B4F90546FFF78CFF284600F0B2F900F090
S1132AD0B5F900F03DFA04B10EE011E0DFF81002A0
S1132AE0016841F004010160704704D5DFF8040275
S1132AF0DFF80412086070470120BDE8324079E72E
S1132B00BDE8314000F063BA002073E7012071E7AB
S1132B10DFF8E8110A68007922F0300202430A6003
S1132B20704710B50C4608B9FFF72AFF6D4A1178B3
S1132B3029B1744A904202D22146012001E0214683
S1132B400220BDE810402DE9F04104466E4D286A8C
S1132B50C0F300100028FAD1286AC0F38110A04203
S1132B603AD0FFF70DFF0646654F012C0BD165499E
S1132B708E4204D340F29D713846FFF7DDFE0121F9
S1132B803046FFF761FC00F050F980464FF00070CA
S1132B905E490860204600F01CFA4FF48062601E13
S1132BA08240EA6007E0286A810604D540F2B571E4
S1132BB03846FFF7C1FE2868810102D4286A8106DD
S1132BC0F1D5404600F035F9022C05D130460021FC
S1132BD0BDE8F041FFF738BCBDE8F0814FF000429A
S1132BE0F8B53D4B1A604A4A01251560494BDD6B27
S1132BF04AF6CD369E630024002105F00105464EB9
S1132C00464F90B91868C0070BD50122726000E0E6
S1132C10491C586AC20701D4B942F9D3B94228BF42
S1132C2007240120306016E0491C586A000701D5CA
S1132C30B942F9D3B9420DD220203062012151604A
S1132C40002000E0401CD9698A0601D4B842F9D3B7
S1132C50B84200D307240DB13148986300F0BAF9A3
S1132C602046F2BD38B54FF000411B4A11604AF6C8
S1132C70CD320123264C2360264CE56BA2634178B8
S1132C80284A05F00105490041F00101116022685C
S1132C90C17801B10421837822F0740242EA03125C
S1132CA00A4322600179827942EA0122A2604179D1
S1132CB0C27942EA0122E2600078FFF78FFF0DB18A
S1132CC01748A06300F086F9012032BD6C13002080
S1132CD00081005004C001506490005004D00150A1
S1132CE010E001503A1C00207440005064800050F1
S1132CF010ED00E00000FF0F20E403506C40005092
S1132D00F0030000015A6202644000506460005005
S1132D1004500950084009500460095040420F0013
S1132D203254FFFF3C40005001480068704700BF28
S1132D301411002038B51448144908601448036875
S1132D404FF40041134A43F4700303601160124CC2
S1132D504FF0FF3363654FF6DF71A1650222826491
S1132D60BFF34F8FBFF36F8F032000F0A4F94FF42C
S1132D7040352560032000F049F90848056031BD5D
S1132D8007490860704700000000000008ED00E0FB
S1132D9088ED00E0689000500CA0004410800044CE
S1132DA01411002001480068704700BF0C11002076
S1132DB000487047002D31010048704780D5430218
S1132DC001480068704700BF101100204FF4004014
S1132DD070474FF47A7070470048704700B4C404D9
S1132DE080B50D49087898B10C4800220A70026831
S1132DF0012161F3020202600948016841F0030104
S1132E0001604268032161F30202426000F09EF90E
S1132E1001200449086001BD3C1C00207080005062
S1132E202081005074E000507047EFF3108072B6B8
S1132E30704710B962B6BFF36F8F704770470000D8
S1132E407CB500218DF800106846FFF715FE0020C0
S1132E5000F05AF8524D2868524C4FF4002100F00B
S1132E6003002061504801604FF40032026000F01A
S1132E706FF94FF4C87000F0D6F9E36C2065024690
S1132E800A20002100FB0233C8B2491C04EB80066F
S1132E90C8B272620A28F7DBA078E36408B3296831
S1132EA001F00301012904D028D3032923D01FD31F
S1132EB024E0FFF777FF020013D03C4803683C4D41
S1132EC0501EC3F30B035B1C03EB83030021E5FBE0
S1132ED00301002300F0BAF900F0A5F9E1694018F4
S1132EE0E0611F2000F09FF9E1694018E06173BDC3
S1132EF0FFF766FFDFE7FFF75FFFDCE7F2212D480E
S1132F00FFF71AFDEDE7000038B5264D2978044691
S1132F1088421CD02DA210882100ADF8000014BFF7
S1132F20022000208DF801006846FFF7ACFD200068
S1132F3006D0402000F077F90146E869401A04E021
S1132F40402000F070F9E9694018E8612C7031BD47
S1132F5010B50120184A1060124C6178F9B10220B2
S1132F6000F0F8F9D8B100F007FAC0B113480168CD
S1132F70CA0302D541688A0711D40068C1070ED478
S1132F800120E07000F00AFA20620D480268032173
S1132F9061F302020260BDE8104000F0D7B810BD32
S1132FA00081005050100020649000500CC001506B
S1132FB040420F00540E000074D0005058C000501E
S1132FC0708000504FF4C87000F02DB9000200F07A
S1132FD0F1B970477047000010B500F0EDF9544A9C
S1132FE0117871B90123137000F0ECF96FF0040447
S1132FF0052160B200F06AF8641C60B24028F7DB77
S113300010BDBDE8104000F0DDB9000010B5044665
S1133010412C03D340F2351100F01FF8002C07D4E3
S1133020012104F01F008140424A640942F824103F
S113303010BD10B50446402C03D34FF4A07100F02A
S11330400CF83C49601151F8200004F01F04E040E2
S113305000F0010080F0010010BD3748FFF76CBCA0
S113306010B5044604F10C004C2803D34FF4A971A5
S1133070FFF7F3FFEFF31080C00718D42046FFF7E3
S1133080D8FFA0B9204600F044F80446EFF31180BD
S113309010B1B4EB101F0AD228480068C0F308002E
S11330A0002806D0103800F034F8844201D30120FF
S11330B010BD002010BD002807D4012200F01F011C
S11330C08A401F4B400943F82020704770B50446DE
S11330D004F110020D46184E512A04D340F2E511B2
S11330E03046FFF729FC102D04D34FF4F37130461A
S11330F0FFF722FC60B2290164B2002C02D4114A09
S1133100115470BD104B00F00F00181800F8041C87
S113311070BD41B240B2002802D40A48405C05E0C8
S1133120094801F00F01411811F8040C0009704717
S11331303B1C002000E100E06C0C000004ED00E00A
S113314080E200E000E400E018ED00E000F03FB9A8
S113315030B518480268184902F007024A6100684D
S1133160164A00F4744088611068154A400800F05B
S113317001008870486903281EBF106A00F003002C
S113318002281EBF506A00F00700022801D1012363
S113319000E000238D7883F00104254207D0180055
S11331A004D1106800F00300012800D101234B7002
S11331B030BD00BF708000505010002018C0015076
S11331C00081005038B5FFF730FE04461A4800F07D
S11331D000F91A4D287878B900F0FEF800F002F9E9
S11331E00020A86100F000F928611548016841F049
S11331F00101016000F0FEF8FFF722FEFFF7E2FE96
S11332006861012028702046FFF713FE002032BDBC
S113321010B5FFF70AFE044600F0F6F82046BDE8B4
S11332201040FFF706BE054B1A690649064B02FB20
S11332300010B0FBF3F07047940800005C1B002002
S1133240744000503F420F0040420F00D3BBD9B13D
S1133250B2F5803F5BD2022A1ED98C46B1FBF2F153
S113326002FB11C31B0443EA1043B3FBF2FC02FB51
S11332701C3380B240EA0343B3FBF2F002FB10328A
S113328040EA0C4000237047022A05D98446B0FB6B
S1133290F2F002FB10C270474AB105D100F00102FE
S11332A049085FEA3000704700220023704700F0AD
S11332B0CDB80B000200002100207047F7D3002294
S11332C000237047904271EB030CF2D370B5B1FA4E
S11332D081F4B3FA83F52C1BA340C4F1200532FA20
S11332E005F63343A2405FF00046E64002E05B0887
S11332F05FEA3202841A71EB030524BF2046294693
S11333007641F4D302000B003000002170BD70B58B
S1133310B1FA81F4B2FA82F5C4F120046419B4F16B
S11333202006DAD3B2405FF00044F440002502E006
S113333052085FEA3303C61A71EB020E24BF30460B
S1133340714664416D41F3D302000B002000290053
S113335070BD000001460020064A1268012905D00C
S1133360022905D1900900F00100704702F0010024
S1133370704700BF1400005838B5074D6C78200022
S113338007D000F00BF8EA689169401A032828BFB7
S11333900024204632BD00BF9C1B002038B500F03D
S11333A00BF8044600F054F80546204600F00AF8ED
S11333B0284632BDFFF702BBEFF31180302181F3C1
S11333C01188704780F31188BFF36F8F7047FFF740
S11333D0F5BA012100F044B8014800F057B80000E4
S11333E0981B00207047000001488068704700BFA8
S11333F09C1B0020E0B5002000908DF80400684676
S1133400FFF786FB07BD000010B50F4CE0790128DB
S113341018D1607A18B100F03DF8002060720020E5
S113342000F078F850B100F077F80020E07160788F
S1133430012100F09BF80120607010BD0121A171F1
S11334406078607110BD00BF5C1B002070470000F5
S1133450024881680A07FCD40068704720000058BD
S113346080B50A4670B1006800F03F01C0F38213D2
S113347005481BB900F0B6F8002002BD012B08BFB7
S1133480001DF7D00E2002BD6480005000210160B1
S11334907047000038B51C4C6078A0B3E078A0B940
S11334A01A480168CA0302D541688A072BD4006808
S11334B0C10728D4FFF772FF206215480268032170
S11334C061F302020260FFF741FEFFF767FF216A22
S11334D02279401AE36C04EB8205521C696AD2B269
S11334E068625B1A0A2192FBF1F1C31803F1090027
S11334F00A25B0FBF5F50A2000FB11222565E364DB
S113350022710022E27031BD5010002058C00050DA
S1133510708000500120704710B5FFF7F7FA0F498B
S11335200F4A0B685069DB0840EAC3030B600D4B7C
S113353019689068890840EA810119605C68D1685B
S1133540E40841EAC4045C60507810B101210648E3
S11335500160BDE81040FFF7F9BD00BF7080005066
S1133560501000202081005028E00050F8B5054696
S11335700E460027194C300003D0022E05D002D38A
S113358005E0012707E0042705E0102703E0B12147
S11335902046FFF7D1F9280003D0022D07D003D32A
S11335A008E047F0020709E047F0080706E047F0A3
S11335B0200703E0C2212046FFF7BEF9084804684B
S11335C008E062681068384203D0526831462846E1
S11335D090472468002CF4D1F1BD00BFB00D000069
S11335E0981B002070B50E4605461446202E04D3C1
S11335F09121DFF82000FFF79FF9002C14BF05F597
S1133600805505F50055012000FA06F62E6070BDC0
S1133610002070477407000038B5164D2868164C12
S113362008232246222101F035FC2D2808D1002050
S11336304FF4FA7101222060A180A271E07132BDC1
S113364000B10120C0B232BD10B50A4C2068082375
S1133650094A222101F0E0FB00B10120C0B210BDF3
S113366080B5FFF7D9FF04480168491C0160BDE833
S11336700140E9E700100020E41100204169426C98
S1133680091FCB1DA2F11400B3FBF0F301EBC3013E
S1133690C91DB1FBF0F0401CB2F5805F02D10128D6
S11336A088BF0120401C704738B504460D46FFF71B
S11336B0E5FF616CA1F114025043B1F5805F05D1BF
S11336C0616940F6E973994228BFCC302818ED1D92
S11336D0B5FBF2F1491C00EBC10032BD10B5044644
S11336E06169FFF7E1FF6169626C0818C91D143A4A
S11336F0B1FBF2F1491C00EBC100A169081810BD2F
S113370080B5FFF7EBFF001D02BD10B5436CCA1D69
S1133710006B143BB2FBF3F4641C01EBC40188425C
S113372006E010B50446FFF7BFFFFFE7216B8142B7
S11337308041C043C00F10BD401870470268406C00
S11337404143501870470268406C891AB1FBF0F08D
S11337507047406C401EC04301400240914201D179
S11337600120704700207047F0B585B005460C462F
S1133770002600E0761CE869401E86420ED2002C2A
S113378014BF641E0446214600F038FF00F007F819
S113379000F0E8FD01F09BFD0028EBD05FE0EF6B4B
S11337A0052269467B691847426C501E0140501A35
S11337B07047406C401E08407047F0B585B0044621
S11337C0FFF7C1FF0546002600E0761CE069411EB4
S11337D08E4211D26D1CB5FBF0F200FB125520464F
S11337E02946FFF7ABFFE76BFFF7DAFF00F0BAFDFE
S11337F001F06DFD0028E8D000F004F801F077FD39
S113380005B0F0BD2946204698E7F0B585B00546D9
S1133810EE6AA86A002486421ED16C68E9696FF0DA
S1133820130000FB01441AE031462846FFF78BFFE2
S1133830014600F0E3FEFFF7B2FF00F093FD01281C
S113384006D031462846FFF7B4FF696C0C19241AD8
S1133850314600F0E3FF0646A86A8642E4D12046DA
S113386005B0F0BDF8B50D4604462E46002701E02C
S11338703F1D361D3246294600F03FF860B1D4F8AA
S11338803CC001226946DCF8143030469847009861
S113389010F1010FECD000273846F2BDC0F313013C
S11338A0814201D1012070470020704790F8420006
S11338B0012801D1642070473220704790F84200FB
S11338C0012801D1022070470120704770B50446D9
S11338D00D465619980806EB800613F0030F18BF1F
S11338E0361D2A4600F008F820B929462046FFF77D
S11338F064FF0646304670BD3146204629E72DE96F
S1133900FF4F0FF26441086891B0129A0A9011981F
S11339101169FFF7FAFE08B91C2022E2119900246C
S11339200026C86A0C90A2460146DFF8680C01F034
S1133930A3FD12999DF850200C9D0869A046A1464C
S113394003901298022AC1688DF809400B910BD19B
S11339500398CC2846D19DF84C00002845D01299F4
S1133960119800F0B0FF069011982946FFF71CFF4C
S113397007460398792802D21298C17D01B101212A
S11339809DF84C0058B1119B12980122D3F83CC009
S1133990406800F035FD684601F04FFD01460029FE
S11339A00CBF0420082003990990792922D2039995
S11339B08DF80840091D8F4203D20398C0B94FF017
S11339C00408042005901298DFF8C87B0168396068
S11339D0039A3A619DF808109DF8500001F066FDC5
S11339E038753DE170220092BAE109680691BBE79F
S11339F0082FE4D9012108228DF808100592E2E786
S1133A00059A9142C0F03A810598039A4FF0000854
S1133A10091A914288BF11460491059907952846D1
S1133A20FFF78AFE05460498039988420BD00122C9
S1133A30FA7503983969884203BF924607987860FB
S1133A404FF0020A06E05FEA0A0018BF4FF0030ACB
S1133A50F87D98B1397E079A07EBC100C261397EBF
S1133A60049A07F1200020F83120387E07EBC001CA
S1133A7081F822A0387E401C387601E007987860EF
S1133A80049904988944CDF83C90002800F0C08043
S1133A909DF85000022844D19DF80900002875D1F2
S1133AA0B9F1040F72D3119B012206A9DC6B2846DD
S1133AB0A369984704001BD101208DF809009DF8E3
S1133AC00800CDF804A0049B009012983A7D016888
S1133AD00DA801F032FC119B059A0798DC6B920843
S1133AE00DA9A3699847040001D007980A9093E0B0
S1133AF000944CB13D2C13D1119EDDF848A0DDF8A3
S1133B002880DDF83090DFE0B8681199C862129916
S1133B1011989DF850307A680968083001F052FD18
S1133B201EE19DF84C0090BB01918908DDF82C90B2
S1133B30AB46009113D0119B0A464946DC6B5846AC
S1133B40A369984704460098019909EB8009024645
S1133B506FF0030000FB02110BEB820B01918CB997
S1133B60019878B14FF0FF31019A009149466846B7
S1133B70FDF740FC119B01226946DC6B5846A369A2
S1133B80984704460B98049941180B9140E08946E4
S1133B9002E0A9F104092D1D129A1298D17D406802
S1133BA021B909997118FFF7C7FD1AE0129C314633
S1133BB00022DDF824B004F1200C02E0521CC91AE2
S1133BC0D2B2237E9A4209DA3CF832309942F5D2D5
S1133BD004EBC200C0695944FFF7AEFD1294CDF85E
S1133BE024B0119B01226946DC6B361D636998473A
S1133BF0119B0098019001220890DC6B08A92846CB
S1133C00A36998470446B9F1040F01D9002CC0D028
S1133C10002C3FF454AF0A95049B059A0799119818
S1133C20FFF754FEB8601198049A016B0598D21CF2
S1133C309208091A1198A1EB8201002C01637FF408
S1133C4057AF03990498DDF83C90091A0391119831
S1133C502946FFF7B2FD0546039800283FF448AF14
S1133C6011982946FFF7A0FD0146039800283FF468
S1133C70C7AE059840448842FFF4C6AE11984FF091
S1133C800008026B511A0163E1E70025394630460A
S1133C90FFF754FD0146F06B01F099FA304600F04D
S1133CA046FB304600F061FB304600F0ADFB304689
S1133CB0FFF7ABFD3063002D42D0DAF81010304628
S1133CC0FFF723FD00283ED049463046FFF73BFD71
S1133CD0054629463046FFF731FD01F008FBF16A3D
S1133CE083463046FFF769FDB16A88422BD0F06203
S1133CF0DFF8A00881683046A9EB0B04FFF754FDF8
S1133D00316B081A306341463046FFF71CFD074605
S1133D10AF42BAD1002CB8D0F56BF06AA208AB69F7
S1133D20594698470546F06A2146FFF705FDF062BB
S1133D30306B041B346306F1080001F0FEFBA5E7B9
S1133D40304600F085FECDF848A0129A1196CDF8C1
S1133D50288011691198FFF7D8FC00287FF4DEADA4
S1133D60009815B0BDE8F08F000000002DE9F8437D
S1133D700546686998460E469146404538BF62201C
S1133D8044D300248DF8004000E0641C696928468F
S1133D90FFF7C7FC38B9286AB4EB400F03D200F030
S1133DA039F80028F1D09DF80000012801D100F075
S1133DB031F8089CE0B2032804D041462846FFF7B6
S1133DC0B0FC28B3DFF8507A4FF0FF31384601F0E9
S1133DD053FB3E60C7F81080C7F80C90E3B2002292
S1133DE039462846FFF78BFD044605F15006306935
S1133DF058B1284601F03CF93078002804BF307AE5
S1133E00002802D03169304688472046BDE8F28355
S1133E101C20FBE700226946284600F063BC2DE91C
S1133E20F94F85B0109888461099D0F804A00293F1
S1133E3008691646984242D2632096E001A801F030
S1133E40FDFA0546042D4DD101A801F0FFFA044600
S1133E5029465046FFF770FC83469DF8440000282D
S1133E6054D1B44247D20027361B3D46AC0810D08B
S1133E70059B22464146D3F83CC058460BEB840BC5
S1133E80DCF8143008EB840898476FF0030000FB5B
S1133E90045565B1059B01226946DC6B584663698C
S1133EA098472A4669464046FDF7A4FAA844029872
S1133EB05146C71B02970598FFF77FFC824602987C
S1133EC0002852D0059B012201A9DC6B504663698E
S1133ED0984701A801F0ADFA10990A689042ADD054
S1133EE06F2042E0059B022203A9DC6B5046636904
S1133EF0984703A8A9E70699B344A61B8E4288BF36
S1133F000E463746C81B00260690AEE72746B9463C
S1133F10A408059D14E0D5F83CC001226946DCF8EC
S1133F2014305846984704226946404601F022FC62
S1133F30D0B9641EA9F104090BF1040B08F10408BB
S1133F40002CE8D105955846B9F1000FAFD0ED6BC0
S1133F50012269466B6998474A466946404601F022
S1133F6009FC08B9C844A2E73620DDE12DE9F04F89
S1133F709A46814609F12C0385B01D698846174687
S1133F8078686B69012202A9984709F12C031D691D
S1133F90012201A96B6940460024984702A84FF00A
S1133FA0FF3501F033FA20B10020B8757875BD6093
S1133FB005E101A801F03DFA0121B9753A7E07F146
S1133FC0200107EBC203C3F81C803A7E21F832407B
S1133FD07968884506D1386001A801F049FA387536
S1133FE0BD601EE03968884218BFBC7501A801F0A5
S1133FF03FFA397D884218BFBC7501A801F01DFA4B
S1134000054602A801F019FA854218BFBC7501A83B
S113401001F014FA054602A801F010FA854218BF0F
S1134020BC75387D04281CBF0528062802D1002051
S1134030B875C4E001A801F000FA48B109F12C03F5
S11340401D69022203A96B694046984703A800E052
S113405001A801F0FBF9397D022902D003290CD013
S113406006E0397E07F12000CC2220F8312004E05C
S11340703A7E07F1200121F83200387D01F022FA5E
S11340800E99087001A801F0C9F93A7E07F12201DE
S113409001F83200397E07F1200000EBC1000688E8
S11340A0857801A801F0C9F9834601A801F0C6F991
S11340B00090BBF1000F0DD009F12C03D3F810C010
S11340C0022203A9DCF814304046984703A801F003
S11340D087F902E001A801F069F97875787D00B9E3
S11340E0BC75B87D002848D096B100994046FFF7CA
S11340F023FB8346424659464846FFF72AFB00B94C
S1134100B87559464846FFF74FFBB04238BFBC75F7
S1134110B87D90B315B9F87DB8B91BE00121F975E4
S1134120787E80B9012D08BF797613D009F12C016E
S1134130087A002802BF096811F1010F032D04D188
S11341400120B87606E0012D01D1012402E0032DFF
S113415008BFB976B87D80B11CB1012D18BF002D00
S113416006D0009A334641464846FFF7AFFBB86095
S1134170B87D10B1386936183E61DFF8D41A387E3C
S11341800A78904239BF401C38760020B875BAF1DD
S1134190000F1CBFB87D002810D0F87D70B16CB939
S11341A0032D1CBFB96811F1010F07D00E9801232C
S11341B03A4600904846FFF7D9FEB875B87D1BE132
S11341C038B50C46002525760093616813462246CF
S11341D0FFF7CCFE28B1E07D08B1A07E00B101203C
S11341E0A075A07D32BD2DE9F04F87B00546884605
S11341F0914600271E46ADF800704FF0FF31484647
S113420001F03AF94046FFF749FBC0B10DF1020253
S1134210414605F1080001F0B5F910F1010F0ED087
S11342200146484601F028F96B46012249462846D2
S1134230FFF7C6FF18B19DF80000012730706FF03A
S11342400104A04504D0002F6BD1287C00286AD03B
S1134250E96A11F1010F03D1696A00F0CBF902E0B8
S11342602846FFF770FA8246A04514BF01240024B3
S1134270696A8A4504BF01208DF80100514600F0A7
S1134280BDF9D5F83CC0834600F0E7FC02A9984785
S113429002A800F0F4FF01F01AF8584601F027F8DC
S11342A0834601901EE05946BA4801F0E5F86B4692
S11342B02246B8492846FFF783FF80B1002C1EBF71
S11342C0B448016888450AD19DF80000DFF8441B12
S11342D0012730700A68AF494846FDF78BF8AD48AE
S11342E0D0F808B01BF1010F06D0019A59462846B0
S11342F0FFF72FFA0028D6D1514600F07BF9824609
S11343009DF801003843B3D06FB14046FFF7C6FAB9
S113431038B13378D9F80420414605F1080001F09A
S113432051F9002000E02D2007B0BDE8F08F78B5EA
S1134330044685B00020206200250DE0FFF762FAF4
S1134340E66B00F053F900F00DF800F0C0FF10B177
S1134350206A401C20626D1CE0698542EED3206A0D
S113436006B070BD684600F08ABF2DE9F04F85B0F5
S113437004464FF0FF3500274FF6FF782E46C4F869
S113438024802762B94620E04946FFF73CFAD4F876
S11343903CC000F034F8FFF7E5FF834600F023F952
S11343A08246584600F093FF68B1206A401C2062A0
S11343B0AA4538BFC4F82490B24598BF5646BA45BA
S11343C028BF5746554609F10109E0698145DBD309
S11343D0BE1B012E10D9C4F82480002509E0FFF784
S11343E011FAE66B0522694673696D1C984700F063
S11343F0FAF8E0698542F2D305B0BDE8F08F0522F2
S11344006946DCF81430184710B50446616AFFF7B2
S113441095F900F06CFFA06210BD2DE9F843044645
S11344200D4690469946A66ADFF8E07AE06A86422D
S113443018BF16F1010F21D03146384601F01CF89F
S11344406B46012239462046FFF7BAFE30B19DF88B
S113445000204B4639462046C04778B1BE6816F165
S1134460010F04D179682046FFF7A7F90646012D0C
S1134470DCD17A68FFF740FA0028D7D1BDE8F18390
S11344802DE9FC41089C1546032A2068064618D0ED
S1134490DFF884736B463A46FFF7A5FE606080B987
S11344A020687968826AFFF754F950B1207A0128AC
S11344B00DD13A69E06871698218914207D20021EE
S11344C02174207A01280CBF207C012027E0206879
S11344D0816AFFF738F980462068C16AFFF733F92B
S11344E080450DD1706C316BF26A091A401E104080
S11344F0401830632068816AFFF75FF92168C86259
S1134500E16838692B46012241180831E1602068CE
S11345103946FFF7F4F960600028D2D00020BDE8E6
S1134520F6812DE9FC41174605460E461C46032F2D
S11345301BD03168DFF8E0826B464246FFF753FE3A
S1134540606090B900F0EBFC0FD0D8F804007168FB
S113455088420AD1E2683069217A801801290AD197
S11345606969814207D200202074207A01280CBF97
S1134570207C01200BE00830E0603B4601223146FC
S11345802846FFF7BCF960600028EED00020BDE8A3
S1134590F6810000141A002078B585B005460C4653
S11345A0FFF7CCF8EE6B00F021F8FFF7DBFE00F02C
S11345B08EFE10B100F017F813E0214600F01AF84F
S11345C00646314600F01AF8ED6B052269466B6920
S11345D0984700F008F810F1010F02D0B44238BF38
S11345E0401C06B070BD684600F021BE0522694635
S11345F0736918472846FFF7B7B8696A2846FFF772
S11346009DB838B504461546FFF798F80146E06BA7
S113461004F140032A4600F06CFE05462046FFF7ED
S113462086FE284632BD38B50D4604461946032A8F
S113463008D10498826AFFF78CF818B129462046FD
S113464000F08AFF012032BD7CB50D46296804467E
S113465016466A4604F1080000F094FF032E04BFD6
S11346606968884204D1296804F1080000F074FFE5
S1134670012076BD2DE9F84185B005466F6A4FF6F5
S1134680FF708846874206BF0124002700240026C5
S113469024E039462846FFF77FFF024612F1010F56
S11346A008BF4246521C0EE03946FFF7A7FFD5F873
S11346B03CC0FFF7A4FEFFF755FE022807D0002CEC
S11346C0E7D008F1010239462846FFF79AFFE86966
S11346D07F1C761CB7FBF0F100FB1177E86986427A
S11346E0E2D3A1E1F0B58FB005460E46286BA96B65
S11346F01446884238BFA863FFF77FFF00F0AAFA88
S113470005A9984705A800F0BAFD3070012843D0E8
S1134710FFF773FFD5F83CC005220AA9DCF8143072
S113472098470AA800F0ABFD012808BF002460D018
S113473000210122009501918DF8084003918DF824
S11347401020A96AE86A814208D100F067F8E8629B
S1134750296B686C091A1431296310E0287C38B974
S11347606A46DFF8741805F1080000F0DFFF06E080
S11347706B46DFF8682801212846FFF74EFE0198B2
S113478040B99DF8100028B1FFF737FF0146E86BE8
S113479000F02CFD019C2CE0287C38B92A46DFF877
S11347A0AC1805F1080000F0C1FF06E00023DFF8B3
S11347B0A02801212846FFF730FE696A2846FFF742
S11347C0EBFE696A421C2846FFF71BFF040004D174
S11347D0296B686C411814392963A96A00F01EF822
S11347E0A86201462846FEF7AEFF68622846FFF736
S11347F00CF83846EF6B052205A97B69984705A894
S113480000F03DFD3070286BA96B884238BFA86367
S113481020460FB0F0BD0000E81900202846FEF73E
S1134820CCBF38B590F842000C46114601280CBFA5
S11348300220042000251D704143E07D091D20B99C
S113484000F01AF80831606811E000F015F8002350
S1134850002002E05B1C491BDBB2227E93420ADA91
S113486004EBC302158CA942F4D20831D069BDE827
S11348703440FEF761BF32BD11F0030F03D0890845
S113488001208900187070473EB51C4605466B46EA
S1134890FFF7C7FF05F13C010B68897901290DD1A8
S11348A05B69012201A998479DF8000010B10198A5
S11348B0000C0190019880B2206037BD5B69012231
S11348C02146984737BD2DE9F841804685B0002040
S11348D0019008F13C0637680D466B68012201A976
S11348E003F108007B690027984734E010F1010FB9
S11348F030D0102202A900F09FF802999DF8000020
S11349000902B0EB116F25D1029880B201994018C9
S113491001901FE0FEF7CAFF401E874216D200F046
S113492086F802AB224600F084F810208DF80000CF
S1134930202202A900F080F80398010402BF000CB1
S11349409DF80010884201D1029801904046FEF77C
S1134950B5FFC7197F1C4046FEF7A8FF874262D205
S1134960B0790128404627D1FEF7A0FF801E874278
S113497005D26B4600F05CF80098010627D00020B1
S11349808DF8000002AB00F053F8B07901280298CA
S1134990ACD14FF6FF718842DCD0082202A900F0A6
S11349A04BF802999DF800000904B0EB116FD1D1C6
S11349B0029800F0FF00A9E7FEF778FF401E874247
S11349C0DDD26B4600F034F800980104D7D1B079F9
S11349D07C1C012840469DD1FEF768FF801E87425B
S11349E0B4D200F024F802AB224600F022F804AB63
S11349F0BA1C00F01EF808208DF80000102202A94D
S1134A0000F01AF8102204A900F016F80398010621
S1134A1002BF000A9DF80010884297D102980499B9
S1134A2000EB014091E7019806B0BDE8F08103ABCB
S1134A303A462946404627E7684600F0AABE80B5B4
S1134A4013464A680968083000F0BCFD012002BD25
S1134A5010B5044604F1080000F06FFD2046002361
S1134A60DFF85C260021BDE81040FFF7D6BC2DE935
S1134A70F0438BB0054600204FF6FF764FF0FF342D
S1134A802862286389466E62AC62EC6205F1080014
S1134A9000F053FD2846FFF74AFC40B34FF00008EE
S1134AA01EE04146FFF7AAFDEF6B052206A97B69CC
S1134AB0984706A800F0E3FB0746012802D000F05F
S1134AC00EFC58B141462846FFF766FD012F08BF8A
S1134AD0401C024641462846FFF793FD08F10108B1
S1134AE0E8698045DDD32846FFF721FC30B9494603
S1134AF02846FFF7BFFD2846FFF719FC002800F001
S1134B00A0802846FFF731FC696AB14200F0978023
S1134B10FFF774FDEE6B052201A97369984701A89C
S1134B2000F085FB2846FFF76FFCEC62DFF8944544
S1134B306B4622466FF001012846FFF754FB00281C
S1134B400CBFA468AC6AEC6221462846FEF78AFED4
S1134B50286318B9E96AFFF761FEE8622146FFF7A6
S1134B605DFE06460FE031462846FEF77BFE04460E
S1134B70286B314620182863FFF750FE064614B907
S1134B8000202863EE62A86A8642ECD1E96A2846CE
S1134B900026FEF7D8FD0146FFF730FD2846FEF754
S1134BA06DFD0446B1461AE04946FFF727FD00F0C3
S1134BB051F806A9984706A800F061FB00F087FBAE
S1134BC058B1384600F093FB01462846FEF74AFEEA
S1134BD0696C1430884208BF761C09F10109E86940
S1134BE08145E1D3A64225D2696A28460027FEF70B
S1134BF0BBFD80461AE0B74213D34146FFF7FEFCE3
S1134C00D5F83CC0814600F028F801A9984701A8CE
S1134C1000F00DFB0246E86B05F14003494600F045
S1134C2068FB4146FFF7E6FC80467F1CA742E2D3BF
S1134C30642008E028460024FFF70AFF02E0672406
S1134C4000E05E2420460BB0BDE8F08300000000C5
S1134C503A290000D5F83CC007460522DCF8143098
S1134C60704738B504460D4600F0B2FDE26B2846A5
S1134C70D168BDE83440084780B50146CA6B0020BE
S1134C80D1688847BDE8014000F0AABD2DE9F8438A
S1134C900546DFF83464D6F8008000200C46306006
S1134CA0002D49D005F134073878E8B12168286827
S1134CB0814202BF61686868814213D1A168A86813
S1134CC0814202BFE168E86881420BD121696869C9
S1134CD0814202BFA169B868814203D161690020A1
S1134CE0A96194E05D2092E0D7F8049068212846F9
S1134CF000F07CFDC7F80490206828606168696052
S1134D0020696861616905F10800A961E268A16828
S1134D1000F011FCA069B860A26905F14000916837
S1134D20884728B9386918B16968B1FBF0F000E028
S1134D300020E861F87B08B9212068E00020F862CF
S1134D40386900281CBFE969002923D02968B1FB10
S1134D50F0F200FB1211002901BF6968B1FBF0F207
S1134D6000FB1210002818BF592050D12846FEF726
S1134D70C7FC6968814238BF5A2048D36869B0F5D6
S1134D80805F01D8CC2801D25F2040E03869B0F5BB
S1134D90805F01D25B203AE003212846FFF761FFE0
S1134DA0BB68696828681A689047BA680446022094
S1134DB0D16888475CB941462846FFF758FE044647
S1134DC0642C04D141462846FFF751FE0446386955
S1134DD0A0F11408ACB92846FEF792FC296A08FB36
S1134DE001F1814203D200225A243A700BE0706828
S1134DF00121401C706039706968286800F0F9FC72
S1134E0001E0002038702846FFF736FF2046BDE851
S1134E10F2830000700700002DE9FF4104000E46F4
S1134E201746984608BF212031D094F8340008B9B9
S1134E3011202CE0C6F31300B04229D1022100F066
S1134E406CF8DFF8885202AB2A46314600F06DF860
S1134E50002801BF9DF808000128286940450AD1AF
S1134E600121019100954346002239462046FEF770
S1134E70D6FF050008D00120009043463A4631464B
S1134E802046FEF773FF054600F0E4F8284638E0B4
S1134E902920FCE72DE9FF4104000D4616469846FB
S1134EA008BF21202DD094F8340008B9112028E03F
S1134EB000F02EF81AD100F02FF8DFF8107202ABD0
S1134EC000F031F8050019D19DF80800012811D12E
S1134ED0386940450CD100210191009743460022D6
S1134EE031462046FEF79BFF054607E0292008E0EF
S1134EF0632503E002280CBF60252D2500F0AAF8E5
S1134F00284604B0BDE8F08100000000401A0020EB
S1134F10C5F31300A842704701212046A1E69DF87D
S1134F200000032870473A4629462046FFF75BB93C
S1134F3010B5032A0CBF012200220298037E9A4274
S1134F4012D10268914224BF43688B420CD3426958
S1134F50C368521C426102699A4205D2846844F8CB
S1134F6022100169491C0161012010BD7CB50C4669
S1134F701D46032A0CBF012100212A7E914228D11B
S1134F8021682B68994224BF6E688E4221D3DFF8D2
S1134F9034616B463246FFF726F9002802BF706879
S1134FA06168884215D1FFF7BAFF0CBF01200020C9
S1134FB0297E88420DD16869E968401C68612869C6
S1134FC0884206D22268A96841F820202869401C3A
S1134FD02861012076BD00008144000023450000C3
S1134FE02DE9F04387B004008946154698461ABF58
S1134FF094F834000028002025D00F9E0E9FFFF760
S11350008BFFCDF8008001970021CDF8089003951F
S1135010049105918DF81860207C38B96A46DFF850
S1135020B01004F1080000F081FB05E06B46DFF8E6
S1135030A4202046FFF7F1F9002D0CBF059D049D27
S113504000F008F8284607B0BDE8F08327460000C2
S11350504946000020460FE63EB5069D002402E0C6
S11350603EB5069D012401940095FFF7B9FF3EBDAE
S1135070F8B50446616904F15005FEF715FB6A6949
S1135080216B121891429241D20F2A70884234BF88
S1135090081A00206860207C287278B10E4F00F056
S11350A01DF8FFF7D9FF064600F018F8FFF7D8FF00
S11350B0E1688019814234BF401A0020E860F1BDE4
S11350C03F4A0000E819002070130020BC1900209A
S11350D0314F00006D4F0000FFFF0F0000970023C9
S11350E00022002120467047012908BFC04320F058
S11350F07840704701B582B0012904BFC0430290D3
S1135100029800238DF8003020F0784002901B2292
S113511002A9684600F03DFB9DF80010029840EAA1
S1135120C1600EBD2DE9F84185B0054658680E46AC
S1135130904600240021400A00E0491C4008FCD1AC
S1135140D87889B21F88000300F4805000EB413006
S11351509978C7F30A071A4AC90201F400610818CA
S11351603F18009200214046FFF7C4FF019001213F
S11351704046FFF7BFFF4FF0FF3147F07F470290F3
S1135180039147F47F070497AB69012204A906F150
S11351901000984700F016F802A906F10800984795
S11351A000F010F801A9301D984700F00BF869468B
S11351B03046984700B10446204606B0BDE8F08169
S11351C001009AB200B10446AB69012270473EB5B2
S11351D000F027F801A9284698470198012269465A
S11351E080B20090A3692846984737BD7CB500F08B
S11351F018F8694628469847009800264FF6FF712C
S113520080B288420BD100984AF2A551012261F381
S11352100F000190A36901A9284698470646304625
S113522076BD0446636901F10C05012270471CB583
S1135230044600208DF800001B22211D684600F062
S1135240A8FA60689DF80010B1EBD06F08BF002188
S11352500FD000208DF800001B2204F108016846DD
S113526000F097FAA0689DF80010B1EBD06F03D15D
S11352700121FFF739FF16BD4FF0FF3016BD10B501
S1135280044620684BF29A22010C914204BF80B27A
S1135290012814D12046FFF7CAFF10F1010F0ED0E8
S11352A0E0684FF6FF71020C8A4201D0022010BD63
S11352B080B2884201D0012010BD002010BD2068BA
S11352C010F1010F01D1032010BD042010BD010015
S11352D018BF012801D1012070470020704703281E
S11352E018BF042801D101207047002070471430F2
S11352F070472DE9F04105460E4629691746984640
S113530030468847040007D143463A46314628468A
S1135310FFF708FF040003D031462846FFF757FF84
S11353202046BDE8F0810000007800F07F000128ED
S113533002D0401E8041C00F70471CB500F046F8F3
S1135340584800EAC11023F07C41616042EA000140
S1135350012A03D9921E012A07D908E00598C0B290
S113536041EAC06343F0604305E00B4603E0DB1D04
S113537003F07F03034304982360C0B258B100F0E4
S11353802AF800F03EF860689DF8001040EA816059
S11353906060082016BD1B2200F01EF820689DF8EE
S11353A0001040EAC1602060042016BD38B500F04A
S11353B00DF81B2200F010F89DF80000216800256C
S11353C0B0EBD16F08BF0125284632BD044600204A
S11353D08DF80000704720222146684600F0D9B9B4
S11353E038B5FFF7F3FFFFF7F6FF00F00AF89DF872
S11353F0000061680025B0EB916F08BF01252846C5
S113540032BD1A22211D684600F0C3B9006810F1AC
S1135410010F01D1012070470020704710B50468C6
S1135420FFF782FFE40E04F0030400B900242046D1
S113543010BD0068C0F3D310704775E780B5FFF75F
S113544073FF08B1082002BD042002BD10B5044654
S1135450FFF76AFF18B1606820F07C4010BD207827
S113546000F07F00082801D3C01F10BD002010BD2C
S1135470007800F07F0070470B4A38B50D4611687C
S1135480044600F0B3F94FF0FF3323600020656059
S1135490A0752061A360E0756076A076207631BDAA
S11354A00000000080FFFF0770070000032808D0F9
S11354B0022802D129B10120704709B100207047A8
S11354C007207047401E012805D9801E07D0401EC2
S11354D0022802D905E0022070470020704703200B
S11354E07047012070470000006850F83100000147
S11354F0000E7047006850F831301B0D42EA035229
S113550040F831207047006850F83130C3F313037A
S113551043EA025340F831307047006800EBC101A0
S11355204A60704700684FF0FF3240F8312000EBCA
S1135530C100426070470160426038B504460025EE
S113554004E029462046FFF7EDFF6D1C60688542A4
S1135550F7D30021217231BD10B50A46002103683A
S113556000E0491C4468A1420BD253F8314014F1C5
S1135570010FF6D0C4F313049442F2D1BDE81040F5
S1135580D0E710BD70B5044615464FF0FF30002635
S1135590226800E0761C63689E4211D252F83630CD
S11355A013F1010FF6D0C3F313038B42F2D131464A
S11355B02046FFF799FF2870206800EBC601486871
S11355C070BD00002DE9F04F81B0064674680027D5
S11355D093469846002C00F08380D6F8009014F08F
S11355E0030A50464A460DD0136813F1010F04D044
S11355F0C3F313038B4200F088807F1C401E02F12A
S11356000802F1D1A50828003AD100224B465FEAEE
S11356100A000AD05FF0000453F8082B12F1010FBE
S113562021D0641C401EF7D12246280058D009EB33
S1135630C20314461A6812F1010F1EBF641C9A6853
S113564012F1010F0FD01A69641C12F1010F1EBF71
S1135650641C9A6912F1010F05D0641C401E03F109
S11356602003E7D13CE00A4621463046FFF742FFDB
S1135670424621463046FFF746FF5A4621464BE054
S113568009EBC702D2F800C01CF1010F04D0CCF31F
S1135690130C8C4500F03980D2F808C07F1C1CF133
S11356A0010F03D0CCF3130C8C452ED013697F1C4F
S11356B013F1010F04D0C3F313038B4200F02580D0
S11356C0D2F818C07F1C1CF1010F03D0CCF3130CCB
S11356D08C451AD07F1C401E02F12002D2D194E7DF
S11356E0B8F1030F1DD00027009100E07F1C706803
S11356F0874216D239463046FFF7F6FE0328F5D125
S1135700009A39463046FFF7F5FE424639463046A0
S1135710FFF7F9FE5A463946304601B0BDE8F04F6E
S1135720FBE60120307201B0BDE8F08F2DE9FC41A9
S1135730044688461646002700E07F1C60688742BE
S113574016D2216851F8375015F1010FF5D03946BA
S11357502046FFF7C9FE00962268C5F3130502EB45
S1135760C7014B68024629462046C0470028E4D1B9
S1135770BDE8F38103000020521E22BF13F8010B81
S113578011F801CBB0EB0C00F6D0521C08BF104648
S1135790704730B50B68202A03D201249440641E5C
S11357A02340590821F0AA315B1A23F0CC349B081A
S11357B023F0CC331B1903EB131305784FF001319D
S11357C023F0F0334B435219A2EB1362027030BD45
S11357D080B5FDF72AFB0149086001BDB819002016
S11357E001490868FDF725BBB8190020002200F024
S11357F001B8704700B500BF1300964694461039AF
S113580028BFA0E80C50FAD85FEA417C28BF0CC03E
S113581048BF40F8042BC90728BF20F8022B48BF13
S113582000F8012B00BD000070B500F026F810B997
S1135830DFF8540170BD14B9DFF8500170BDFDF7F5
S1135840BBFD01460022DFF8483115015E19307BAB
S113585018B1521C082AF8D309E0226001203073E1
S113586000225A510846FDF7ADFD002070BD0846E0
S1135870FDF7A8FDDFF81C0170BD0446DFF8181120
S11358800878704780B50FF2281001680022009153
S11358908DF80020FDF790FD3F4A117819B1FDF70E
S11358A091FD3E4802BD01211170FDF78BFD0020E2
S11358B03749002201EB0013401C08281A73F9DB56
S11358C008208DF80300684600F091F8002002BD1E
S11358D080B5314A117801B91BE0082800D31AE0D9
S11358E000F012F801B918E0002118E080B52A4A46
S11358F0117801B90DE0082800D30CE000F004F899
S113590001B90AE001210AE0214A02EB0013197BE4
S113591070471D4802BD1D4802BD214802BD00F06C
S113592049F8002002BDF8B51E4908684C680440D7
S113593000D5FEE70025012634421FD0144901EBAF
S11359400517194B1E603868C0B1B8687A683B689F
S1135950401CB860014628469847002804BF797B5C
S113596001290BD1114800EB4510C26822F0020254
S1135970C2601030C16821F00201C1606D1C760064
S1135980082DD9D3F1BD0000028000F0018000F0A1
S1135990EC110020048000F0381C0020038000F08B
S11359A0078000F050000450502004506C12002076
S11359B01E000003F8B505460E46314F082D04DBE2
S11359C0772107F17C00FCF7B7FF741EA441E40FB4
S11359D0202D03D391213846FCF7AEFF002C14BFD1
S11359E028482948012101FA05F50560F1BD38B5BB
S11359F00400234D02D1912100F03BF821786FF08F
S1135A00F85010EA016F02D0932100F032F8E078E8
S1135A10102802DB952100F02CF801212020FBF74F
S1135A20F5FC01212120FBF7F1FC14480121016060
S1135A302278120642606178A27842EA0142FF218C
S1135A4042614162002242630021C1634FF000427F
S1135A5002654FF0FF300D4908601520FDF72BFB60
S1135A60E1781520FDF732FB1520BDE83240FDF743
S1135A70CDBA05F17C00FCF75FBF000004000450C0
S1135A80640500004010045040200450502004508D
S1135A90C26C0A42FCD1704770B500F06BF802D0BA
S1135AA0702100F06FF814B9722100F06BF8207BBC
S1135AB0802802D1762100F065F8607B042802DB9F
S1135AC0792100F05FF821462846002300224EE0A9
S1135AD0F8B50546DFF8E0730C46DFF8E063BD4235
S1135AE002D08A2100F04EF814B98C2100F04AF853
S1135AF0BD420AD13820FCF753F90B2818BF0828F7
S1135B0006D0092818BF102802D0A92100F03AF8BD
S1135B10607B042802DBAD2100F034F8207B802870
S1135B2002D0AF2100F02EF86069B0F1804F02D0AE
S1135B30B12100F027F8B4F91000B0F5805F18BF68
S1135B40B0F5405F02D0B32100F01CF8A06842F227
S1135B508151884200D210B9B52100F013F82146D2
S1135B60284601B000230022BDE8F040FAE0BDE879
S1135B707040F7E00546DFF840230C46DFF83C634D
S1135B80954270473046FCF7D7BE10B5044600F086
S1135B90A9F90020E0600021A16041F20200206127
S1135BA0E16100206061A16120626162E062002223
S1135BB0A264DFF80C0342F244016050A26210BDFB
S1135BC038B500F0BBF803D040F2691100F0BBF81F
S1135BD0280003D12046BDE8324083E1012041F290
S1135BE00401605005F00F00E16C4A05FCD120630C
S1135BF0E06C10F0780FFBD10020E90748BF0120CA
S1135C00690748BF40F00200216C01F003018142A2
S1135C10FAD131BD0146C86810F4C01F03D0486BE7
S1135C204A6C930603D5086C0206FCD5486BC0B2D7
S1135C30704700E00000026C5306FCD5C163704756
S1135C40F8B506460C461500DFF8707203D140F231
S1135C50272100F070F8DFF86022964203D040F26A
S1135C602A2100F068F82CB9304600F06FF8FBF7F1
S1135C70E9FF04467068012803D04FF4177100F05F
S1135C805AF8B06810F0E00008D0202825D0402849
S1135C902CD0602835D080283CD045E02109A94289
S1135CA003D24FF4217100F046F8102045436401FB
S1135CB0B4FBF5F4DFF80C52203CE400AC4203D909
S1135CC040F2A92100F037F82C40F06CC107FCD455
S1135CD0B462F06CC107FCD4F1BDE008A84203D261
S1135CE040F2892100F027F80820DFE70620B4FB02
