S00F0000627473656E736F722E73333775
S113000000100020C55D0000E95D0000E95D00000E
S1130010E95D0000E95D0000E95D0000E95D0000C4
S1130020E95D0000E95D0000E95D0000E95D0000B4
S1130030E95D0000E95D0000E95D0000E95D0000A4
S1130040E95D0000E95D0000E95D0000E95D000094
S1130050E95D0000E95D0000E95D0000E95D000084
S1130060E95D0000E95D0000E95D0000E95D000074
S1130070EF5A0000E95D0000E95D0000E95D000061
S1130080E95D0000E95D0000E95D00006F350000F6
S1130090E95D0000834A0000E95D0000E95D0000BD
S11300A0E95D0000AD4800009F480000E95D0000E4
S11300B0E95D0000E95D0000E95D0000E95D000024
S11300C0E95D0000E95D0000E95D0000E95D000014
S11300D0E95D0000E95D0000E95D0000E95D000004
S11300E0E95D0000E95D0000E95D0000E95D0000F4
S11300F0E95D0000E95D0000E95D0000E95D0000E4
S1130100E95D0000E95D0000E95D0000E95D0000D3
S1130110E95D0000E95D0000E95D0000E95D0000C3
S1130120E95D0000E95D0000E95D0000E95D0000B3
S1130130E95D0000E95D0000E95D0000E95D0000A3
S1130140000002000000000000000000BA040000EB
S11301500000000000000200000000000000000099
S1130160BA04000000000000A0BB0D00C07A10001B
S1130170001F408240420F00C07A100020D61300B6
S11301803A1F41A20000000020D613009058170027
S11301903A1F42A2000000009058170040771B004D
S11301A03A9F43B60000000040771B0070CE200049
S11301B0001F408180841E0070CE200040AC2700C8
S11301C03A1F41A10000000040AC2700108A2E0015
S11301D03A1F42A100000000108A2E0080EE360073
S11301E03A9F43B50000000080EE3600E09C4100D9
S11301F0001F408000093D00E09C410080584F00F2
S11302003A1F41A00000000080584F0020145D00F8
S11302103A1F42A00000000020145D00C0047700D3
S1130220009F43B4C0CF6A00C004770040899500A2
S11302303A9F44B40000000040899500C00DB4000A
S11302403A9F45B400000000C00DB40000BADB00C2
S1130250009F66B4405DC60000BADB0080730601EF
S1130260009F67B40024F4008073060120992C01D8
S1130270009F68A8C0EA210120992C01C0286B01C5
S11302803A9F89B800000000C0286B0160EDB501F9
S1130290009F8AB880BA8C0160EDB5018001130219
S11302A0009FABB80048E8018001130280138D025F
S11302B0009FCCA880D5430280138D02805A13037B
S11302C0009FEDAC006CDC02805A130320289B03D2
S11302D0009FEEBC007E560320289B03C0C9530434
S11302E0009FEFBC0090D003C0C9530400B4C40401
S11302F0009FF0CC00B4C404433A5C557365727338
S11303005C686578696E5C53696D706C6963697467
S11303107953747564696F5C76365F776F726B734B
S1130320706163655C627473656E736F725C73692C
S11303306D706C69636974795F73646B5F323032BA
S1130340352E31322E335C706C6174666F726D5F62
S1130350636F72655C706C6174666F726D5C656D01
S11303606C69625C696E635C656D5F6275732E684F
S113037000000000433A5C55736572735C686578ED
S1130380696E5C53696D706C6963697479537475D3
S113039064696F5C76365F776F726B7370616365E7
S11303A05C627473656E736F725C73696D706C6993
S11303B0636974795F73646B5F323032352E313226
S11303C02E335C706C6174666F726D5F636F7265FF
S11303D05C706C6174666F726D5C656D6C69625C97
S11303E07372635C656D5F636D752E63000000005E
S11303F0433A5C55736572735C686578696E5C53E7
S1130400696D706C696369747953747564696F5C40
S113041076365F776F726B73706163655C62747359
S1130420656E736F725C73696D706C6963697479FE
S11304305F73646B5F323032352E31322E335C7031
S11304406C6174666F726D5F636F72655C706C6112
S113045074666F726D5C656D6C69625C7372635C0B
S1130460656D5F656D752E6300000000433A5C5551
S1130470736572735C686578696E5C53696D706CE2
S1130480696369747953747564696F5C76365F77F0
S11304906F726B73706163655C627473656E736FA6
S11304A0725C73696D706C69636974795F73646B92
S11304B05F323032352E31322E335C706C617466AB
S11304C06F726D5F636F72655C706C6174666F727E
S11304D06D5C656D6C69625C7372635C656D5F65B0
S11304E075736172742E6300433A5C55736572735D
S11304F05C686578696E5C53696D706C6963697476
S11305007953747564696F5C76365F776F726B7359
S1130510706163655C627473656E736F725C73693A
S11305206D706C69636974795F73646B5F323032C8
S1130530352E31322E335C706C6174666F726D5F70
S1130540636F72655C706C6174666F726D5C656D0F
S11305506C69625C7372635C656D5F696164632E70
S113056063000000433A5C55736572735C68657898
S1130570696E5C53696D706C6963697479537475E1
S113058064696F5C76365F776F726B7370616365F5
S11305905C627473656E736F725C73696D706C69A1
S11305A0636974795F73646B5F323032352E313234
S11305B02E335C706C6174666F726D5F636F72650D
S11305C05C706C6174666F726D5C656D6C69625CA5
S11305D0696E635C656D5F6275732E680000000070
S11305E0433A5C55736572735C686578696E5C53F5
S11305F0696D706C696369747953747564696F5C4F
S113060076365F776F726B73706163655C62747367
S1130610656E736F725C73696D706C69636974790C
S11306205F73646B5F323032352E31322E335C703F
S11306306C6174666F726D5F636F72655C706C6120
S113064074666F726D5C656D6C69625C7372635C19
S1130650656D5F6C646D612E63000000433A5C5508
S1130660736572735C686578696E5C53696D706CF0
S1130670696369747953747564696F5C76365F77FE
S11306806F726B73706163655C627473656E736FB4
S1130690725C73696D706C69636974795F73646BA0
S11306A05F323032352E31322E335C706C617466B9
S11306B06F726D5F636F72655C706C6174666F728C
S11306C06D5C656D6C69625C7372635C656D5F72B1
S11306D07463632E63000000433A5C557365727360
S11306E05C686578696E5C53696D706C6963697484
S11306F07953747564696F5C76365F776F726B7368
S1130700706163655C627473656E736F725C736948
S11307106D706C69636974795F73646B5F323032D6
S1130720352E31322E335C706C6174666F726D5F7E
S1130730636F72655C706C6174666F726D5C656D1D
S11307406C69625C696E635C656D5F6275732E686B
S113075000000000433A5C55736572735C68657809
S1130760696E5C53696D706C6963697479537475EF
S113077064696F5C76365F776F726B737061636503
S11307805C627473656E736F725C73696D706C69AF
S1130790636974795F73646B5F323032352E313242
S11307A02E335C706C6174666F726D5F636F72651B
S11307B05C706C6174666F726D5C7365727669638C
S11307C0655C636C6F636B5F6D616E616765725CC2
S11307D07372635C736C5F636C6F636B5F6D616E8C
S11307E0616765725F696E69745F68616C5F7332BB
S11307F02E630000180000001A0000000C00000026
S1130800150000001E000000000010000100100090
S11308100000035A14000000F40700000808000058
S11308200C0800000000005812000000040800003A
S1130830433A5C55736572735C686578696E5C53A2
S1130840696D706C696369747953747564696F5CFC
S113085076365F776F726B73706163655C62747315
S1130860656E736F725C73696D706C6963697479BA
S11308705F73646B5F323032352E31322E335C70ED
S11308806C6174666F726D5F636F72655C706C61CE
S113089074666F726D5C7065726970686572616CA4
S11308A05C696E635C736C5F68616C5F6770696FD1
S11308B02E680000433A5C55736572735C68657812
S11308C0696E5C53696D706C69636974795374758E
S11308D064696F5C76365F776F726B7370616365A2
S11308E05C627473656E736F725C73696D706C694E
S11308F0636974795F73646B5F323032352E3132E1
S11309002E335C706C6174666F726D5F636F7265B9
S11309105C706C6174666F726D5C6472697665722A
S11309205C6770696F5C7372635C736C5F6770693A
S11309306F2E6300433A5C55736572735C68657827
S1130940696E5C53696D706C69636974795374750D
S113095064696F5C76365F776F726B737061636521
S11309605C627473656E736F725C73696D706C69CD
S1130970636974795F73646B5F323032352E313260
S11309802E335C706C6174666F726D5F636F726539
S11309905C706C6174666F726D5C706572697068AE
S11309A06572616C5C696E635C736C5F68616C5FDB
S11309B06770696F2E680000433A5C557365727303
S11309C05C686578696E5C53696D706C69636974A1
S11309D07953747564696F5C76365F776F726B7385
S11309E0706163655C627473656E736F725C736966
S11309F06D706C69636974795F73646B5F323032F4
S1130A00352E31322E335C706C6174666F726D5F9B
S1130A10636F72655C706C6174666F726D5C706537
S1130A20726970686572616C5C7372635C736C5F2D
S1130A3068616C5F6770696F2E630000433A5C55B0
S1130A40736572735C686578696E5C53696D706C0C
S1130A50696369747953747564696F5C76365F771A
S1130A606F726B73706163655C627473656E736FD0
S1130A70725C73696D706C69636974795F73646BBC
S1130A805F323032352E31322E335C706C617466D5
S1130A906F726D5F636F72655C706C6174666F72A8
S1130AA06D5C7065726970686572616C5C696E63B7
S1130AB05C736C5F68616C5F6275732E6800000024
S1130AC0433A5C55736572735C686578696E5C5310
S1130AD0696D706C696369747953747564696F5C6A
S1130AE076365F776F726B73706163655C62747383
S1130AF0656E736F725C73696D706C696369747928
S1130B005F73646B5F323032352E31322E335C705A
S1130B106C6174666F726D5F636F72655C706C613B
S1130B2074666F726D5C7065726970686572616C11
S1130B305C696E635C736C5F68616C5F6C6574693F
S1130B406D65722E68000000433A5C5573657273DC
S1130B505C686578696E5C53696D706C696369740F
S1130B607953747564696F5C76365F776F726B73F3
S1130B70706163655C627473656E736F725C7369D4
S1130B806D706C69636974795F73646B5F32303262
S1130B90352E31322E335C706C6174666F726D5F0A
S1130BA0636F72655C706C6174666F726D5C7065A6
S1130BB0726970686572616C5C7372635C736C5F9C
S1130BC068616C5F6C6574696D65722E630000000A
S1130BD0433A5C55736572735C686578696E5C53FF
S1130BE0696D706C696369747953747564696F5C59
S1130BF076365F776F726B73706163655C62747372
S1130C00656E736F725C73696D706C696369747916
S1130C105F73646B5F323032352E31322E335C7049
S1130C206C6174666F726D5F636F72655C706C612A
S1130C3074666F726D5C736572766963655C696E08
S1130C40746572727570745F6D616E616765725CF4
S1130C507372635C736C5F696E74657272757074C1
S1130C605F6D616E616765725F636F727465786DE5
S1130C702E630000433A5C55736572735C68657853
S1130C80696E5C53696D706C6963697479537475CA
S1130C9064696F5C76365F776F726B7370616365DE
S1130CA05C627473656E736F725C73696D706C698A
S1130CB0636974795F73646B5F323032352E31321D
S1130CC02E335C706C6174666F726D5F636F7265F6
S1130CD05C706C6174666F726D5C73657276696367
S1130CE0655C706F7765725F6D616E616765725C7C
S1130CF07372635C736C6565705F6C6F6F705C734B
S1130D006C5F706F7765725F6D616E616765722E7F
S1130D1063000000433A5C55736572735C686578E0
S1130D20696E5C53696D706C696369747953747529
S1130D3064696F5C76365F776F726B73706163653D
S1130D405C627473656E736F725C73696D706C69E9
S1130D50636974795F73646B5F323032352E31327C
S1130D602E335C706C6174666F726D5F636F726555
S1130D705C706C6174666F726D5C736572766963C6
S1130D80655C706F7765725F6D616E616765725CDB
S1130D907372635C636F6D6D6F6E5C736C5F706FA9
S1130DA07765725F6D616E616765725F636F6D6DAC
S1130DB06F6E2E6300000000433A5C5573657273D6
S1130DC05C686578696E5C53696D706C696369749D
S1130DD07953747564696F5C76365F776F726B7381
S1130DE0706163655C627473656E736F725C736962
S1130DF06D706C69636974795F73646B5F323032F0
S1130E00352E31322E335C706C6174666F726D5F97
S1130E10636F72655C706C6174666F726D5C736530
S1130E2072766963655C706F7765725F6D616E6120
S1130E306765725C7372635C736C6565705F6C6F1D
S1130E406F705C736C5F706F7765725F6D616E61FC
S1130E506765725F68616C5F73322E630000000027
S1130E60433A5C55736572735C686578696E5C536C
S1130E70696D706C696369747953747564696F5CC6
S1130E8076365F776F726B73706163655C627473DF
S1130E90656E736F725C73696D706C696369747984
S1130EA05F73646B5F323032352E31322E335C70B7
S1130EB06C6174666F726D5F636F72655C706C6198
S1130EC074666F726D5C736572766963655C736C6E
S1130ED065657074696D65725C7372635C736C5F75
S1130EE0736C65657074696D65722E630000000033
S1130EF0433A5C55736572735C686578696E5C53DC
S1130F00696D706C696369747953747564696F5C35
S1130F1076365F776F726B73706163655C6274734E
S1130F20656E736F725C73696D706C6963697479F3
S1130F305F73646B5F323032352E31322E335C7026
S1130F406C6174666F726D5F636F6D6D6F6E5C70F4
S1130F506C6174666F726D5C636F6D6D6F6E5C69EE
S1130F606E635C736C5F636F6D6D6F6E2E680000F3
S1130F70433A5C55736572735C686578696E5C535B
S1130F80696D706C696369747953747564696F5CB5
S1130F9076365F776F726B73706163655C627473CE
S1130FA0656E736F725C73696D706C696369747973
S1130FB05F73646B5F323032352E31322E335C70A6
S1130FC06C6174666F726D5F636F72655C706C6187
S1130FD074666F726D5C736572766963655C736C5D
S1130FE065657074696D65725C7372635C736C695A
S1130FF05F736C65657074696D65725F68616C2E92
S113100068000000433A5C55736572735C686578E8
S1131010696E5C53696D706C696369747953747536
S113102064696F5C76365F776F726B73706163654A
S11310305C627473656E736F725C73696D706C69F6
S1131040636974795F73646B5F323032352E313289
S11310502E335C706C6174666F726D5F636F726562
S11310605C706C6174666F726D5C706572697068D7
S11310706572616C5C696E635C736C5F68616C5F04
S11310806C6574696D65722E68000000433A5C55A6
S1131090736572735C686578696E5C53696D706CB6
S11310A0696369747953747564696F5C76365F77C4
S11310B06F726B73706163655C627473656E736F7A
S11310C0725C73696D706C69636974795F73646B66
S11310D05F323032352E31322E335C706C6174667F
S11310E06F726D5F636F72655C706C6174666F7252
S11310F06D5C656D6472765C756172746472765C45
S11311007372635C756172746472762E630000009E
S113111078B591B0002104AC21606160A16007A89A
S11311205949282200F0C8F80FF284125EA611680B
S1131130D6E900452A200191CDE90245012100F0BC
S1131140C7F8524C204600F0EDFA02214FF4B0608B
S113115000F048FE00208DF8130000224C49204680
S113116000F06AFB8DF8150003219DF815008DF839
S11311701F1040F6C4120A9202218DF81E1000229C
S113118000908DF82C2000234249204600F07EFB7D
S1131190042100228DF81D108DF80A208DF80D20F1
S11311A00122832109908DF808208DF805108DF80F
S11311B0042007AA04A9204600F0C4F801AA02A941
S11311C0204600F02EFA3448016841F48031016071
S11311D00268324942F0010202604FF40070086074
S11311E00122E260012012B070BD0000F8B500BF1A
S11311F030A630680024254D0090832101228DF80B
S113120001108DF800200AE03268E1B20029009252
S1131210F3D0842001218DF801008DF80010694677
S1131220284600F043FA4FF400701E49086001227A
S1131230EA60686A8005FCD5686A19490A788005FD
S11312400AD5E86F01EB8403586528206043081829
S113125000EB8207586D7860012C07D1521C0A23D9
S113126092FBF3F30A2000FB13220A70641C012C86
S1131270CADDF1BD80B5FFF74BFFFFF7B7FF0348A9
S1131280BDE8024000F04EBA400100000040005AA0
S1131290002D31018096980020C303502850005A35
S11312A0981100202460005A000003000000000090
S11312B001000000010000004AB1000011F8013BE8
S11312C0521E00F8013B1CBF11F8013BF8E77047C0
S11312D0F8B5054600260C464009124F06D140F2E7
S11312E03B3107F5037001F089FA07E0012808BFD4
S11312F00D4E03D002280CBF0C4E0D4E05F01F05F9
S11313001F2D04D9912107F5C87001F077FA002C3C
S113131014BF06F5805606F50056012000FA05F5BF
S11313203560F1BD680100006480005068800050A1
S1131330608200504169CB01FCD4012142F20402D5
S1131340815070472DE9F84F14462DED028B8346EA
S1131350DFF8982584B00E46934502D0EC2100F0C6
S1131360D5F9DFF88C7500223946584600F064FA46
S1131370804670794045A8BF80465846FFF7DAFF9B
S1131380317908000AD100F07BFAB84228BFB0FBDB
S1131390F8F00146584600F02AFA0146F0780904AC
S11313A001F4FE01000100F0300001434FEA08702F
S11313B000F0E0400143307808B141F00201707858
S11313C008B141F00401B07808B141F00801CBF84C
S11313D00810F088DFF81C75CBF81000318970898B
S11313E0002640EA0140CBF8200002948DF80480E6
S11313F00FE040F2F11100F089F905E0C0F31100AB
S113140040EA0A0AC8F850A0C9F30909C8F8549078
S1131410761CDFF8D80483450CBF022000208642E6
S113142080F0F580142102987143441894F800A0C8
S11314302589BAF1000F0CBFDFF8BC14DFF8BC1427
S11314409DF80400534600220090584600F01EFA0E
S1131450A84238BF28460BEB06188146D8F8480046
S113146061786AF3010061F38400A17861F30E30BE
S1131470E17861F31240217C61F35750217961F3E3
S11314801D70C8F84800D8F84800C0F30230411E67
S113149004290BD8DFE801F00A0A030507003D68B8
S11314A002E07D6803E07D682D0C00E03D68BAF140
S11314B0000F9ED19FED930A032802D1F86800140F
S11314C00BE0042803D1F8680014400005E0052867
S11314D007D1F868001400EB400000EE100AB8EEE3
S11314E0C00AA9B249F6FF7008404FEA804A0004D6
S11314F048BF4AF0004AD8F848100120C1F38201DD
S1131500491C884000EE900AF8EEE08A022808D1CF
S1131510F86800B200EE900AF8EEE00A30EE808A35
S113152015E03869F6EE000A68EEA00A00B201EE92
S1131530100AB868B8EEC11A31EE400A00B201EEE2
S1131540900AC0EE200AF8EEE11A30EEA18AE078A3
S113155070B900F0EBF900EE100AB8EE400ADFEDC6
S11315606A0A80EE200AB7EE041A81EE001A0BE034
S113157094ED030AB8EE400ADFED630AC0EE200AD8
S1131580B7EE041A81EE201A21EE080AF1EE001AD1
S1131590DFED600A20EE210AC0EEA80A9FED5E1A74
S11315A000EE810ABAF1004F0BD09FED5C1A00EEF9
S11315B0905A30EE011AFBEE600A9FED590A00EED4
S11315C0810AF1EE400AF5EE400AF1EE10FA08D570
S11315D0FEEE000A30EEC00ABDEEC00A10EE100A9C
S11315E007E0B6EE001A31EE401ABDEEC11A11EE54
S11315F0100AB0F5003FA8BFDFF80403BFF600AF40
S113160010F5003FBFF6FAAE4AF4003AFAE60120BC
S113161041F204014BF8010004B0BDEC028BBDE8BB
S1131620F18F70B5164600F066F803D04FF41971C7
S113163000F06CF82046FFF77DFE6878002814BFA0
S11316400821002100F023F82167E16AA879002825
S113165014BF4FF4803200222B79DFF8A802014036
S113166068791B0203F4E0630003194300F480501B
S113167001431143E1623146204600F017F801218D
S113168041F20402A150E87900B1E16070BDE8784C
S113169008B14FF480702A78AB7802F00702114346
S11316A01B0103F0300319430143704738B500F0C0
S11316B022F803D04FF4277100F028F8012241F2F8
S11316C004036168E250E87801F0010108B14FF4C5
S11316D000302A786B78AD7842EA03222D0405F4B1
S11316E080352A431043C4F8980019B92046BDE850
S11316F032401FE631BD04467C4A0D469442704791
S1131700000000000000000000007A447E4801F060
S113171075B8000000008043000020440000004928
S1131720000000C938B50446704A944203D040F220
S11317301931FFF7EBFF012141F204002150734AF4
S1131740E260734960690842FCD10022A261002072
S113175004F184014861606910F4401FFBD16069A1
S1131760C10501D4A06F10B1606FF8E70968606922
S113177004F184018205F9D448680028F6D1E06FA9
S113178089682046FFF7D6FD0020A0600021216172
S1131790E0622162302020673021C4F880100021EB
S11317A052485C4D08E004EB011242F26003491C0C
S11317B0936415650023536584420CBF0222002202
S11317C09142F0D3002105E0002204EB8103C3F829
S11317D0A020491C84420CBF102200229142F3D362
S11317E042F2240020184C490160416031BD10B51B
S11317F03E4A0C46904203D040F26F31FFF786FF19
S11318007CB900F03DF8040008BF012409D0434826
S1131810844206D342490868C0F30270401CB4FBFA
S1131820F0F4404804194049B4FBF1F0401E7F280D
S113183028BF7F20C0B210BD70B515462B4A0C4698
S1131840314E904203D040F2AA3100F01CF824B982
S113185040F2AB3100F017F803E02548844228BF7A
S1131860044615B900F00CF8054665196D1EB5FB64
S1131870F4F018B1401E042828BF0320C0B270BD84
S11318802A2000F041B9304600F0B8BFF8B515463B
S1131890164A0C461E461C4F904204D04FF47971F0
S11318A0384600F0ABFF24B940F2E531384600F089
S11318B0A5FF002E0CBF10481048A04238BF0446B4
S11318C015B9FFF7DDFF05460698C0B2401CB5FB0D
S11318D0F0F02018401EB0FBF4F028B1401E40F296
S11318E0FF31884228BF084680B2F2BD0040005A4A
S11318F0005A62028081E00F80969800404B4C00B1
S1131900FFFF0100FFE8FEFFE804000012000200F0
S11319105200010000C002808F330F80015A62021E
S11319200840005A3F420F0040420F0038B50446B9
S11319306846002500F064FF042C10D8DFE804F0AA
S113194003060F090C0040F2BA450CE040F2E245F0
S113195009E040F6B83506E04FF4166503E040F2BE
S11319609141FFF7D3FE284632BD30B50168846843
S11319704218416802EB5103C90703D54C4401E006
S1131980491C08D19A4218BF12F9011B01D10C302D
S113199030BD12F8015B002904F8015BF0D4491E44
S11319A0F7D5EFE7DFF89C170868C0F300100028AC
S11319B0FAD10868C0F38110704710B50024DFF82D
S11319C08428DFF88418002818BFB0F5C07F09D038
S11319D0B0F5007F23D0B0F5207F24D0B0F5607F30
S11319E00FD023E00868C0F30334002C18BF012C87
S11319F01CD0032C1CBF072C0F2C17D040F28B21BA
S1131A0009E00869C0F30114002C1CBF012C032C4D
S1131A100CD040F29B21104600F0F0FE06E0086A6C
S1131A20C0F3046402E00868C0F38024601C10BDA5
S1131A3038B502464C1EDFF80C08DFF80C58002AB3
S1131A4018BFB2F5C07F09D0B2F5007F3AD0B2F525
S1131A50207F45D0B2F5607F23D04FE0012918BF25
S1131A60022909D0042918BF082905D010291CBF50
S1131A704FF4347100F0C2FE00F025FE00F0E8FDE2
S1131A80286820F4704040EA04302860FFF78AFF99
S1131A90044600F0CBFEC4F10204214600F036FCFB
S1131AA088E1012918BF022905D004291CBF40F28E
S1131AB0FE2100F0A3FE286920F0300040EA041063
S1131AC0286131BD09B1212903D340F2123100F05C
S1131AD095FE286A20F0F85040EA0460286231BD7F
S1131AE001291EBF02294FF4467100F087FE2868C1
S1131AF020F4806040EA8420286031BD40F21E3129
S1131B00BDE8344000F07ABE1CB5002100910028E5
S1131B1055D0203853D0401E5AD0801E58D0401E75
S1131B20032871D9001F012852D9801E78D0401E85
S1131B3054D0401E7CD0401E34D0401E4ED0401E97
S1131B40022845D9093867D0401E61D0401E0228BA
S1131B503ED9C01E78D0401E72D0401E38D00E38F8
S1131B602DD0801E02282AD9C01E4DD00E3801283F
S1131B7025D9203820D0803856D080381FD08038DE
S1131B8020D0803824D0803828D0803831D0803894
S1131B903AD080383CD080383ED0803840D080382D
S1131BA046D0803848D080384AD080384CD04FF462
S1131BB08072801A4CD04FE000F03AFE22E000F030
S1131BC055FE1FE000F034FE04464FF4007015E0AB
S1131BD000F04CFE04464FF420700FE000F046FE87
S1131BE004464FF42070FFF7E8FEB4FBF0F0400821
S1131BF008E000F01DFE04464FF46070FFF7DDFEC0
S1131C00B4FBF0F000902BE0684600F0F9FB27E00D
S1131C10684600F081FB23E0684600F0B3FB1FE058
S1131C20684600F0EDFC1BE0684600F07DFD17E01F
S1131C30684600F007FC13E0684600F04BFD0FE037
S1131C40684600F01DFD0BE0684600F029FC07E043
S1131C50684600F0AFFB03E040F2AA4100F0EEFA60
S1131C60009816BD80B5002124380091DFF8D425F2
S1131C70032841D9801F3AD0801E46D0401E53D03D
S1131C800B385AD0401F45D0401E5BD0143833D097
S1131C902E3818D0803834D04FF44073C01A2BD06B
S1131CA080383CD0803848D0803820D080382CD040
S1131CB0803839D0803845D080382BD080382ED029
S1131CC0803836D043E000F0C6FA0DD8DFE800F0E3
S1131CD009020406052102E0032203E00721009122
S1131CE03AE00222009237E040F2DC4131E06946FA
S1131CF0002000F085FC2FE06946002000F080FB06
S1131D002AE0694600F010FD26E06946002000F054
S1131D1099FB21E06946002000F0C2FB1CE0694603
S1131D20002000F0F9FA17E06946002000F0D2FC28
S1131D3012E0694600F03EFB0EE06946002000F028
S1131D4021FB09E06946002000F09AFC04E040F21F
S1131D508F51104600F052FD009802BD80B501215C
S1131D60022000F048FE4FF42070FFF726FEDFF853
S1131D707815087000F0A7FCBDE8014000F068BCCD
S1131D8038B50446FFF70EFE054600F04FFDC5F1D9
S1131D900205294600F0BAFA0121002000F019FEDC
S1131DA004B107E0DFF8400501784FF42070BDE886
S1131DB034403DE6BDE8314000F050BCDFF8B404E7
S1131DC001684FF48030DFF8A8241060DFF8A824FD
S1131DD013685B085B001360C9035CBFDFF8102560
S1131DE0106070472DE9F84302460D460026002492
S1131DF0243ADFF85004DFF87814DFF87894DFF839
S1131E00F484DFF8F474032A40F28E80921F1AD00F
S1131E10921E1AD0521E1BD00B3A11D0521F1DD045
S1131E20521E18D0143A07D02E3A20D0803A00F02F
S1131E3091804FF44073D21A76D0803A11D0803A10
S1131E4000F04581803A5CD0803A00F0B480803A5A
S1131E5000F00481803A00F05081803A00F0C5809F
S1131E60803A00F0DC80803A00F019815DE1022DB7
S1131E7019D0032D06D0052D02D0072D11D014E062
S1131E80022616E04FF400220A60DFF870341C6862
S1131E900120DFF8581464080326086004F00104E4
S1131EA007E0042605E0012603E040F2516100F05A
S1131EB0A5FC0121022000F09EFD00F004FC00F0CE
S1131EC0C7FBD9F80C00C00846EAC006C9F80C6084
S1131ED0FFF768FD064600F0A9FCC6F1020631468C
S1131EE000F014FA0121002000F073FD00F0B6FBAD
S1131EF0002C08BF032D03D10120DFF8041408606F
S1131F0019E1022D07D00F2D0EBF012640F29A6170
S1131F1000F074FC00E00226DFF8E8030168890899
S1131F2046EA8106066006E1012D0ED0022D0BD093
S1131F30032D07D0052D0EBF012640F2D96100F014
S1131F405DFC02E0022600E00326386A00F0F5F8A2
S1131F503E62F0E0DFF8B023DFF89433DFF8184393
S1131F604FF48036082D1CBF092D0B2D03D00C2DEA
S1131F700FD0102D1CD1D9F800000E602168C003C9
S1131F8041F00101216058BF1E60116821F0040175
S1131F900CE0D9F800000E6021684908490021606E
S1131FA0C00358BF1E60116841F004011160C2E013
S1131FB040F20171BBE0012D12D0082D08D0092D8B
S1131FC018BF0A2D02D00B2D04D005E0012607E02E
S1131FD0022605E0032603E040F2217100F00EFC26
S1131FE0386C00F0AAF83E64A5E0012D12D0082D4B
S1131FF008D0092D18BF0A2D02D00B2D04D005E0FE
S1132000012607E0022605E0032603E040F24371BF
S113201000F0F4FB386E00F090F83E668BE06D1E25
S1132020062D11D8DFE805F01408060E040C0A008A
S113203001260DE002260BE0032609E0042607E052
S1132040052605E0062603E040F26C7100F0D6FB9D
S1132050786AC00846EAC0067E626CE0012D16D09C
S1132060082D0AD0092D18BF0A2D04D00B2D06D037
S11320700E2D06D007E0012609E0022607E003261C
S113208005E0042603E04FF4F26100F0B7FBD8F852
S11320900000C00846EAC006C8F800604BE0012D05
S11320A010D0032D04D0072D06D0082D02D005E052
S11320B0012607E0022605E0032603E04FF4FA6157
S11320C000F09CFB386800F038F83E6033E0012DE6
S11320D00CD00F2D02D0102D02D003E0012605E014
S11320E0022603E040F62B0100F088FBD8F820001C
S11320F000F023F8C8F820601DE0083D032D09D83E
S1132100DFE805F004020206012607E0022605E0E6
S1132110032603E040F6B30100F070FBD8F840005A
S113212000F00BF8C8F8406005E040F66911BDE81E
S1132130F44300F063BBBDE8F183800846EA8006FF
S113214070470000844000502DE9F843054600F034
S1132150FBF9040018BF14F1010F03D140F6EC1190
S113216000F06CF84FF4C020DFF804110860DFF8C9
S1132170C8030268012A07D10121DFF8C0231160D6
S1132180416911F0030FFBD18020FFF76BFD052897
S113219003D100F098FA00F05BFADFF8B01424F0F1
S11321A040748D4206D0DFF898138D4208BF44F086
S11321B0807401E044F0007400F00EFD8146A945EE
S11321C003D20121284600F004FCDFF8786370682C
S11321D010F0060FF9D137683460306804F4F8144D
S11321E0DFF8608000F4F810844206D040F6342111
S11321F000F03BF837604D4602E0284600F018FD39
S11322008020FFF72FFD05280ED100F00FFB0446B8
S1132210A54203D240F6452100F027F8FFF7C2FBA0
S113222000F014F800F01AFAA94505D301210020A2
S1132230BDE8F44300F0CDBBBDE8F183014800F0F4
S1132240DDBA000074030000708000500146C1F143
S1132250020120465AE0DFF80815086800F007007C
S1132260401E0328704740F2DC41404600F0C6BAE5
S1132270649000506480005020C0075010B54FF4A3
S11322800011DFF8E4241160DFF8E0440223236046
S11322906168CA03FCD4012820D100F0DBFCDFF81C
S11322A0D014884204D1DFF8CC1445F67A1010E03B
S11322B0DFF8C414884204D1DFF8C01445F61A00CC
S11322C007E000EB8001DFF8B824400A490AB2FBBA
S11322D0F0F0A162E0620120206201E000212162AD
S11322E00020206010BD00004115002028D00050BF
S11322F064A00050008200500081005028C00050AB
S113230028E000508081005010E000E00029CCBF9C
S113231001210021E6E00000F8B50D460446DFF88F
S113232064140868002600F00700062825D8DFE8B2
S113233000F022040E181D09130000F04DFC06469F
S113234005271EE000F048FC0646062719E000F0C9
S113235081FC0646032714E000F07CFC06460427B3
S11323600FE000F07DFC064602270AE000F07CFC4A
S11323700646072705E0012703E040F6E77100F071
S113238089F838E0DFF80024136803F00303012B15
S113239002D0022B01D001E032E053E008B1002268
S11323A0026009B10020086041F21101DFF8B403B2
S11323B000F024BAF8B50D460446DFF8D01300F057
S11323C063F814D8DFE800F01102070C00F042FCB7
S11323D0064603270FE000F04BFC064608270AE0F8
S11323E000F042FC0646072705E0012703E041F21E
S11323F0642100F04FF804B1266005B12F60F1BDEF
S1132400F8B50D460446DFF8881300F03DF814D8FB
S1132410DFE800F01102070C00F0DEFB064605279A
S11324200FE000F017FC064603270AE000F018FC52
S11324300646022705E0012703E041F2AB2100F044
S113244029F8D8E7F8B50D460446DFF8481300F03C
S11324501BF814D8DFE800F01102070C00F00EFCA2
S1132460064609270FE000F003FC064608270AE0A9
S113247000F007FC06460B2705E0012703E041F2C4
S1132480DD2100F007F8B6E70868002600F0030035
S113249003287047DFF8CC02002700F0AFB9000032
S11324A0F8B50D460446DFF8F012FFF7EDFF14D837
S11324B0DFE800F01102070C00F0E0FB06460927F4
S11324C00FE000F0D5FB064608270AE000F0D9FB30
S11324D006460B2705E0012703E041F20F31FFF721
S11324E0D9FF88E7F8B50C4605464FF40031DFF80C
S11324F0AC2211600020FFF760FADFF8A41241F665
S113250071334A694B630B68120C454302F00102B4
S113251023F440134FF440104FF480168F4F002CD7
S113252000D003DDBD422CBF3046002003430B60C6
S11325300AB100204863F1BD04C0015004E0015019
S113254080841E000800015010B50024954900281D
S113255054D03E4A90421FBF934A9042934A9042BD
S11325602AD0934A90423FD0924A904226D0924A2F
S113257090423BD0914A904222D0914A904221D03D
S1132580904A904220D0904A904231D08F4A904253
S11325901CD08F4A90421BD08E4A90421AD08E4A49
S11325A0904219D08D4A904218D08D4A904217D04B
S11325B08C4A904216D01DE00C681FE0CC681DE0E8
S11325C08C691BE0CC6919E00C6A17E08C6A15E091
S11325D0CC6A13E00C6B11E04C6B0FE08C6B0DE0DC
S11325E0CC6B0BE00C6C09E04C6807E00C6905E06F
S11325F04C6A03E041F2E331FFF720FE204610BDB0
S11326007CB504460D460020009077490A6802F024
S11326100302012A02D0022A06D00AE000216846F9
S1132620FFF7EEFE0F260AE000F01AFB00900226E8
S113263005E041F20E414B48002600F0DFF80CB1F2
S11326400098206005B12E6073BD000040420F0069
S11326504348016841F48061016070474FF4C070E1
S113266010B5FFF751FA02246049884238BF0124AB
S113267021464FF42070BDE81040FFF7D9B900009F
S1132680F8B504460D465A480168002601F00301D6
S1132690012904D012D303290BD005D30EE000F096
S11326A0EDFA064609270DE000F0E2FA064608278F
S11326B008E000F0E6FA06460B2703E041F2574132
S11326C0FFF7E8FE97E680B500F0DEFA0021BDE8EA
S11326D0044007E7F8B50D46044646490868002655
S11326E000F0070004281AD8DFE800F01703080DEB
S11326F0120000F0C3FA0646092714E000F0B8FA05
S1132700064608270FE000F0BCFA06460B270AE04D
S113271000F0ACF8860A0E2705E0012703E041F239
S1132720CC41FFF7B7FE66E63EB504460D460020F1
S1132730019031490A68500705D500F097F80C213B
S11327400190009103E0694601A8FFF77BFE0CB1FC
S1132750019820600DB10098286037BD015A6202CB
S113276070800050740300006490005004400250D4
S113277000F04902D8B80500C0175302BBCF0500CA
S113278064666666248100502082005000810050F7
S113279020810050408100506081005068900050BA
S11327A0080003505880E00F80841E0000093D009B
S11327B0404B4C00C0CF6A0080969800405DC60034
S11327C00024F400C0EA2101002D310180BA8C01FB
S11327D00048E80180D54302006CDC02007E560309
S11327E00090D00300B4C4048081005081F0FA0248
S11327F0408200500082005010E000E0FEE700003C
S113280010B54FF48031074A1160074C21688B09D9
S113281003F03F0301F03F0283704270090B017023
S113282010BD00006490005014C0075000F01EB8A2
S11328300A49086800F00700401E03280CD8DFE8A6
S113284000F00902040700F0C7B9054800687047A2
S11328500448704704487047FEE700BF708000508A
S11328608411002080D54302002D310180B5FFF78B
S1132870DFFF05490968C1F30331491CB0FBF1F0DE
S11328800249086002BD00BF708000509011002012
S1132890DFF800F051150020BFF34F8FBFF36F8FA7
S11328A030BF704770B5DFF8D422DFF8D412DFF8F8
S11328B0D44250B94FF40033DFF8CC522B60246873
S11328C0012C08BF0868106070BD106800281CBF88
S11328D02268012AF8D008608020FFF7C3F9DFF8E6
S11328E0AC5205281DD14FF4C070FFF766F80646B8
S11328F0012E04D102214FF4C070FFF799F807208C
S1132900DFF88C12086001222A60E068C107FCD558
S1132910012ED9D101214FF4C070BDE87040FFF7FA
S113292087B80120286070BD0278DFF86832012181
S11329301A7000204DE0DFF860120A68407822F433
S1132940407242EA00220A60704738B504001CBF96
S11329500020FFF7A7FF00F019F800F099F900F044
S1132960BBF9DFF8380201684A0100F016F800F0FC
S1132970B4F90546FFF78CFF284600F0B2F900F0E1
S1132980B5F900F03DFA04B10EE011E0DFF81002F1
S1132990016841F004010160704704D5DFF80402C6
S11329A0DFF80412086070470120BDE8324079E77F
S11329B0BDE8314000F063BA002073E7012071E7FD
S11329C0DFF8E8110A68007922F0300202430A6055
S11329D0704710B50C4608B9FFF72AFF6D4A117805
S11329E029B1744A904202D22146012001E02146D5
S11329F00220BDE810402DE9F04104466E4D286ADE
S1132A00C0F300100028FAD1286AC0F38110A04254
S1132A103AD0FFF70DFF0646654F012C0BD16549EF
S1132A208E4204D340F29D713846FFF7E7FE012140
S1132A303046FFF76BFC00F050F980464FF0007011
S1132A405E490860204600F01CFA4FF48062601E64
S1132A508240EA6007E0286A810604D540F2B57135
S1132A603846FFF7CBFE2868810102D4286A810624
S1132A70F1D5404600F035F9022C05D1304600214D
S1132A80BDE8F041FFF742BCBDE8F0814FF00042E1
S1132A90F8B53D4B1A604A4A01251560494BDD6B78
S1132AA04AF6CD369E630024002105F00105464E0A
S1132AB0464F90B91868C0070BD50122726000E038
S1132AC0491C586AC20701D4B942F9D3B94228BF94
S1132AD007240120306016E0491C586A000701D51C
S1132AE0B942F9D3B9420DD220203062012151609C
S1132AF0002000E0401CD9698A0601D4B842F9D309
S1132B00B84200D307240DB13148986300F0BAF9F4
S1132B102046F2BD38B54FF000411B4A11604AF619
S1132B20CD320123264C2360264CE56BA263417809
S1132B30284A05F00105490041F0010111602268AD
S1132B40C17801B10421837822F0740242EA0312AD
S1132B500A4322600179827942EA0122A260417922
S1132B60C27942EA0122E2600078FFF78FFF0DB1DB
S1132B701748A06300F086F9012032BD74130020C9
S1132B800081005004C001506490005004D00150F2
S1132B9010E0015042150020744000506480005041
S1132BA010ED00E00000FF0F20E403506C400050E3
S1132BB0F0030000015A6202644000506460005057
S1132BC004500950084009500460095040420F0065
S1132BD03254FFFF3C40005001480068704700BF7A
S1132BE08C11002038B5144814490860144803684F
S1132BF04FF40041134A43F4700303601160124C14
S1132C004FF0FF3363654FF6DF71A16502228264E2
S1132C10BFF34F8FBFF36F8F032000F0A4F94FF47D
S1132C2040352560032000F049F90848056031BDAE
S1132C3007490860704700000000000008ED00E04C
S1132C4088ED00E0689000500CA00044108000441F
S1132C508C11002001480068704700BF84110020D7
S1132C6000487047002D31010048704780D5430269
S1132C7001480068704700BF881100204FF40040ED
S1132C8070474FF47A7070470048704700B4C4042A
S1132C9080B50D49087898B10C4800220A70026882
S1132CA0012161F3020202600948016841F0030155
S1132CB001604268032161F30202426000F09EF960
S1132CC001200449086001BD4415002070800050B3
S1132CD02081005074E000507047EFF3108072B60A
S1132CE0704710B962B6BFF36F8F7047704700002A
S1132CF07CB500218DF800106846FFF715FE002012
S1132D0000F05AF8524D2868524C4FF4002100F05C
S1132D1003002061504801604FF40032026000F06B
S1132D206FF94FF4C87000F0D6F9E36C20650246E1
S1132D300A20002100FB0233C8B2491C04EB8006C0
S1132D40C8B272620A28F7DBA078E36408B3296882
S1132D5001F00301012904D028D3032923D01FD370
S1132D6024E0FFF777FF020013D03C4803683C4D92
S1132D70501EC3F30B035B1C03EB83030021E5FB31
S1132D800301002300F0BAF900F0A5F9E169401845
S1132D90E0611F2000F09FF9E1694018E06173BD14
S1132DA0FFF766FFDFE7FFF75FFFDCE7F2212D485F
S1132DB0FFF724FDEDE7000038B5264D29780446D9
S1132DC088421CD02DA210882100ADF8000014BF49
S1132DD0022000208DF801006846FFF7ACFD2000BA
S1132DE006D0402000F077F90146E869401A04E073
S1132DF0402000F070F9E9694018E8612C7031BD99
S1132E0010B50120184A1060124C6178F9B1022003
S1132E1000F0F8F9D8B100F007FAC0B1134801681E
S1132E20CA0302D541688A0711D40068C1070ED4C9
S1132E300120E07000F00AFA20620D4802680321C4
S1132E4061F302020260BDE8104000F0D7B810BD83
S1132E500081005000100020649000500CC001500C
S1132E6040420F00B80D000074D0005058C000500C
S1132E70708000504FF4C87000F02DB9000200F0CB
S1132E80F1B970477047000010B500F0EDF9544AED
S1132E90117871B90123137000F0ECF96FF0040498
S1132EA0052160B200F06AF8641C60B24028F7DBC8
S1132EB010BDBDE8104000F0DDB9000010B50446B7
S1132EC0412C03D340F2351100F01FF8002C07D435
S1132ED0012104F01F008140424A640942F8241091
S1132EE010BD10B50446402C03D34FF4A07100F07C
S1132EF00CF83C49601151F8200004F01F04E04034
S1132F0000F0010080F0010010BD3748FFF776BCE7
S1132F1010B5044604F10C004C2803D34FF4A971F6
S1132F20FFF7F3FFEFF31080C00718D42046FFF734
S1132F30D8FFA0B9204600F044F80446EFF311800E
S1132F4010B1B4EB101F0AD228480068C0F308007F
S1132F50002806D0103800F034F8844201D3012050
S1132F6010BD002010BD002807D4012200F01F016D
S1132F708A401F4B400943F82020704770B504462F
S1132F8004F110020D46184E512A04D340F2E51103
S1132F903046FFF733FC102D04D34FF4F371304661
S1132FA0FFF72CFC60B2290164B2002C02D4114A50
S1132FB0115470BD104B00F00F00181800F8041CD9
S1132FC070BD41B240B2002802D40A48405C05E01A
S1132FD0094801F00F01411811F8040C0009704769
S1132FE04315002000E100E0D00B000004ED00E0F8
S1132FF080E200E000E400E018ED00E000F03FB9FA
S113300030B518480268184902F007024A6100689E
S1133010164A00F4744088611068154A400800F0AC
S113302001008870486903281EBF106A00F003007D
S113303002281EBF506A00F00700022801D10123B4
S113304000E000238D7883F00104254207D01800A6
S113305004D1106800F00300012800D101234B7053
S113306030BD00BF708000500010002018C0015017
S11330700081005038B5FFF730FE04461A4800F0CE
S113308000F91A4D287878B900F0FEF800F002F93A
S11330900020A86100F000F928611548016841F09A
S11330A00101016000F0FEF8FFF722FEFFF7E2FEE7
S11330B06861012028702046FFF713FE002032BD0E
S11330C010B5FFF70AFE044600F0F6F82046BDE806
S11330D01040FFF706BE054B1A690649064B02FB72
S11330E00010B0FBF3F07047F807000068140020EC
S11330F0744000503F420F0040420F00D3BBD9B18F
S1133100B2F5803F5BD2022A1ED98C46B1FBF2F1A4
S113311002FB11C31B0443EA1043B3FBF2FC02FBA2
S11331201C3380B240EA0343B3FBF2F002FB1032DB
S113313040EA0C4000237047022A05D98446B0FBBC
S1133140F2F002FB10C270474AB105D100F001024F
S113315049085FEA3000704700220023704700F0FE
S1133160CDB80B000200002100207047F7D30022E5
S113317000237047904271EB030CF2D370B5B1FA9F
S113318081F4B3FA83F52C1BA340C4F1200532FA71
S113319005F63343A2405FF00046E64002E05B08D8
S11331A05FEA3202841A71EB030524BF20462946E4
S11331B07641F4D302000B003000002170BD70B5DD
S11331C0B1FA81F4B2FA82F5C4F120046419B4F1BD
S11331D02006DAD3B2405FF00044F440002502E058
S11331E052085FEA3303C61A71EB020E24BF30465D
S11331F0714664416D41F3D302000B0020002900A5
S113320070BD000001460020064A1268012905D05D
S1133210022905D1900900F00100704702F0010075
S1133220704700BF1400005838B5074D6C78200073
S113323007D000F00BF8EA689169401A032828BF08
S11332400024204632BD00BFA814002038B500F089
S11332500BF8044600F054F80546204600F00AF83E
S1133260284632BDFFF702BBEFF31180302181F312
S11332701188704780F31188BFF36F8F7047FFF791
S1133280F5BA012100F044B8014800F057B8000035
S1133290A41400207047000001488068704700BFF4
S11332A0A8140020E0B5002000908DF804006846C2
S11332B0FFF786FB07BD000010B50F4CE07901282D
S11332C018D1607A18B100F03DF800206072002037
S11332D000F078F850B100F077F80020E0716078E1
S11332E0012100F09BF80120607010BD0121A17143
S11332F06078607110BD00BF681400207047000042
S1133300024881680A07FCD400687047200000580E
S113331080B50A4670B1006800F03F01C0F3821323
S113332005481BB900F0B6F8002002BD012B08BF08
S1133330001DF7D00E2002BD648000500021016002
S11333407047000038B51C4C6078A0B3E078A0B991
S11333501A480168CA0302D541688A072BD4006859
S1133360C10728D4FFF772FF2062154802680321C1
S113337061F302020260FFF741FEFFF767FF216A73
S11333802279401AE36C04EB8205521C696AD2B2BA
S113339068625B1A0A2192FBF1F1C31803F1090078
S11333A00A25B0FBF5F50A2000FB11222565E3642C
S11333B022710022E27031BD0010002058C000507C
S11333C0708000500120704710B5FFF7F7FA0F49DD
S11333D00F4A0B685069DB0840EAC3030B600D4BCE
S11333E019689068890840EA810119605C68D168AD
S11333F0E40841EAC4045C60507810B10121064835
S11334000160BDE81040FFF7F9BD00BF70800050B7
S1133410001000202081005028E00050F8B5054637
S11334200E460027194C300003D0022E05D002D3DB
S113343005E0012707E0042705E0102703E0B12198
S11334402046FFF7DBF9280003D0022D07D003D371
S113345008E047F0020709E047F0080706E047F0F4
S1133460200703E0C2212046FFF7C8F90848046892
S113347008E062681068384203D052683146284632
S113348090472468002CF4D1F1BD00BF140D000056
S1133490A414002070B50E4605461446202E04D30D
S11334A09121DFF82000FFF7A9F9002C14BF05F5DE
S11334B0805505F50055012000FA06F62E6070BD12
S11334C000207047D806000080B500F00BF80521F5
S11334D00248BDE8044000F0F9B800000000035AB7
S11334E0704700007FB52948FFF7CBFE69460020EE
S11334F00022002381E80D0001218DF801008DF8E0
S1133500051069464FF0B44000F082FA4FF0B4451C
S113351068681F4CC1075CBF0120206068681D4EAD
S1133520C10704D440F282213046FFF767F92846E8
S113353000F0B2FA40F6CD4068620421284600F05B
S1133540BDFA042060631320FFF70DFD1320FFF77D
S1133550B5FC6868C10704D440F2DF113046FFF7B8
S11335604DF9284600F098FA0120A0607FBD80B58F
S113357004214FF0B44000F0A1FA07480168491C47
S11335800160BDE8014000F0ABBA0000FC07000098
S11335900410005A0410000028150020C26C0A42CE
S11335A0FCD1704770B500F06BF802D0702100F0C8
S11335B06FF814B9722100F06BF8207B802802D1D7
S11335C0762100F065F8607B042802DB792100F0A5
S11335D05FF821462846002300224EE0F8B5054650
S11335E0DFF8C0730C46DFF8C063BD4202D08A2105
S11335F000F04EF814B98C2100F04AF8BD420AD10B
S11336003820FEF72FFB0B2818BF082806D00928FE
S113361018BF102802D0A92100F03AF8607B0428D2
S113362002DBAD2100F034F8207B802802D0AF21EA
S113363000F02EF86069B0F1804F02D0B12100F0A3
S113364027F8B4F91000B0F5805F18BFB0F5405FFB
S113365002D0B32100F01CF8A06842F281518842E4
S113366000D210B9B52100F013F82146284601B064
S113367000230022BDE8F040EBE0BDE87040E8E044
S11336800546DFF820230C46DFF81C63954270479B
S11336903046FFF7B3B810B5044600F099F900209E
S11336A0E0600021A16041F202002061E16100209C
S11336B06061A16120626162E0620022A264DFF8BD
S11336C0EC0242F244016050A26210BD38B500F031
S11336D0ACF803D040F2691100F0ACF8280003D133
S11336E02046BDE8324073E1012041F204016050FC
S11336F005F00F00E16C4A05FCD12063E06C10F08A
S1133700780FFBD10020E90748BF0120690748BFB3
S113371040F00200216C01F003018142FAD131BD75
S113372000E00000026C5306FCD5C1637047F8B595
S113373006460C461500DFF8707203D140F22721CB
S113374000F070F8DFF85C22964203D040F22A21A0
S113375000F068F82CB9304600F06FF8FEF7D4F9A1
S113376004467068012803D04FF4177100F05AF82A
S1133770B06810F0E00008D0202825D040282CD0D4
S1133780602835D080283CD045E02109A94203D2E5
S11337904FF4217100F046F8102045436401B4FB56
S11337A0F5F4DFF80C52203CE400AC4203D940F2BB
S11337B0A92100F037F82C40F06CC107FCD4B462A6
S11337C0F06CC107FCD4F1BDE008A84203D240F27A
S11337D0892100F027F80820DFE70620B4FBF0F089
S11337E0A84203D240F28E2100F01CF80620D4E750
S11337F0A008A84203D240F2932100F013F8042059
S1133800CBE705EB4500844203D24FF4267100F068
S113381009F80120C1E7384640F29E21BDE8F44092
S1133820FEF7ECBF3846FEF7E9BF04465D4A0D4695
S1133830944270475C48FEF7E1BF5A4980B588421C
S113384001D1382002BD40F27931FFF7F3FF0020A7
S113385002BDF8B5054614466A680E461AB140F230
S1133860FF71FFF79BFE2846FFF715FF2A69717B5E
S113387050480240B6F90E000A43B6F9101002434C
S11338804D480A432A61AA68317B0240307E0A43CC
S1133890716902430A43AA60B06818B9A86840F085
S11338A00040A860F06941F204016B18002855D06B
S11338B0AA68077A41490A4042EA8752817A87888E
S11338C042EA4142417807F4C0473A43477B42EA1F
S11338D08102817B42EAC702877842EA01123849B1
S11338E042EA8722AA60EF6802690F4041691743E0
S11338F082790F43C17947EA822747EA4127EF607B
S11339000178012918BF032903D1E96841F00401B2
S1133910E9600178022918BF032903D10121294A4A
S1133920116002E0012728490F60427ADA61417A86
S113393019B1E96841F40061E960C17A41B1E9680B
S1133940224A41F40041E960017B01F00F0111605A
S1133950E969C07B890840EA8101E96184B104F125
S11339602001087810B10121596109E06A69887859
S1133970497822F0090202430A4342F001021A6123
S113398001201860B2681AB171682846FFF7CFFEAB
S113399031782846FFF79AFE286CC04310F4405F44
S11339A0FAD1F1BD0000035A6C0400007F370C010A
S11339B0F8FF7F00FCCCFFFF1DFFFFBFE39BBDFFB3
S11339C0FFF9E4FFC0D40350C0E4035080900350D7
S11339D010B504466068C10718D50A222263502135
S11339E02046FFF7DBFD206C10F0030FFBD1A06A2B
S11339F00121A0622046FFF7D1FD00E0606B216C3D
S1133A000A06FBD4012042F20401605010BD0000FC
S1133A1070B504460D461E4EB4F1B44F04D0572180
S1133A2006F18800FEF7EAFE204600F077F800F081
S1133A302BF8A1682A781748014041EA02416878C6
S1133A40AA780143E87841EA82012A7941EA00111F
S1133A50687941EA0231AA7941EA4021E87941EAE8
S1133A6002212A7A41EA8011204641EAC211A1606A
S1133A7000F068F8B4F1B44F05D03046F021BDE849
S1133A807040FEF7BBBE70BD204600F005B80000D4
S1133A90C00A000000ECF0FF10B50446B4F1B44FC6
S1133AA004D040F209110448FEF7A8FE206C40F24D
S1133AB0FD310842FAD110BDC00A000038B50446F1
S1133AC00D46B4F1B44F04D040F259110348FEF747
S1133AD095FE42F23401655031BD00BF0410000070
S1133AE00C4800680A220A21B0FBF2F201FB120022
S1133AF0002800D0704780B5FDF7BCFBAA208DF8E4
S1133B0000000548006800230122694600F059FCC2
S1133B1001BD00BF281500205410002010B5044634
S1133B20B4F1B44F03D0CA210548FEF767FE6068BC
S1133B30C20703D4012041F20401605010BD00BF4C
S1133B40C00A000010B50446B4F1B44F03D0DD211F
S1133B500548FEF753FE6068C20703D5012042F210
S1133B600401605010BD00BFC00A0000006C704723
S1133B7038B50446FFF778FB0546A06B10B9012061
S1133B8000F090FCA06B401CA0632846BDE83240C6
S1133B90FFF770BB80B500218DF800101D30027E48
S1133BA0022A0AD101788DF80210007969468DF84D
S1133BB003000DF1020000F052FD9DF8000002BD6B
S1133BC038B501460022DFF8840600EB820358680A
S1133BD090F821308B4203D0521C042AF3D331BD18
S1133BE038B300F13205E978022922D100F1080442
S1133BF0FFF7D0FF617C2074022904BF28780028D5
S1133C0017D100218DF800102068694600F070FE7D
S1133C10217C09B1697829B100206870206800F01E
S1133C2013FF31BD28B99DF8000010B1206800F0E1
S1133C30FDFE31BD1FB5044604F12201C87C0228F3
S1133C4028D1607EA27F30B98DF80820097802A8B7
S1133C508DF8091012E0012807D18DF806200978A3
S1133C600DF106008DF8071011E0207E48B98DF89B
S1133C70022009780DF102008DF8031000F099FC80
S1133C801EE08DF80420097801A88DF8051000F0D5
S1133C9067FC15E0012813D1207E002807BF1121FD
S1133CA08DF8001013208DF80000204600F052FB20
S1133CB001226946204600F0D5FA204600F065FB53
S1133CC0002004B010BD2DE9F04104460D4616460F
S1133CD0FFF7CAFA8046A088E188884206D300200C
S1133CE0306000F0B5FADFF870051DE02088142775
S1133CF004F108037843142229461818FDF7DCFA66
S1133D00218804F108004F43C11931602088E188FB
S1133D10401C90FBF1F201FB12002080A088401CA3
S1133D20A08000F095FA0020BDE8F08138B5044683
S1133D300D46FFF799FAA18801B923E000F01AF8BB
S1133D406188E288491C91FBF2F302FB1311618044
S1133D50A1884A1EA28009E038B504460D46FFF743
S1133D6083FAA18801B90DE000F004F8FFF782FAA4
S1133D70002032BD628814214A43A11801F10803CE
S1133D802B60704700222A60FFF774FADFF8CC0436
S1133D9032BD10B5044694F8360068B92168042091
S1133DA04861206881698A07FCD522791020DFF8F0
S1133DB0B0145201885010BD02280DD12068FFF7BD
S1133DC0D5FEC0074CBF052106212068FFF77EFC05
S1133DD00220DFF87415086010BDF8B504460D46DE
S1133DE086B004F1310101200870487948BB20688D
S1133DF000F13C06FFF738FA074605A904F13C0038
S1133E0000F032FF48B99DF8140030B104F13C00D1
S1133E1000F048FF204600F06FFF3846FFF72AFA0B
S1133E200120E0652046FFF7A3FE0FF2350000F005
S1133E300DF82B682169A068324600F0D9FD07B05F
S1133E40F0BD0228D3D000220A70F8E700210494C0
S1133E50039002916A68012000900192704700006B
S1133E60FEB5154605F12C06306802A9FFF774FF6C
S1133E700446284600F05CFF0146002001900090B3
S1133E802B46DFF8BC2505F13C0000F06DFFDFF8A0
S1133E90C004844229D0029818B940F2A53100F038
S1133EA050FA02990020086102998860FFF7DCF952
S1133EB007460298C46824B1436802680021284672
S1133EC0A047306802A9FFF731FF3068818839B113
S1133ED002A9FFF741FF02992846FFF77EFF01E0A0
S1133EE0002070713846FFF7C5F90120FEBD10B9F6
S1133EF0DFF85C057047002918BF002A03D040F69C
S1133F000100824202D3DFF84C057047002070475D
S1133F103EB50446E07E04F1210500298DF8060033
S1133F20E07F8DF807001AD0012204210DF106006C
S1133F3000F0E1FA207F012200F02FF8022100F0C6
S1133F40DAFA287D022818BF032824D100F035F8B6
S1133F50012100F0D0FA00F028F8042118E0002232
S1133F600DF1060000F0C7FA207F002200F015F8DA
S1133F70002100F0C0FA287D022818BF03280AD1C6
S1133F8000F01BF8002100F0B6FA00F00EF8002152
S1133F90684600F0B0FA00203EBD8DF8040094F8A5
S1133FA0201001A88DF805107047A07F00228DF81D
S1133FB0000069788DF801107047607F00228DF849
S1133FC0020029780DF102008DF80310704710B536
S1133FD0DFF87822117841B90023141D44F8213008
S1133FE0491C0429FAD3012111700021131D53F82F
S1133FF02140844203D0491C0429F8D301E0002065
S113400010BD0023141D54F8231019B15B1C042B9C
S1134010F9D303E0111D41F82300F0E7DFF8300481
S113402010BD10B58162836A002100241980816A61
S113403000234C80816A8B8000F130010B70C262D6
S1134040C36A00221A80C26A00235480C06A002214
S113405083804A70CA7010BD3EB50446607F002557
S1134060DFF8F4338DF8040094F82110042200F0F2
S1134070E7F80095029102A900F05AFB0221A57607
S1134080257661762046FFF7D5FD37BD38B5044661
S113409000F088FC002104F10800DFF8C05300F0B0
S11340A053FC28B9002104F10C0000F04DFC00B1D0
S11340B0284632BD04463046FFF7DCB870B58EB0F2
S11340C004460D4606A80FF2BC312022FDF7F4F891
S11340D01821684600F070FE14B9DFF87403A9E0F3
S11340E0002D00F08C806421204600F065FE2968D4
S11340F004F1240602202160B074297C2046217139
S1134100FFF765FF0028EAD1287F0121B1637074AD
S1134110AA68DFF85013F263286888426FD1DFF889
S113412048233260DFF8440320614FF48011616159
S11341300020707300213173AA6A696A2046FFF770
S113414070FFDFF81C03FFF79CF830688068FFF706
S113415098F8DFF81C0302220260297BAA7B41EA5B
S113416002410161697BEA7B41EA0241C160287B2B
S1134170E076A97BE177687B2077E97B84F82010DF
S1134180687F6077A97F04F121000170EA7FA2773C
S113419095F8201000F050F800284BD102208DF83B
S11341A02500A868012100220890688AADF828003B
S11341B0A88AADF82600A87D8DF82400A8698DF89A
S11341C006108DF807200B90CDF834D0FFF74CF88B
S11341D00646287F032815D1DFF86C01012202600E
S11341E0E97F95F8202041EA02418160697FAA7F36
S11341F041EA0241416003208DF8000007E0DFF846
S1134200540217E0022804BF2046FFF725FF0620CA
S11342108DF8180029792868002906A902D0FFF72B
S1134220DDF901E0FFF7BEF92046FFF72FFFFFF7A6
S113423041FF20460EB070BD41700121204667E663
S113424001A88DF8051094F8211070472C15002052
S11342504046FFF70FB800000A7000F00B7000F042
S11342601CD603502DE9F041054688461746FFF752
S11342703EFE002863D11520FEF74AFE044605F1F0
S1134280320602E00CB100F0FCFBE96A888810B148
S113429031780029F6D0307970B92868846914F02F
S11342A0020402D12846FFF774FD0120B070307972
S11342B090B1022818D128E0022802D12868046CA1
S11342C0EDE740F6B71100F03CF80024EAE718F8EF
S11342D0011B104600F074FD3846471E2A6800286A
S11342E0F5D190698106FCD544BB3079C8B92A79E7
S11342F010201649520188502968082048611DE0A1
S113430018F8011B1046FFF70BFA3846471E2A68B7
S1134310002842F22001F3D1106C31EA0000FBD1F5
S1134320E2E702280AD12868016CCA074CBF0921B8
S11343300021FFF7CBF902204F4908600020BDE8B7
S1134340F0814E48FEF75ABAC0D403501CE603501D
S11343500B7000F010B5040001D1FFF75FBE94F8B4
S1134360320030B92046FFF715FC10B9A06800F000
S11343705DFB94F83200401C84F83200002010BD2C
S1134380A06A6A4601A9FFF79EBC10B5040001D1DA
S1134390FFF744BE94F8320088B194F83200012843
S11343A006D12046FFF7F6FB10B9A06800F04CFBDD
S11343B094F83200411E84F83210002010BD2D48BC
S11343C010BDF8B586B000F03DF800282DD100F0FE
S11343D02EF804F13105687960B92068806910F01D
S11343E0020002D12046FFF7D4FCE06AFFF7C9FFC0
S11343F050B11AE0022802D12068006CEFE740F6C1
S1134400CB21FFF79EFFEDE7287868B9FEF72CFF74
S1134410E16A0646888828B100992046FFF7DDFC4A
S11344200120E870FFF747FE002007B0F0BD0197B8
S11344300296039604951249059170470000000006
S1134440E963000004460F4616461D46FFF74FBDBC
S1134450027000F0037000F0C13B00000E7000F029
S1134460F80700000000035A1008000001001000C3
S1134470C0C40350057000F0C0E403508C10000069
S1134480017000F0050000000000000000C20100FF
S11344900002000000100000000000000000000006
S11344A00000000038B50446FEF717FC054601215C
S11344B0204600F08BFC2846BDE83240FEF711BCD4
S11344C080B5DFF8FC03FEF7DCFE1920FEF709FDDA
S11344D028B11920FEF747FD1920FEF7EFFC1A203A
S11344E0FEF7FFFC28B11A20FEF73DFD1A20FEF767
S11344F0E5FC002002BDF8B504000D461646DFF8C1
S1134500C47302D1892138460BE105F00F01A94299
S113451002D08C2100F009F9207808B97F2010E03E
S1134520012808BF07200CD002280CBF3F20032815
S113453007D0042818BF052802D0062818BF07286A
S1134540002000F088F802D48D2100F0EEF8FEF788
S11345508BFE074632462946204600F093FCD0E005
S113456010B50400DFF85C0301D1CF2176E1217896
S113457009B97F2111E0012908BF07210DD00229C3
S11345800CBF3F21032908D0042918BF052903D0F3
S113459006291CBF0729082900216278D140C907D0
S11345A05CBFD221FEF72AF9204600F0BDFD0020B1
S11345B010BD38B50400DFF8105305F1840004D1B0
S11345C0DF21FEF71BF9222032BD217809B97F21B2
S11345D011E0012908BF07210DD002290CBF3F219A
S11345E0032908D0042918BF052903D006291CBFB4
S11345F00729082900216278D140C9075CBFE2215C
S1134600FEF7FCF8207808B97F2010E0012808BFE5
S113461007200CD002280CBF3F20032807D0042811
S113462018BF052802D0062818BF0728002000F06C
S113463012F804D440F237212846FEF7DFF830217F
S1134640607824780122DFF884324C4382400020D1
S113465019190A6132BD6178C840C0077047F8B5BE
S11346600400DFF864620D4606F1840018BF002DD3
S113467002D14FF48C7154E0217809B97F2111E003
S1134680012908BF07210DD002290CBF3F210329AE
S113469008D0042918BF052903D006291CBF0729FF
S11346A0082900216278D140C9075CBF40F21B1180
S11346B0FEF7A4F8FEF7D8FD0746207808B97F2056
S11346C010E0012808BF07200CD002280CBF3F20AF
S11346D0032807D0042818BF052802D0062818BFCD
S11346E007280020FFF7B7FF03D440F2572100F05A
S11346F014F800F00BF840696178C84000F001003C
S113470028703846FEF7B6FD0020F2BD227830202E
S1134710DFF8BC114243881870473046FEF76EB884
S11347203046FEF76BF82220F2BD3846FEF766B835
S11347302DE9F84304000D4616461F46DFF8848130
S113474018BF002D06D140F279114046FEF756F805
S1134750222079E0207808B97F2114E0012808BFDD
S1134760072110D0022808BF3F210CD0032808BF1E
S1134770032108D0042818BF052803D006281CBF2D
S11347800728082800216278D140C90706D4FF28E9
S113479004D04FF4BE714046FEF730F8300018BF25
S11347A0012E08D0022E18BF042E04D040F27D1131
S11347B04046FEF723F8FEF757FD80462078FF2891
S11347C005D029683246204600F0ECFB28602868B2
S11347D010F1010F1DD12178FF2932D1DFF8F40047
S11347E00068617840F6FC724FF0FF330A400026FF
S11347F051FA86FC0CF0030C944420FA0CFE5FEA98
S1134800CE791CD5761C5FFA86FCBCF1030FEFDD74
S11348102B60296811F1010F13D00898DFF8B82034
S113482042F8317002EBC10250602078FF2802D0B8
S1134830012200F00BF800F00EF8002004E06346BB
S1134840E6E700F008F82D20BDE8F28302FA01F152
S11348502348016070474046FEF70CBDFDF7CEFFCC
S1134860222010BD10B5044604E00A6812B149685C
S1134870C0B2904794B121460020CA0703D4401C1B
S113488049082028F9D3012181408C43124A02EBC4
S1134890C001102824BF08391038E6E710BD1149BB
S11348A0486809680D4A08400F4905E00D49486801
S11348B009680A4A08400D4908401060D2E7000020
S11348C0F8070000B40800003008000000E00350BE
S11348D000C0035024C403507813002020E4035084
S11348E024D4035020C4035055055505AA0AAA0A26
S11348F010B50F4B1A780AB90E4810BD082800D21B
S113490009B90D4810BD0D4B03EB0014227B0AB905
S11349100B4810BD202807D20A4A1368C34013F07D
S1134920010002D0012000E000200870002010BD2A
S113493040150020028000F0018000F0F4110020F6
S1134940078000F02C00045070B500F026F810B970
S1134950DFF8C80270BD14B9DFF8C40270BDFEF7F9
S113496083FC01460022DFF8BC3215015E19307B5E
S113497018B1521C082AF8D309E0226001203073D0
S113498000225A510846FEF775FC002070BD084607
S1134990FEF770FCDFF8900270BD0446DFF88C125D
S11349A00878704780B50FF2BC200168002200919E
S11349B08DF80020FEF758FC9C4A117819B1FEF7D7
S11349C059FC9B4802BD01211170FEF753FC0020E5
S11349D09449002201EB0013401C08281A73F9DBE8
S11349E008208DF80300684600F0F1FB002002BDAA
S11349F070B588B000F007F80021FFE7002000F050
S1134A0071F808B070BD109C0F9D019307949DF838
S1134A10384006950D9D05949DF83040009200267F
S1134A200B460246049503940296704780B57F4A6C
S1134A30117801B91BE0082800D31AE000F012F83D
S1134A4001B918E0002118E080B5784A117801B95D
S1134A500DE0082800D30CE000F004F801B90AE0E6
S1134A6001210AE06F4A02EB0013197B70476B487F
S1134A7002BD6B4802BD6F4802BD00F08BFB0020F5
S1134A8002BDF8B56C4908684C68044000D5FEE7DF
S1134A900025012634421FD0624901EB0517674BFC
S1134AA01E603868C0B1B8687A683B68401CB8605A
S1134AB0014628469847002804BF797B01290BD179
S1134AC05F4800EB4510C26822F00202C260103059
S1134AD0C16821F00201C1606D1C7600082DD9D394
S1134AE0F1BD00002DE9F04F9B46504C237887B070
S1134AF00BB94A488FE00192082A14D2109C002C6A
S1134B001CBF119D002D0ED0DDF8508040F601022F
S1134B10904508DA8DF80000DDF848A0012808BFA8
S1134B20BAF1000F01D13E4875E00198DFF8F49026
S1134B3009F10C0200010290105C08B93D486AE0DA
S1134B408DF8011003A8102100F036F901983C4EAD
S1134B5006EB40179DF80100139E0028384609D142
S1134B6038A11022FCF7A8FBF6B26EB9386840F001
S1134B70407008E037A11022FCF79EFBF6B21EB984
S1134B80386840F040503860CDF80CB03968A8F16E
S1134B900102159862F30E113960BC607D603968BA
S1134BA0C0B260F39B6139609DF80000169C012837
S1134BB019D11321F96007F1100039461022FCF7CE
S1134BC07BFB07F11000017B01F0030161F00F0191
S1134BD0C160C7F814A09DF8010001280BD1BD6184
S1134BE0C7F804A007E0200001BF9DF800000028DA
S1134BF021F4801139600299179849440C60486087
S1134C00002088609DF800204A7301983A4603A961
S1134C1000F023FB002007B0BDE8F08F028000F015
S1134C20018000F0F4110020048000F04015002001
S1134C30038000F0078000F050000450502004501E
S1134C40741200200000103000000000000000007A
S1134C50000000000000100300000000000000003D
S1134C60000000001E00000338B504000D4618BF04
S1134C70002D01D1222032BD00202870FEF7F4FA65
S1134C800749C9682A7800E0896819B112B9A142B4
S1134C90FAD101222A70FEF7EDFA002032BD00BFDE
S1134CA0A814002070B5044600250CB9222070BD5C
S1134CB0FEF713F8064600F053FB0E48C168A14204
S1134CC008BF0125204600F065FB040004D03046EF
S1134CD0FEF707F8204670BD35B100F079FB2228B5
S1134CE004BF022000F092FB3046FDF7FAFF0020DB
S1134CF070BD00BFA814002038B50546A86B002875
S1134D0003DCA3210948FDF779FDFEF7ADFA04465B
S1134D10A86B401EA863A86B10B9012000F090FB9B
S1134D202046BDE83240FEF7A5BA00BF8C10000053
S1134D3038B590F8361000240025002914BF022944
S1134D40046E2CB940F245310648FDF757FD06E0E4
S1134D50FEF7A2FA24214843B0FBF4F56D1C284663
S1134D6032BD00BF8C100000F8B5044684B00020AA
S1134D700D4616461F468DF80C000CB9222018E08B
S1134D80A083E08303A92046FFF76EFF9DF80C0083
S1134D90012808BF03200CD0BDF82C009DF8281072
S1134DA0029000970191334600222946204600F0E4
S1134DB055FB05B0F0BD0000002200F087BB0000E9
S1134DC082695306FCD5C16370470000B0B5044640
S1134DD00D46224F200001D0022C04DD4FF4D57182
S1134DE03846FDF70BFD022C36D01D4CA078FF2869
S1134DF006D1012D07D14FF4D9713846FDF7FEFCD9
S1134E00A078FF2802D1012D08D1B0BD30B9280007
S1134E1006D140F2B7113846FDF7F0FCA07808B986
S1134E20280019D0002D14BF0120FF20A1784018BC
S1134E30A070012D10D1607802280DDB00F060FB1A
S1134E4005460228B8BF00F063FB6078A84203D08F
S1134E502946FEF7E3FA6570B0BD00BF740C00008C
S1134E606814002070B504460D461646FDF735FF5C
S1134E702168A94335400D432560BDE87040FDF726
S1134E8030BF00002DE9F041044620780D46164657
S1134E90002708B97F2014E0012808BF072010D09C
S1134EA002280CBF3F2003280BD0042818BF052874
S1134EB006D0062818BF072802D0082818BF0928DA
S1134EC000206178DFF82C82C840C20702D45D213B
S1134ED000F027F9DFF82022106810B1602100F0FB
S1134EE020F90F2D27D8DFE805F029080A0C0E1049
S1134EF0121416181A1C1E202224012720E002274F
S1134F001EE003271CE004271AE0052718E0062703
S1134F1016E0072714E0082712E0092710E00A2703
S1134F200EE00B270CE00C270AE00D2708E00E2703
S1134F3006E00F2704E0B42100F0F3F8280007D0BE
S1134F403000204602D000F0EFF801E000F00CFB46
S1134F5022783020DFF8A41142438B1861780F20A7
S1134F60082903DA00F017F8181D04E0083900F0E6
S1134F7012F803F10C00FFF775FF55B9002E204617
S1134F8003D0BDE8F04100F0CFB8BDE8F04100F037
S1134F90EBBABDE8F081890007FA01F200FA01F1E9
S1134FA0704700002DE9F843054628780C469146E1
S1134FB008B97F2011E0012808BF07200DD002287E
S1134FC00CBF3F20032808D0042818BF052803D0AD
S1134FD006281CBF0728082800206978454FC840C8
S1134FE0C20703D44FF49C7100F098F85FEA0900FB
S1134FF018BFB9F1010F09D0B9F1020F18BFB9F107
S1135000040F03D040F2391100F088F83A480068E0
S113501018B14FF49D7100F081F8DFF8E48014F1C9
S1135020010F0DD0002C24D46978A00880008908D1
S1135030B0EB810F1FD04FF49F7100F06FF81AE0AE
S1135040D8F81000697840F6FC724FF0FF340A403B
S1135050002351FA83F707F00307BF1820FA07F675
S1135060F60717D55B1CDFB2032FF2DD14F1010F35
S113507036D0002C34D403272A78082C0CDAA60066
S1135080B740B24039461F48FFF7ECFE00F02BF85A
S11350901D480DE03C46E9E7A4F108008600B7404E
S11350A0B24039461948FFF7DDFE00F01CF81848F5
S11350B0FFF7D8FE174819F0050F14BF012200228C
S11350C0214600F087FA19F0060F14BF01220022CE
S11350D02146404600F07EFA0120A0400E490860B7
S11350E02046BDE8F2836878394600F0030000FAF0
S11350F006F27047B809000010C3035000C0035003
S113510014C4035000C4035008C4035004C403501F
S11351100CC4035010C4035020E403503846FDF778
S11351206DBB4046FDF76ABB38B50400174D04D18A
S11351304FF4D8712846FDF761FB207808B97F2029
S113514010E0012808BF07200CD002280CBF3F2024
S1135150032807D0042818BF052802D0062818BF42
S1135160072800206178C840C00704D440F2B31176
S11351702846FDF743FB3021607824780122044B54
S11351804C43824019190A6131BD00BF3008000048
S113519000D00350F8B505460E46674F082D04DBD2
S11351A0772107F17C00FDF729FB741EA441E40F6D
S11351B0202D03D391213846FDF720FB002C14BF8A
S11351C05E485F48012101FA05F50560F1BD38B577
S11351D00400594D02D1912100F03BF821786FF081
S11351E0F85010EA016F02D0932100F032F8E07811
S11351F0102802DB952100F02CF801212020FCF777
S113520067F801212120FCF763F84A480121016075
S11352102278120642606178A27842EA0142FF21B4
S113522042614162002242630021C1634FF00042A7
S113523002654FF0FF30434908601520FDF793FEE7
S1135240E1781520FDF79AFE1520BDE83240FDF700
S113525035BE05F17C00FDF7D1BA2DE9F0410746D2
S11352600125BD400C469046334E082F02DBDE215B
S113527000F05CF814B9DF2100F058F820683249D6
S1135280084202D0E22100F051F8A07A6FF44031D4
S113529011EA004F02D0E82100F048F8E07A6FF4F8
S11352A0801111EA005F02D0EA2100F03FF8207B70
S11352B06FF4001111EA405F02D0EC2100F036F8DF
S11352C0224EB56320682249224A41F82700302043
S11352D04743637BD0198360E27AA17A120542EADC
S11352E00142217B42EA41524FEA98014FEA810888
S11352F04260C0F81880FDF7B7FF174AD563217ADA
S113530001B19562617A01B115622179A37943EA09
S1135310014333606179E37943EA01430F49136040
S1135320F5610D60BDE8F041FDF7A4BF06F17C0016
S1135330FDF764BA040004506405000040100450F2
S11353404020045050200450F0FFC0FF18200450A7
S113535000400450580004501810045048000450F1
S113536010B5FDF7CDFF0A4BD9681A69821A08E017
S11353704C69944239BF121B0024A41A00224C61C8
S11353808968002918BF002AF2D1186110BD00BF36
S1135390A81400200D4B0022D96818B922207047A8
S11353A00A46896839B18142FAD18168002A14BF5A
S11353B09160D96001E002207047816819B14A699F
S11353C0406982184A610020704700BFA814002079
S11353D010B50D49C868A0B1446944B109690220F7
S11353E0641800F00FF9204600F01AF905E00220D5
S11353F000F008F9022000F047F900F04DF9002010
S113540010BD222010BD00BFA81400200021C20737
S113541048BF0121820709D50120064A10700648B9
S1135420036841F040019B089B000360034801604E
S1135430704700BF941100203C0000581820005809
S113544038B50446FDF749FC054600212046FFF720
S1135450BDFC2846BDE83240FDF743BC70B50646A6
S113546005980D461446049A06993071326000205E
S1135470B0603461F360F1801CB9FDF741FF281876
S113548002E0FDF73DFF2018B06145B9F268002045
S1135490706112B131683046904794B12546FDF7EA
S11354A01CFC0446FFF75CFF2946304600F00CF96B
S11354B00548C168B14208BFFFF78AFF2046FDF7DF
S11354C010FC002070BD00BFA814002000B500BF70
S11354D0130096469446103928BFA0E80C50FAD819
S11354E05FEA417C28BF0CC048BF40F8042BC907C1
S11354F028BF20F8022B48BF00F8012B00BD000094
S1135500024A9178022001B10120704768140020FA
S113551038B5FDF7E2FB0446124DE87901281BD1AA
S1135520A87A10B90121A972A871687A18B1FDF797
S113553009FF002068722046FDF7D3FB0120FDF728
S113554041FFFDF7CAFB0446A87A18B1FDF73CFFFA
S11355500020A8720021E9712046BDE83240FDF721
S1135560C0BB00BF6814002038B50400174D04D137
S11355704FF40D712846FDF741F9207808B97F20D2
S113558010E0012808BF07200CD002280CBF3F20E0
S1135590032807D0042818BF052802D0062818BFFE
S11355A0072800206178C840C00704D440F237219E
S11355B02846FDF723F93021607824780122044B32
S11355C04C43824019190A6131BD00BF34090000FF
S11355D000E0035070B50E4605461446202E03D352
S11355E074210748FDF70AF9002C14BF05F580550E
S11355F005F50055012000FA06F62E6070BD00BFC7
S11356003C0A00000021C20748BF0121800748BFAF
S113561041F0400101480160704700BF1810005874
S1135620F8B50546FDF759FB0646FDF769FE074642
S113563000F07EF8124C2168490604D4C11B0329EA
S113564001D8B8420FD1E81B032838BFFD1C4FF026
S1135650FF30B5FBF0F0A0EB40002D1A6D1EE562A3
S11356600220FFF7CFFF3046FDF73BFB05490878E2
S113567028B1A06A002240F00200A0620A70F1BDC5
S11356801400005894110020820702D540200149DB
S113569008607047141000580A49C86800220023A3
S11356A04B70002800D1704710B583799C0706D44D
S11356B0806830B143699A18022AF6D310BD0120DC
S11356C0487010BDA8140020F8B50546E8880E46B9
S11356D030B900F033F886423CBF0646FDF7F0FCD3
S11356E0124FFB686E61E3B10024184641698E4293
S11356F007D231B1721A0AD1027995F804C0624511
S113570005D2761A6E61044680680028EED1002C1A
S113571014BFA5602B46010005D04269961B466163
S113572001E02B460021A960FB60F1BDA814002014
S113573001480068704700BF4000005870B5FDF78D
S1135740CCFA044608484178012904DC2046FDF7D8
S1135750C8FA002070BD856900F008F806462046A6
S1135760FDF7BFFA701970BD68140020044A51781F
S1135770002011B1106D00EBD000D16908187047FA
S1135780001000203F49086800281CBF486A002810
S1135790F9D1704780B5FFF7F5FF02203A49086058
S11357A001BD38B504460D46032C03D34C213748BC
S11357B0FDF724F829786878EA782B7941EA8001A2
S11357C041EA42110C22624341EA031130488150FC
S11357D02978012903D1A8782E4941F8240031BD44
S11357E010B50146274C206808B908001ED022686D
S11357F02AB1206800281CBF606A0028F9D151B181
S11358000121254A1160206800281CBF606A002815
S1135810F9D1A16010BDFFF7BDFF206800281CBFAF
S1135820606A0028F9D101211C48016010BD10B53F
S1135830144B1A6801462AB1186800281CBF586A1C
S11358400028F9D10122154802604A7802B10122E8
S1135850887808B142F00202C87808B142F0040224
S113586008794C7942EA001242EAC4025A600122E1
S1135870094C22600878002814BF01200220986097
S113588010BD0000040000580C0000585C06000025
S113589030000058E88003500410005804200058D9
S11358A010B52F48FCF750FC2E48FDF7EAFC20B158
S11358B04FF4EB712C48FCF7A1FF00202B4CFCF7B4
S11358C0DDFCFCF74BFA2168022060F30201216041
S11358D00020FCF755FA206820F4744040F48060FE
S11358E0206023480168090E11F0010103D0036808
S11358F023F08073036000221E4B1A6019B1016803
S113590041F0807101601C480268012161F30102C9
S11359100260426861F302024260026E61F30102B6
S11359200266026A61F301020262026C61F301021F
S113593002641248026C61F301020264026861F3BA
S113594002020260026A61F301020262FCF736FAA3
S11359500B48016841F004010160002010BD00BF44
S113596000B4C40400080000540700007080005014
S1135970FCED00E080900050208100500082005037
S113598010E000E0E0B500BF04A1D1E900236846BF
S1135990CDE90023FDF7BEF800200EBD010304018C
S11359A0010109030A4800680002000E012800D022
S11359B0704710B5074801684FF48020064C2060FA
S11359C00422064B1A6049035CBF054A106010BDEF
S11359D00080E00F6480005064900050202001504B
S11359E064A0005070B5FDF73FFC0446114D2878C3
S11359F0D8B90021E9602861696000F041F801200C
S1135A00FFF700FE00F0A0F8A860020004D12046D1
S1135A10FDF730FC232070BD074840F2E731002336
S1135A20FDF76CFB012668612E702046FDF722FC11
S1135A30002070BDA814002018FCFFFFF8B5044630
S1135A40384D05F18006B4F5004F03D3AD2130463F
S1135A50FCF7D4FE641CB4FA84F7C7F11F07202FA7
S1135A6004D34FF4CF712846FCF7C8FE0120B84098
S1135A70844203D0B4213046FCF7C0FE3846F2BD60
S1135A801FB500BF2CA2D2E9000100BF2CA4D4E9A9
S1135A900023CDE900012448CDE90223FDF7F1FB01
S1135AA000218DF800100020FFF7C8FF8DF80400D6
S1135AB06846FFF7BCFE00208DF8080002A901200B
S1135AC0FFF76FFE194840F2FF314160016018484A
S1135AD081680A07FCD4002101600120FFF780FEE1
S1135AE00C20FDF740FA0C20FDF7E8F91FBD38B58E
S1135AF0FDF7BAFB05460F4800680024C10748BFFC
S1135B000124410648BF44F0020400F05100074953
S1135B100860204600F028F82846BDE83240FDF72A
S1135B20A9BB0000F00E0000040800001420005877
S1135B302000005814000058010000000500000077
S1135B40020000030000000080B5064800F052F88F
S1135B50694600F051F80020FFF770FF01460098F5
S1135B60C84002BD24080000F8B50546204CE807EB
S1135B7006D56168491C6160FFF7F2FBFFF728FC5A
S1135B80A80733D50025002714E04169D1B9074699
S1135B90416939B901793A79914238BF0746806839
S1135BA00028F5D13046FDF765FB384600F02AF8A9
S1135BB0FF886D1CFDF758FB0646FFF7D1FBE06834
S1135BC00028E2D10020A070012D03D1B80744BF02
S1135BD00121A170FFF7FCFB222804BF0220FFF77C
S1135BE015FC3046BDE8F240FDF744BBF1BD00BFF3
S1135BF0A814002000797047002918BF00F05CB891
S1135C00222070472DE9F041064630690024002522
S1135C10A04670B10446FDF773FBB169451AEF174E
S1135C20474506DB01DCA54203D330694118B16165
S1135C3036E0FDF719FB07463046FFF7ABFB384665
S1135C40FDF718FB306958B3641B68EBE578012253
S1135C500023984507DC01DB944204D240F27C61C6
S1135C601448FCF7CBFDB08B60B1F18B401881B2C6
S1135C70B1F57A7F05DBB169A0F57A70641E491E1F
S1135C80B161F083FDF7F0FA054621463046FFF78F
S1135C901BFDB16930694118B1612846FDF7EAFA84
S1135CA0F26822B131683046BDE8F0411047BDE8E2
S1135CB0F08100BF600E0000F8B504460D46FDF704
S1135CC0D3FA00260746F4B1012C1FD0032C20D0B0
S1135CD0042C21D0052C22D0072C23D0082C24D02E
S1135CE0092C25D00C2C26D00D2C27D00F2C28D0F5
