S00F0000627473656E736F722E73333775
S113000000100020CDCA0000F5CA0000F5CA0000A7
S1130010F5CA0000F5CA0000F5CA0000F5CA0000E0
S1130020F5CA0000F5CA0000F5CA0000F5CA0000D0
S1130030F5CA0000F5CA0000F5CA0000F5CA0000C0
S1130040F5CA0000F5CA0000F5CA0000F5CA0000B0
S1130050F5CA0000F5CA0000A19F0000F5CA00001F
S1130060F5CA0000F5CA0000F5CA0000F5CA000090
S11300704B840000F5CA0000F5CA0000F5CA000070
S1130080F5CA0000F5CA0000F5CA00004FCE000012
S1130090F5CA000021850000F5CA0000F5CA000079
S11300A0F5CA0000D1810000C381000001AE000048
S11300B005AE0000F5CA0000F5CA0000F5CA00004C
S11300C0F5CA0000F5CA0000F5CA0000F5CA000030
S11300D0F5CA0000F5CA0000F5CA0000F5CA000020
S11300E0F5CA0000F5CA0000F5CA0000F5CA000010
S11300F0F5CA0000F5CA0000F5CA0000F5CA000000
S1130100F5CA0000F5CA0000F5CA0000F5CA0000EF
S1130110F5CA0000F5CA0000F5CA0000F5CA0000DF
S1130120F5CA0000F5CA0000F5CA0000F5CA0000CF
S1130130F5CA0000F5CA0000F5C90000F1C90000C5
S1130140401E00D0FCE770470000020000000000E1
S113015000000000BA0400000000000000000200DB
S11301600000000000000000BA04000000000000CD
S1130170A0BB0D00C07A1000001F408240420F0057
S1130180C07A100020D613003A1F41A200000000DC
S113019020D61300905817003A1F42A20000000016
S11301A09058170040771B003A9F43B600000000A8
S11301B040771B0070CE2000001F408180841E0009
S11301C070CE200040AC27003A1F41A1000000007F
S11301D040AC2700108A2E003A1F42A10000000004
S11301E0108A2E0080EE36003A9F43B500000000CE
S11301F080EE3600E09C4100001F408000093D0075
S1130200E09C410080584F003A1F41A000000000CC
S113021080584F0020145D003A1F42A000000000E7
S113022020145D00C0047700009F43B4C0CF6A006F
S1130230C0047700408995003A9F44B40000000050
S113024040899500C00DB4003A9F45B400000000F9
S1130250C00DB40000BADB00009F66B4405DC60068
S113026000BADB0080730601009F67B40024F40029
S11302708073060120992C01009F68A8C0EA21011F
S113028020992C01C0286B013A9F89B80000000016
S1130290C0286B0160EDB501009F8AB880BA8C015B
S11302A060EDB50180011302009FABB80048E8017E
S11302B08001130280138D02009FCCA880D54302D5
S11302C080138D02805A1303009FEDAC006CDC0296
S11302D0805A130320289B03009FEEBC007E560324
S11302E020289B03C0C95304009FEFBC0090D00397
S11302F0C0C9530400B4C404009FF0CC00B4C404C7
S1130300433A5C55736572735C4A756E79694875D6
S1130310616E675C53696D706C6963697479537459
S11303207564696F5C76365F776F726B7370616347
S1130330655C627473656E736F725C73696D706C07
S113034069636974795F73646B5F323032362E3659
S11303502E305C706C6174666F726D5F636F726572
S11303605C706C6174666F726D5C656D6C69625C07
S1130370696E635C656D5F6275732E6800000000D2
S1130380433A5C55736572735C4A756E7969487556
S1130390616E675C53696D706C69636974795374D9
S11303A07564696F5C76365F776F726B73706163C7
S11303B0655C627473656E736F725C73696D706C87
S11303C069636974795F73646B5F323032362E36D9
S11303D02E305C706C6174666F726D5F636F7265F2
S11303E05C706C6174666F726D5C656D6C69625C87
S11303F07372635C656D5F636D752E63000000004E
S1130400433A5C55736572735C4A756E79694875D5
S1130410616E675C53696D706C6963697479537458
S11304207564696F5C76365F776F726B7370616346
S1130430655C627473656E736F725C73696D706C06
S113044069636974795F73646B5F323032362E3658
S11304502E305C706C6174666F726D5F636F726571
S11304605C706C6174666F726D5C656D6C69625C06
S11304707372635C656D5F656D752E6300000000CB
S1130480433A5C55736572735C4A756E7969487555
S1130490616E675C53696D706C69636974795374D8
S11304A07564696F5C76365F776F726B73706163C6
S11304B0655C627473656E736F725C73696D706C86
S11304C069636974795F73646B5F323032362E36D8
S11304D02E305C706C6174666F726D5F636F7265F1
S11304E05C706C6174666F726D5C656D6C69625C86
S11304F07372635C656D5F6575736172742E6300FE
S1130500433A5C55736572735C4A756E79694875D4
S1130510616E675C53696D706C6963697479537457
S11305207564696F5C76365F776F726B7370616345
S1130530655C627473656E736F725C73696D706C05
S113054069636974795F73646B5F323032362E3657
S11305502E305C706C6174666F726D5F636F726570
S11305605C706C6174666F726D5C656D6C69625C05
S1130570696E635C656D5F6275732E6800000000D0
S1130580433A5C55736572735C4A756E7969487554
S1130590616E675C53696D706C69636974795374D7
S11305A07564696F5C76365F776F726B73706163C5
S11305B0655C627473656E736F725C73696D706C85
S11305C069636974795F73646B5F323032362E36D7
S11305D02E305C706C6174666F726D5F636F7265F0
S11305E05C706C6174666F726D5C656D6C69625C85
S11305F0696E635C656D5F6770696F2E68000000EB
S1130600433A5C55736572735C4A756E79694875D3
S1130610616E675C53696D706C6963697479537456
S11306207564696F5C76365F776F726B7370616344
S1130630655C627473656E736F725C73696D706C04
S113064069636974795F73646B5F323032362E3656
S11306502E305C706C6174666F726D5F636F72656F
S11306605C706C6174666F726D5C656D6C69625C04
S11306707372635C656D5F6770696F2E6300000061
S1130680433A5C55736572735C4A756E7969487553
S1130690616E675C53696D706C69636974795374D6
S11306A07564696F5C76365F776F726B73706163C4
S11306B0655C627473656E736F725C73696D706C84
S11306C069636974795F73646B5F323032362E36D6
S11306D02E305C706C6174666F726D5F636F7265EF
S11306E05C706C6174666F726D5C656D6C69625C84
S11306F07372635C656D5F696164632E63000000FF
S1130700433A5C55736572735C4A756E79694875D2
S1130710616E675C53696D706C6963697479537455
S11307207564696F5C76365F776F726B7370616343
S1130730655C627473656E736F725C73696D706C03
S113074069636974795F73646B5F323032362E3655
S11307502E305C706C6174666F726D5F636F72656E
S11307605C706C6174666F726D5C656D6C69625C03
S11307707372635C656D5F6D73632E6300000000CC
S1130780433A5C55736572735C4A756E7969487552
S1130790616E675C53696D706C69636974795374D5
S11307A07564696F5C76365F776F726B73706163C3
S11307B0655C627473656E736F725C73696D706C83
S11307C069636974795F73646B5F323032362E36D5
S11307D02E305C706C6174666F726D5F636F7265EE
S11307E05C706C6174666F726D5C656D6C69625C83
S11307F07372635C656D5F727463632E63000000E3
S1130800433A5C55736572735C4A756E79694875D1
S1130810616E675C53696D706C6963697479537454
S11308207564696F5C76365F776F726B7370616342
S1130830655C627473656E736F725C73696D706C02
S113084069636974795F73646B5F323032362E3654
S11308502E305C706C6174666F726D5F636F72656D
S11308605C706C6174666F726D5C656D6C69625C02
S11308707372635C656D5F75736172742E630000DF
S11308808DD3000097D300009BD30000BDD300009C
S11308901BD40000BFD30000F3D300002C000000E1
S11308A0433A5C55736572735C4A756E7969487531
S11308B0616E675C53696D706C69636974795374B4
S11308C07564696F5C76365F776F726B73706163A2
S11308D0655C627473656E736F725C73696D706C62
S11308E069636974795F73646B5F323032362E36B4
S11308F02E305C706C6174666F726D5F636F7265CD
S11309005C706C6174666F726D5C656D6C69625C61
S1130910696E635C656D5F6275732E68000000002C
S1130920433A5C55736572735C4A756E79694875B0
S1130930616E675C53696D706C6963697479537433
S11309407564696F5C76365F776F726B7370616321
S1130950655C627473656E736F725C73696D706CE1
S113096069636974795F73646B5F323032362E3633
S11309702E305C706C6174666F726D5F636F72654C
S11309805C706C6174666F726D5C736572766963BA
S1130990655C636C6F636B5F6D616E616765725CF0
S11309A07372635C736C5F636C6F636B5F6D616EBA
S11309B0616765725F696E69745F68616C5F7332E9
S11309C02E630000180000001A0000000E00000052
S11309D00F00000000000000010000000C000000F7
S11309E0150000001E0000000800000009000000BF
S11309F000000100010001000000060001000600E3
S1130A0000000700010007000000040001000400CA
S1130A1002000400030004000400040000000500B8
S1130A2001000500020005000300050004000500A4
S1130A3000001000010010000000035A1400000020
S1130A40C4090000300A0000340A00000000015A02
S1130A5004000000CC090000F8090000FC090000B3
S1130A600080065003000000D0090000000A0000C6
S1130A70040A00000040045003000000D8090000EC
S1130A80F0090000F4090000000000581200000002
S1130A90E409000000C0055003000000E80900005C
S1130AA0080A00000C0A0000100A0000140A0000E2
S1130AB0180A00000000065003000000EC090000C2
S1130AC01C0A0000200A0000240A0000280A000072
S1130AD02C0A00000000045001000000D4090000AA
S1130AE0000000000000000008080000433A5C55C4
S1130AF0736572735C4A756E79694875616E675C7B
S1130B0053696D706C696369747953747564696F42
S1130B105C76365F776F726B73706163655C627469
S1130B2073656E736F725C73696D706C69636974FD
S1130B30795F73646B5F323032362E362E305C70E0
S1130B406C6174666F726D5F636F72655C706C610B
S1130B5074666F726D5C7065726970686572616CE1
S1130B605C696E635C736C5F68616C5F6C646D611F
S1130B702E680000433A5C55736572735C4A756E67
S1130B8079694875616E675C53696D706C696369F6
S1130B90747953747564696F5C76365F776F726BC2
S1130BA073706163655C627473656E736F725C739A
S1130BB0696D706C69636974795F73646B5F3230FB
S1130BC032362E362E305C706C6174666F726D5FD7
S1130BD0636F72655C706C6174666F726D5C647275
S1130BE0697665725C646D615F6368616E6E656C85
S1130BF05C7372635C736C5F646D615F6368616E88
S1130C006E656C2E63000000433A5C557365727325
S1130C105C4A756E79694875616E675C53696D707D
S1130C206C696369747953747564696F5C76365F53
S1130C30776F726B73706163655C627473656E73F6
S1130C406F725C73696D706C69636974795F7364E6
S1130C506B5F323032362E362E305C706C617466C7
S1130C606F726D5F636F72655C706C6174666F72D6
S1130C706D5C6472697665725C646D615F63686102
S1130C806E6E656C5C7372635C736C5F646D615FE4
S1130C9064657363726970746F725F616C6C6F63A7
S1130CA061746F722E630000433A5C55736572730E
S1130CB05C4A756E79694875616E675C53696D70DD
S1130CC06C696369747953747564696F5C76365FB3
S1130CD0776F726B73706163655C627473656E7356
S1130CE06F725C73696D706C69636974795F736446
S1130CF06B5F323032362E362E305C706C61746627
S1130D006F726D5F636F72655C706C6174666F7235
S1130D106D5C736572766963655C646D615F6D615A
S1130D206E616765725C7372635C736C5F646D6142
S1130D305F6D616E616765722E630000433A5C55B6
S1130D40736572735C4A756E79694875616E675C28
S1130D5053696D706C696369747953747564696FF0
S1130D605C76365F776F726B73706163655C627417
S1130D7073656E736F725C73696D706C69636974AB
S1130D80795F73646B5F323032362E362E305C708E
S1130D906C6174666F726D5F636F72655C706C61B9
S1130DA074666F726D5C7065726970686572616C8F
S1130DB05C696E635C736C5F68616C5F6770696FBC
S1130DC02E680000433A5C55736572735C4A756E15
S1130DD079694875616E675C53696D706C696369A4
S1130DE0747953747564696F5C76365F776F726B70
S1130DF073706163655C627473656E736F725C7348
S1130E00696D706C69636974795F73646B5F3230A8
S1130E1032362E362E305C706C6174666F726D5F84
S1130E20636F72655C706C6174666F726D5C647222
S1130E30697665725C6770696F5C7372635C736C0E
S1130E405F6770696F2E6300433A5C557365727314
S1130E505C4A756E79694875616E675C53696D703B
S1130E606C696369747953747564696F5C76365F11
S1130E70776F726B73706163655C627473656E73B4
S1130E806F725C73696D706C69636974795F7364A4
S1130E906B5F323032362E362E305C706C61746685
S1130EA06F726D5F636F72655C706C6174666F7294
S1130EB06D5C7065726970686572616C5C696E63A3
S1130EC05C736C5F68616C5F6770696F2E680000AB
S1130ED0433A5C55736572735C4A756E79694875FB
S1130EE0616E675C53696D706C696369747953747E
S1130EF07564696F5C76365F776F726B737061636C
S1130F00655C627473656E736F725C73696D706C2B
S1130F1069636974795F73646B5F323032362E367D
S1130F202E305C706C6174666F726D5F636F726596
S1130F305C706C6174666F726D5C70657269706808
S1130F406572616C5C7372635C736C5F68616C5F27
S1130F506770696F2E630000433A5C557365727362
S1130F605C4A756E79694875616E675C53696D702A
S1130F706C696369747953747564696F5C76365F00
S1130F80776F726B73706163655C627473656E73A3
S1130F906F725C73696D706C69636974795F736493
S1130FA06B5F323032362E362E305C706C61746674
S1130FB06F726D5F636F72655C706C6174666F7283
S1130FC06D5C7065726970686572616C5C696E6392
S1130FD05C736C5F68616C5F6932632E680000004B
S1130FE0433A5C55736572735C4A756E79694875EA
S1130FF0616E675C53696D706C696369747953746D
S11310007564696F5C76365F776F726B737061635A
S1131010655C627473656E736F725C73696D706C1A
S113102069636974795F73646B5F323032362E366C
S11310302E305C706C6174666F726D5F636F726585
S11310405C706C6174666F726D5C706572697068F7
S11310506572616C5C7372635C736C5F68616C5F16
S11310606932632E63000000433A5C557365727302
S11310705C4A756E79694875616E675C53696D7019
S11310806C696369747953747564696F5C76365FEF
S1131090776F726B73706163655C627473656E7392
S11310A06F725C73696D706C69636974795F736482
S11310B06B5F323032362E362E305C706C61746663
S11310C06F726D5F636F72655C706C6174666F7272
S11310D06D5C7065726970686572616C5C696E6381
S11310E05C736C5F68616C5F6C646D612E6800009A
S11310F0433A5C55736572735C4A756E79694875D9
S1131100616E675C53696D706C696369747953745B
S11311107564696F5C76365F776F726B7370616349
S1131120655C627473656E736F725C73696D706C09
S113113069636974795F73646B5F323032362E365B
S11311402E305C706C6174666F726D5F636F726574
S11311505C706C6174666F726D5C706572697068E6
S11311606572616C5C7372635C736C5F68616C5F05
S11311706C646D612E630000433A5C557365727351
S11311805C4A756E79694875616E675C53696D7008
S11311906C696369747953747564696F5C76365FDE
S11311A0776F726B73706163655C627473656E7381
S11311B06F725C73696D706C69636974795F736471
S11311C06B5F323032362E362E305C706C61746652
S11311D06F726D5F636F72655C706C6174666F7261
S11311E06D5C7065726970686572616C5C696E6370
S11311F05C736C5F68616C5F6C6574696D65722E9D
S113120068000000433A5C55736572735C4A756EFE
S113121079694875616E675C53696D706C6963695F
S1131220747953747564696F5C76365F776F726B2B
S113123073706163655C627473656E736F725C7303
S1131240696D706C69636974795F73646B5F323064
S113125032362E362E305C706C6174666F726D5F40
S1131260636F72655C706C6174666F726D5C7065DF
S1131270726970686572616C5C7372635C736C5FD5
S113128068616C5F6C6574696D65722E6300000043
S1131290433A5C55736572735C4A756E7969487537
S11312A0616E675C53696D706C69636974795374BA
S11312B07564696F5C76365F776F726B73706163A8
S11312C0655C627473656E736F725C73696D706C68
S11312D069636974795F73646B5F323032362E36BA
S11312E02E305C706C6174666F726D5F636F7265D3
S11312F05C706C6174666F726D5C70657269706845
S11313006572616C5C696E635C736C5F68616C5F71
S11313106932632E68000000433A5C55736572734A
S11313205C4A756E79694875616E675C53696D7066
S11313306C696369747953747564696F5C76365F3C
S1131340776F726B73706163655C627473656E73DF
S11313506F725C73696D706C69636974795F7364CF
S11313606B5F323032362E362E305C706C617466B0
S11313706F726D5F636F72655C706C6174666F72BF
S11313806D5C7065726970686572616C5C696E63CE
S11313905C736C5F68616C5F6770696F2E680000D6
S11313A0433A5C55736572735C4A756E7969487526
S11313B0616E675C53696D706C69636974795374A9
S11313C07564696F5C76365F776F726B7370616397
S11313D0655C627473656E736F725C73696D706C57
S11313E069636974795F73646B5F323032362E36A9
S11313F02E305C706C6174666F726D5F636F7265C2
S11314005C706C6174666F726D5C6472697665722F
S11314105C69326373706D5C7372635C736C5F6977
S1131420326373706D2E6300433A5C557365727357
S11314305C4A756E79694875616E675C53696D7055
S11314406C696369747953747564696F5C76365F2B
S1131450776F726B73706163655C627473656E73CE
S11314606F725C73696D706C69636974795F7364BE
S11314706B5F323032362E362E305C706C6174669F
S11314806F726D5F636F72655C706C6174666F72AE
S11314906D5C736572766963655C696E746572729E
S11314A07570745F6D616E616765725C7372635CA5
S11314B0736C5F696E746572727570745F6D616E62
S11314C0616765725F636F727465786D2E63000087
S11314D0433A5C55736572735C4A756E79694875F5
S11314E0616E675C53696D706C6963697479537478
S11314F07564696F5C76365F776F726B7370616366
S1131500655C627473656E736F725C73696D706C25
S113151069636974795F73646B5F323032362E3677
S11315202E305C706C6174666F726D5F636F726590
S11315305C706C6174666F726D5C736572766963FE
S1131540655C696F73747265616D5C7372635C73FF
S11315506C5F696F73747265616D5F646D616472F1
S1131560762E63004BD4000051D4000057D4000001
S11315705DD4000063D4000069D400006FD400007F
S113158075D40000433A5C55736572735C4A756E9A
S113159079694875616E675C53696D706C696369DC
S11315A0747953747564696F5C76365F776F726BA8
S11315B073706163655C627473656E736F725C7380
S11315C0696D706C69636974795F73646B5F3230E1
S11315D032362E362E305C706C6174666F726D5FBD
S11315E0636F72655C706C6174666F726D5C736559
S11315F072766963655C696F73747265616D5C733F
S113160072635C736C5F696F73747265616D5F653F
S113161075736172742E6300696E73743000000018
S113162000000000000000000000000000000000B6
S113163000000000000000000000000000000000A6
S113164000000000000000004C1C002020000000EE
S1131650000101000000000078100020433A5C55AE
S1131660736572735C4A756E79694875616E675CFF
S113167053696D706C696369747953747564696FC7
S11316805C76365F776F726B73706163655C6274EE
S113169073656E736F725C6175746F67656E5C738E
S11316A06C5F696F73747265616D5F696E69745F95
S11316B06575736172745F696E7374616E6365736B
S11316C02E630000433A5C55736572735C4A756E11
S11316D079694875616E675C53696D706C6963699B
S11316E0747953747564696F5C76365F776F726B67
S11316F073706163655C627473656E736F725C733F
S1131700696D706C69636974795F73646B5F32309F
S113171032362E362E305C706C6174666F726D5F7B
S1131720636F72655C706C6174666F726D5C736517
S113173072766963655C696F73747265616D5C73FD
S113174072635C736C5F696F73747265616D5F75EE
S11317506172742E63000000433A5C5573657273C2
S11317605C4A756E79694875616E675C53696D7022
S11317706C696369747953747564696F5C76365FF8
S1131780776F726B73706163655C627473656E739B
S11317906F725C73696D706C69636974795F73648B
S11317A06B5F323032362E362E305C706C6174666C
S11317B06F726D5F636F72655C706C6174666F727B
S11317C06D5C736572766963655C6D656D6F727966
S11317D05F6D616E616765725C7372635C736C5F8D
S11317E06D656D6F72795F6D616E616765722E6391
S11317F000000000433A5C55736572735C4A756E71
S113180079694875616E675C53696D706C69636969
S1131810747953747564696F5C76365F776F726B35
S113182073706163655C627473656E736F725C730D
S1131830696D706C69636974795F73646B5F32306E
S113184032362E362E305C706C6174666F726D5F4A
S1131850636F72655C706C6174666F726D5C7365E6
S113186072766963655C706F7765725F6D616E61D6
S11318706765725C7372635C736C6565705F6C6FD3
S11318806F705C736C5F706F7765725F6D616E61B2
S11318906765722E63000000433A5C55736572738A
S11318A05C4A756E79694875616E675C53696D70E1
S11318B06C696369747953747564696F5C76365FB7
S11318C0776F726B73706163655C627473656E735A
S11318D06F725C73696D706C69636974795F73644A
S11318E06B5F323032362E362E305C706C6174662B
S11318F06F726D5F636F72655C706C6174666F723A
S11319006D5C736572766963655C706F7765725F31
S11319106D616E616765725C7372635C636F6D6D3C
S11319206F6E5C736C5F706F7765725F6D616E6113
S11319306765725F636F6D6D6F6E2E6300000000EC
S1131940433A5C55736572735C4A756E7969487580
S1131950616E675C53696D706C6963697479537403
S11319607564696F5C76365F776F726B73706163F1
S1131970655C627473656E736F725C73696D706CB1
S113198069636974795F73646B5F323032362E3603
S11319902E305C706C6174666F726D5F636F72651C
S11319A05C706C6174666F726D5C7365727669638A
S11319B0655C706F7765725F6D616E616765725C9F
S11319C07372635C736C6565705F6C6F6F705C736E
S11319D06C5F706F7765725F6D616E616765725F72
S11319E068616C5F73322E6300000000433A5C55FB
S11319F0736572735C4A756E79694875616E675C6C
S1131A0053696D706C696369747953747564696F33
S1131A105C76365F776F726B73706163655C62745A
S1131A2073656E736F725C73696D706C69636974EE
S1131A30795F73646B5F323032362E362E305C70D1
S1131A406C6174666F726D5F636F72655C706C61FC
S1131A5074666F726D5C736572766963655C736CD2
S1131A6065657074696D65725C7372635C736C5FD9
S1131A70736C65657074696D65722E630000000097
S1131A80433A5C55736572735C4A756E796948753F
S1131A90616E675C53696D706C69636974795374C2
S1131AA07564696F5C76365F776F726B73706163B0
S1131AB0655C627473656E736F725C73696D706C70
S1131AC069636974795F73646B5F323032362E36C2
S1131AD02E305C706C6174666F726D5F636F7265DB
S1131AE05C706C6174666F726D5C636F6D6D6F6E4C
S1131AF05C696E635C736C5F636F6D6D6F6E2E6893
S1131B0000000000433A5C55736572735C4A756E5D
S1131B1079694875616E675C53696D706C69636956
S1131B20747953747564696F5C76365F776F726B22
S1131B3073706163655C627473656E736F725C73FA
S1131B40696D706C69636974795F73646B5F32305B
S1131B5032362E362E305C706C6174666F726D5F37
S1131B60636F72655C706C6174666F726D5C7365D3
S1131B7072766963655C736C65657074696D6572B2
S1131B805C7372635C736C695F736C6565707469B4
S1131B906D65725F68616C2E68000000433A5C55A5
S1131BA0736572735C4A756E79694875616E675CBA
S1131BB053696D706C696369747953747564696F82
S1131BC05C76365F776F726B73706163655C6274A9
S1131BD073656E736F725C73696D706C696369743D
S1131BE0795F73646B5F323032362E362E305C7020
S1131BF06C6174666F726D5F636F72655C706C614B
S1131C0074666F726D5C636F6D6D6F6E5C7372631F
S1131C105C736C5F736C6973742E6300433A5C5538
S1131C20736572735C4A756E79694875616E675C39
S1131C3053696D706C696369747953747564696F01
S1131C405C76365F776F726B73706163655C627428
S1131C5073656E736F725C73696D706C69636974BC
S1131C60795F73646B5F323032362E362E305C709F
S1131C706C6174666F726D5F636F72655C706C61CA
S1131C8074666F726D5C736572766963655C7564A6
S1131C90656C61795C7372635C736C5F7564656CAD
S1131CA061792E6300000000433A5C5573657273DA
S1131CB05C4A756E79694875616E675C53696D70CD
S1131CC06C696369747953747564696F5C76365FA3
S1131CD0776F726B73706163655C627473656E7346
S1131CE06F725C73696D706C69636974795F736436
S1131CF06B5F323032362E362E305C706C61746617
S1131D006F726D5F636F72655C706C6174666F7225
S1131D106D5C736572766963655C6D656D6F727910
S1131D205F6D616E616765725C7372635C736C692D
S1131D305F6D656D6F72795F6D616E616765725F0E
S1131D40636F6D6D6F6E2E6300000000433A5C5547
S1131D50736572735C4A756E79694875616E675C08
S1131D6053696D706C696369747953747564696FD0
S1131D705C76365F776F726B73706163655C6274F7
S1131D8073656E736F725C73696D706C696369748B
S1131D90795F73646B5F323032362E362E305C706E
S1131DA06C6174666F726D5F636F72655C706C6199
S1131DB074666F726D5C656D6472765C7370696471
S1131DC072765C7372635C7370696472762E6300FE
S1131DD0433A5C55736572735C4A756E79694875EC
S1131DE0616E675C53696D706C696369747953746F
S1131DF07564696F5C76365F776F726B737061635D
S1131E00655C627473656E736F725C73696D706C1C
S1131E1069636974795F73646B5F323032362E366E
S1131E202E305C706C6174666F726D5F636F726587
S1131E305C706C6174666F726D5C706572697068F9
S1131E406572616C5C696E635C736C5F68616C5F26
S1131E506C6574696D65722E6800000078B591B088
S1131E60002104AC21606160A16007A859492822BF
S1131E7000F0C8F80FF284125EA61168D6E9004596
S1131E802A200191CDE90245012100F0C7F8524C06
S1131E90204600F0EDFA02214FF4B06000F030FE6D
S1131EA000208DF8130000224C49204600F06AFB04
S1131EB08DF8150003219DF815008DF81F1040F6CC
S1131EC0C4120A9202218DF81E10002200908DF88F
S1131ED02C2000234249204600F07EFB04210022EE
S1131EE08DF81D108DF80A208DF80D200122832114
S1131EF009908DF808208DF805108DF8042007AAA4
S1131F0004A9204600F0C4F801AA02A9204600F062
S1131F102EFA3448016841F4803101600268324984
S1131F2042F0010202604FF4007008600122E26096
S1131F30012012B070BD0000F8B500BF30A63068B3
S1131F400024254D0090832101228DF801108DF885
S1131F5000200AE03268E1B200290092F3D0842024
S1131F6001218DF801008DF800106946284600F023
S1131F7043FA4FF400701E4908600122EA60686A5F
S1131F808005FCD5686A19490A7880050AD5E86F86
S1131F9001EB8403586528206043081800EB82078E
S1131FA0586D7860012C07D1521C0A2392FBF3F37D
S1131FB00A2000FB13220A70641C012CCADDF1BD47
S1131FC080B5FFF74BFFFFF7B7FF0348BDE80240BA
S1131FD000F04EBA480100000040005A002D3101C3
S1131FE08096980020C303502850005AC011002046
S1131FF02460005A000003000000000001000000FB
S1132000010000004AB1000011F8013B521E00F823
S1132010013B1CBF11F8013BF8E77047F8B50546D2
S113202000260C464009124F06D14FF45C7107F5A7
S1132030047001F071FA07E0012808BF0D4E03D0C7
S113204002280CBF0C4E0D4E05F01F051F2D04D9A0
S1132050912107F5C87001F05FFA002C14BF06F552
S1132060805606F50056012000FA05F53560F1BDED
S1132070700100006480005068800050608200504D
S11320804169CB01FCD4012142F204028150704722
S11320902DE9F84F14462DED028B8346DFF8982581
S11320A084B00E46934502D0EC2100F0D5F9DFF858
S11320B08C7500223946584600F064FA80467079DF
S11320C04045A8BF80465846FFF7DAFF317908003B
S11320D00AD100F07BFAB84228BFB0FBF8F0014601
S11320E0584600F02AFA0146F078090401F4FE018A
S11320F0000100F0300001434FEA087000F0E040B6
S11321000143307808B141F00201707808B141F020
S11321100401B07808B141F00801CBF80810F08848
S1132120DFF81C75CBF8100031897089002640EA6D
S11321300140CBF8200002948DF804800FE040F2B7
S1132140F11100F089F905E0C0F3110040EA0A0A30
S1132150C8F850A0C9F30909C8F85490761CDFF8F0
S1132160D80483450CBF02200020864280F0F5800D
S1132170142102987143441894F800A02589BAF1F7
S1132180000F0CBFDFF8BC14DFF8BC149DF804008A
S1132190534600220090584600F01EFAA84238BF69
S11321A028460BEB06188146D8F8480061786AF394
S11321B0010061F38400A17861F30E30E17861F3EA
S11321C01240217C61F35750217961F31D70C8F8E6
S11321D04800D8F84800C0F30230411E04290BD847
S11321E0DFE801F00A0A030507003D6802E07D68A4
S11321F003E07D682D0C00E03D68BAF1000F9ED12C
S11322009FED930A032802D1F86800140BE0042818
S113221003D1F8680014400005E0052807D1F868E8
S1132220001400EB400000EE100AB8EEC00AA9B298
S113223049F6FF7008404FEA804A000448BF4AF05C
S1132240004AD8F848100120C1F38201491C884093
S113225000EE900AF8EEE08A022808D1F86800B28D
S113226000EE900AF8EEE00A30EE808A15E0386954
S1132270F6EE000A68EEA00A00B201EE100AB86891
S1132280B8EEC11A31EE400A00B201EE900AC0EE77
S1132290200AF8EEE11A30EEA18AE07870B900F075
S11322A0EBF900EE100AB8EE400ADFED6A0A80EEA0
S11322B0200AB7EE041A81EE001A0BE094ED030A2B
S11322C0B8EE400ADFED630AC0EE200AB7EE041A46
S11322D081EE201A21EE080AF1EE001ADFED600A01
S11322E020EE210AC0EEA80A9FED5E1A00EE810AD4
S11322F0BAF1004F0BD09FED5C1A00EE905A30EE0D
S1132300011AFBEE600A9FED590A00EE810AF1EE14
S1132310400AF5EE400AF1EE10FA08D5FEEE000A86
S113232030EEC00ABDEEC00A10EE100A07E0B6EEA9
S1132330001A31EE401ABDEEC11A11EE100AB0F5C2
S1132340003FA8BFDFF80403BFF600AF10F5003F5D
S1132350BFF6FAAE4AF4003AFAE6012041F204016B
S11323604BF8010004B0BDEC028BBDE8F18F70B5F1
S1132370164600F066F803D04FF4197100F06CF8BB
S11323802046FFF77DFE6878002814BF082100214D
S113239000F023F82167E16AA879002814BF4FF4FC
S11323A0803200222B79DFF8A802014068791B02F1
S11323B003F4E0630003194300F480500143114324
S11323C0E1623146204600F017F8012141F204028F
S11323D0A150E87900B1E16070BDE87808B14FF42C
S11323E080702A78AB7802F0070211431B0103F0D6
S11323F0300319430143704738B500F022F803D085
S11324004FF4277100F028F8012241F204036168B7
S1132410E250E87801F0010108B14FF400302A7865
S11324206B78AD7842EA03222D0405F480352A4303
S11324301043C4F8980019B92046BDE832401FE69D
S113244031BD04467C4A0D469442704700000000AA
S11324500000000000007A447E4801F05DB80000EE
S1132460000080430000204400000049000000C92F
S113247038B50446704A944203D040F21931FFF74C
S1132480EBFF012141F204002150734AE2607349D9
S113249060690842FCD10022A261002004F1840199
S11324A04861606910F4401FFBD16069C10501D423
S11324B0A06F10B1606FF8E70968606904F18401E6
S11324C08205F9D448680028F6D1E06F896820466F
S11324D0FFF7D6FD0020A06000212161E0622162A7
S11324E0302020673021C4F88010002152485C4D10
S11324F008E004EB011242F26003491C9364156581
S11325000023536584420CBF022200229142F0D37F
S1132510002105E0002204EB8103C3F8A020491C3C
S113252084420CBF102200229142F3D342F22400D1
S113253020184C490160416031BD10B53E4A0C463B
S1132540904203D040F26F31FFF786FF7CB900F070
S11325503DF8040008BF012409D04348844206D34F
S113256042490868C0F30270401CB4FBF0F44048D0
S113257004194049B4FBF1F0401E7F2828BF7F2096
S1132580C0B210BD70B515462B4A0C46314E904270
S113259003D040F2AA3100F01CF824B940F2AB3168
S11325A000F017F803E02548844228BF044615B913
S11325B000F00CF8054665196D1EB5FBF4F018B172
S11325C0401E042828BF0320C0B270BD2A2000F09A
S11325D029B9304600F0A0BFF8B51546164A0C4696
S11325E01E461C4F904204D04FF47971384600F0D7
S11325F093FF24B940F2E531384600F08DFF002EF8
S11326000CBF10481048A04238BF044615B9FFF764
S1132610DDFF05460698C0B2401CB5FBF0F020185B
S1132620401EB0FBF4F028B1401E40F2FF31884256
S113263028BF084680B2F2BD0040005A005A620228
S11326408081E00F80969800404B4C00FFFF010012
S1132650FFE8FEFF800600001200020052000100A5
S113266000C002808F330F80015A62020840005A72
S11326703F420F0040420F0038B50446684600252B
S113268000F068FF042C10D8DFE804F003060F09FB
S11326900C0040F2BA450CE040F2E24509E040F695
S11326A0B83506E04FF4166503E040F29141FFF7B8
S11326B0D3FE284632BD40F8701F012101737047D4
S11326C0DFF89C170868C0F300100028FAD10868E6
S11326D0C0F38110704710B50024DFF88428DFF8B8
S11326E08418002818BFB0F5C07F09D0B0F5007F6A
S11326F023D0B0F5207F24D0B0F5607F0FD023E045
S11327000868C0F30334002C18BF012C1CD0032C20
S11327101CBF072C0F2C17D04FF4277109E0086950
S1132720C0F30114002C1CBF012C032C0CD04FF45B
S11327302B71104600F0F0FE06E0086AC0F3046452
S113274002E00868C0F38024601C10BD38B502465E
S11327504C1EDFF80C08DFF80C58002A18BFB2F53D
S1132760C07F09D0B2F5007F3AD0B2F5207F45D0C2
S1132770B2F5607F23D04FE0012918BF022909D0A8
S1132780042918BF082905D010291CBF4FF43C7137
S113279000F0C2FE00F025FE00F0E8FD286820F4F9
S11327A0704040EA04302860FFF78AFF044600F0D6
S11327B0F1FEC4F10204214600F036FC88E101294F
S11327C018BF022905D004291CBF4FF4487100F03A
S11327D0A3FE286920F0300040EA0410286131BDCE
S11327E009B1212903D340F2363100F095FE286A5D
S11327F020F0F85040EA0460286231BD01291EBF70
S113280002294FF44F7100F087FE286820F480609D
S113281040EA8420286031BD40F25331BDE83440A1
S113282000F07ABE1CB500210091002855D0203854
S113283053D0401E5AD0801E58D0401E032871D950
S1132840001F012852D9801E78D0401E54D0401E4B
S11328507CD0401E34D0401E4ED0401E022845D9A4
S1132860093867D0401E61D0401E02283ED9C01EE0
S113287078D0401E72D0401E38D00E382DD0801E25
S113288002282AD9C01E4DD00E38012825D9203857
S113289020D0803856D080381FD0803820D080385F
S11328A024D0803828D0803831D080383AD080384D
S11328B03CD080383ED0803840D0803846D08038F4
S11328C048D080384AD080384CD04FF48072801A77
S11328D04CD04FE000F060FE22E000F07BFE1FE0F1
S11328E000F05AFE04464FF4007015E000F072FE4A
S11328F004464FF420700FE000F06CFE04464FF4E1
S11329002070FFF7E8FEB4FBF0F0400808E000F0A8
S113291043FE04464FF46070FFF7DDFEB4FBF0F0B5
S113292000902BE0684600F0F9FB27E0684600F0D1
S113293081FB23E0684600F0B3FB1FE0684600F02B
S1132940EDFC1BE0684600F07DFD17E0684600F0F2
S113295007FC13E0684600F04BFD0FE0684600F00A
S11329601DFD0BE0684600F029FC07E0684600F016
S1132970AFFB03E040F2F74100F0EEFA009816BD19
S113298080B5002124380091DFF8D425032841D9EB
S1132990801F3AD0801E46D0401E53D00B385AD0E8
S11329A0401F45D0401E5BD0143833D02E3818D089
S11329B0803834D04FF44073C01A2BD080383CD0C8
S11329C0803848D0803820D080382CD0803839D016
S11329D0803845D080382BD080382ED0803836D0FF
S11329E043E000F0C6FA0DD8DFE800F0090204065F
S11329F0052102E0032203E0072100913AE00222CC
S1132A00009237E040F2295131E06946002000F09D
S1132A1085FC2FE06946002000F080FB2AE069462F
S1132A2000F010FD26E06946002000F099FB21E04B
S1132A306946002000F0C2FB1CE06946002000F05B
S1132A40F9FA17E06946002000F0D2FC12E069466A
S1132A5000F03EFB0EE06946002000F021FB09E097
S1132A606946002000F09AFC04E040F2F15110465F
S1132A7000F052FD009802BD80B50121022000F053
S1132A806EFE4FF42070FFF726FEDFF8781508700D
S1132A9000F0A7FCBDE8014000F068BC38B504466E
S1132AA0FFF70EFE054600F075FDC5F10205294647
S1132AB000F0BAFA0121002000F03FFE04B107E063
S1132AC0DFF8400501784FF42070BDE834403DE65E
S1132AD0BDE8314000F050BCDFF8B40401684FF4A5
S1132AE08030DFF8A8241060DFF8A82413685B089E
S1132AF05B001360C9035CBFDFF8102510607047EA
S1132B002DE9F84302460D4600260024243ADFF856
S1132B105004DFF87814DFF87894DFF8F484DFF8F1
S1132B20F474032A40F28E80921F1AD0921E1AD097
S1132B30521E1BD00B3A11D0521F1DD0521E18D05A
S1132B40143A07D02E3A20D0803A00F091804FF406
S1132B504073D21A76D0803A11D0803A00F0458181
S1132B60803A5CD0803A00F0B480803A00F004816E
S1132B70803A00F05081803A00F0C580803A00F03D
S1132B80DC80803A00F019815DE1022D19D0032D1B
S1132B9006D0052D02D0072D11D014E0022616E030
S1132BA04FF400220A60DFF870341C680120DFF85B
S1132BB0581464080326086004F0010407E004269E
S1132BC005E0012603E040F2B56100F0A5FC012117
S1132BD0022000F0C4FD00F004FC00F0C7FBD9F8AB
S1132BE00C00C00846EAC006C9F80C60FFF768FD8F
S1132BF0064600F0CFFCC6F10206314600F014FA96
S1132C000121002000F099FD00F0B6FB002C08BF64
S1132C10032D03D10120DFF80414086019E1022D0B
S1132C2007D00F2D0EBF012640F2FF6100F074FCA7
S1132C3000E00226DFF8E8030168890846EA810615
S1132C40066006E1012D0ED0022D0BD0032D07D016
S1132C50052D0EBF012640F23E7100F05DFC02E03E
S1132C60022600E00326386A00F0F5F83E62F0E040
S1132C70DFF8B023DFF89433DFF818434FF48036DD
S1132C80082D1CBF092D0B2D03D00C2D0FD0102D9A
S1132C901CD1D9F800000E602168C00341F0010185
S1132CA0216058BF1E60116821F004010CE0D9F8BE
S1132CB000000E602168490849002160C00358BF24
S1132CC01E60116841F004011160C2E040F26671B7
S1132CD0BBE0012D12D0082D08D0092D18BF0A2DF4
S1132CE002D00B2D04D005E0012607E0022605E002
S1132CF0032603E040F2867100F00EFC386C00F00D
S1132D00AAF83E64A5E0012D12D0082D08D0092DA3
S1132D1018BF0A2D02D00B2D04D005E0012607E0D0
S1132D20022605E0032603E04FF4F56100F0F4FB0E
S1132D30386E00F090F83E668BE06D1E062D11D8BB
S1132D40DFE805F01408060E040C0A0001260DE065
S1132D5002260BE0032609E0042607E0052605E029
S1132D60062603E040F2D17100F0D6FB786AC00871
S1132D7046EAC0067E626CE0012D16D0082D0AD00A
S1132D80092D18BF0A2D04D00B2D06D00E2D06D008
S1132D9007E0012609E0022607E0032605E00426F1
S1132DA003E040F2F57100F0B7FBD8F80000C0086A
S1132DB046EAC006C8F800604BE0012D10D0032D90
S1132DC004D0072D06D0082D02D005E0012607E027
S1132DD0022605E0032603E040F6350100F09CFBE3
S1132DE0386800F038F83E6033E0012D0CD00F2D28
S1132DF002D0102D02D003E0012605E0022603E0F4
S1132E0040F6960100F088FBD8F8200000F023F883
S1132E10C8F820601DE0083D032D09D8DFE805F05F
S1132E2004020206012607E0022605E0032603E069
S1132E3040F61E1100F070FBD8F8400000F00BF8CB
S1132E40C8F8406005E040F62221BDE8F44300F0F4
S1132E5063BBBDE8F183800846EA80067047000042
S1132E60844000502DE9F843054600F0FBF90400C6
S1132E7018BF14F1010F03D140F6A62100F06CF83D
S1132E804FF4C020DFF804110860DFF8C8030268BB
S1132E90012A07D10121DFF8C0231160416911F033
S1132EA0030FFBD18020FFF76BFD052803D100F051
S1132EB098FA00F05BFADFF8B01424F040748D4205
S1132EC006D0DFF898138D4208BF44F0807401E007
S1132ED044F0007400F046FD8146A94503D2012167
S1132EE0284600F02AFCDFF87863706810F0060FBB
S1132EF0F9D137683460306804F4F814DFF860807E
S1132F0000F4F810844206D040F6F12100F03BF8BA
S1132F1037604D4602E0284600F050FD8020FFF760
S1132F202FFD05280ED100F035FB0446A54203D23F
S1132F3040F6023100F027F8FFF7C2FB00F014F866
S1132F4000F01AFAA94505D301210020BDE8F44395
S1132F5000F0F3BBBDE8F183014800F0DDBA0000E6
S1132F6080030000708000500146C1F10201204638
S1132F705AE0DFF80815086800F00700401E03282F
S1132F80704740F22951404600F0C6BA64900050A0
S1132F906480005020C0075010B54FF40011DFF8D2
S1132FA0E4241160DFF8E044022323606168CA036B
S1132FB0FCD4012820D100F013FDDFF8D01488429E
S1132FC004D1DFF8CC1445F67A1010E0DFF8C4140D
S1132FD0884204D1DFF8C01445F61A0007E000EB7C
S1132FE08001DFF8B824400A490AB2FBF0F0A1627C
S1132FF0E0620120206201E00021216200202060C3
S113300010BD0000EC1D002028D0005064A000502A
S1133010008200500081005028C0005028E0005079
S11330208081005010E000E00029CCBF0121002184
S1133030E6E00000F8B50D460446DFF864140868BD
S1133040002600F00700062825D8DFE800F0220457
S11330500E181D09130000F085FC064605271EE026
S113306000F080FC0646062719E000F0B9FC06468D
S1133070032714E000F0B4FC064604270FE000F038
S1133080B5FC064602270AE000F0B4FC0646072712
S113309005E0012703E041F2BA0100F089F838E0C5
S11330A0DFF80024136803F00303012B02D0022B82
S11330B001D001E032E053E008B10022026009B11E
S11330C00020086041F2E401DFF8B40300F024BA00
S11330D0F8B50D460446DFF8D01300F063F814D8B1
S11330E0DFE800F01102070C00F07AFC0646032723
S11330F00FE000F083FC064608270AE000F07AFCA3
S11331000646072705E0012703E041F2373100F0C6
S11331104FF804B1266005B12F60F1BDF8B50D4636
S11331200446DFF8881300F03DF814D8DFE800F017
S11331301102070C00F016FC064605270FE000F00C
S11331404FFC064603270AE000F050FC064602271F
S113315005E0012703E041F27E3100F029F8D8E7C9
S1133160F8B50D460446DFF8481300F01BF814D8F0
S1133170DFE800F01102070C00F046FC06460927C0
S11331800FE000F03BFC064608270AE000F03FFC95
S113319006460B2705E0012703E041F2B03100F0B9
S11331A007F8B6E70868002600F003000328704714
S11331B0DFF8CC02002700F0AFB90000F8B50D46E7
S11331C00446DFF8F012FFF7EDFF14D8DFE800F053
S11331D01102070C00F018FC064609270FE000F066
S11331E00DFC064608270AE000F011FC06460B27F2
S11331F005E0012703E041F2E231FFF7D9FF88E758
S1133200F8B50C4605464FF40031DFF8AC221160E6
S11332100020FFF760FADFF8A41241F671334A691F
S11332204B630B68120C454302F0010223F4401374
S11332304FF440104FF480168F4F002C00D003DD64
S1133240BD422CBF3046002003430B600AB100206E
S11332504863F1BD04C0015004E0015080841E00A5
S11332600800015010B500249549002854D03E4A66
S113327090421FBF934A9042934A90422AD0934A65
S113328090423FD0924A904226D0924A90423BD0FC
S1133290914A904222D0914A904221D0904A904241
S11332A020D0904A904231D08F4A90421CD08F4A0D
S11332B090421BD08E4A90421AD08E4A904219D026
S11332C08D4A904218D08D4A904217D08C4A904231
S11332D016D01DE00C681FE0CC681DE08C691BE073
S11332E0CC6919E00C6A17E08C6A15E0CC6A13E02B
S11332F00C6B11E04C6B0FE08C6B0DE0CC6B0BE0B6
S11333000C6C09E04C6807E00C6905E04C6A03E0CA
S113331041F2B841FFF720FE204610BD7CB50446BB
S11333200D460020009077490A6802F00302012A42
S113333002D0022A06D00AE000216846FFF7EEFE1A
S11333400F260AE000F052FB0090022605E041F24D
S1133350E3414B48002600F0DFF80CB100982060F0
S113336005B12E6073BD000040420F004348016860
S113337041F48061016070474FF4C07010B5FFF7ED
S113338051FA02246049884238BF012421464FF48F
S11333902070BDE81040FFF7D9B90000F8B5044625
S11333A00D465A480168002601F00301012904D0A2
S11333B012D303290BD005D30EE000F025FB0646FB
S11333C009270DE000F01AFB0646082708E000F084
S11333D01EFB06460B2703E041F22C51FFF7E8FEE3
S11333E097E680B500F016FB0021BDE8044007E72E
S11333F0F8B50D46044646490868002600F0070063
S113340004281AD8DFE800F01703080D120000F0B2
S1133410FBFA0646092714E000F0F0FA06460827EE
S11334200FE000F0F4FA06460B270AE000F0D2F8A9
S1133430860A0E2705E0012703E041F2A151FFF7B8
S1133440B7FE66E63EB504460D46002001903149BC
S11334500A68500705D500F0BDF80C2101900091D1
S113346003E0694601A8FFF77BFE0CB101982060D8
S11334700DB10098286037BD015A62027080005077
S113348080030000649000500440025000F04902A0
S1133490D8B80500C0175302BBCF05006466666642
S11334A0248100502082005000810050208100506F
S11334B04081005060810050689000500800035023
S11334C05880E00F80841E0000093D00404B4C00F2
S11334D0C0CF6A0080969800405DC6000024F400C6
S11334E0C0EA2101002D310180BA8C010048E801B5
S11334F080D54302006CDC02007E56030090D003AA
S113350000B4C4048081005081F0FA02408200506B
S11335100082005010E000E0FEE730B501688468E6
S11335204218416802EB5103C90703D54C4401E03A
S1133530491C08D19A4218BF12F9011B01D10C3061
S113354030BD12F8015B002904F8015BF0D4491E78
S1133550F7D5EFE710B54FF480310B4A11600B4CEF
S113356021688B0903F03F0301F03F02837042702E
S1133570090B017010BD0648006801210A3000F0F3
S11335801F0001FA00F070476490005014C0075007
S11335900880E00F00F01EB80A49086800F0070030
S11335A0401E03280CD8DFE800F00902040700F0ED
S11335B0D9B9054800687047044870470448704703
S11335C0FEE700BF708000504011002080D5430208
S11335D0002D310180B5FFF7DFFF05490968C1F30C
S11335E00331491CB0FBF1F00249086002BD00BF81
S11335F0708000504C110020DFF800F0011E002004
S1133600BFF34F8FBFF36F8F30BF704770B5DFF8D4
S1133610F422DFF8F412DFF8F44250B94FF4003327
S1133620DFF8EC522B602468012C08BF0868106096
S113363070BD106800281CBF2268012AF8D00860F9
S11336408020FFF79DF9DFF8CC5205281DD14FF4F7
S1133650C070FFF740F80646012E04D102214FF452
S1133660C070FFF773F80720DFF8AC12086001227E
S11336702A60E068C107FCD5012ED9D101214FF49D
S1133680C070BDE87040FFF761B80120286070BDCC
S11336900278DFF8883201211A7000204DE0DFF84B
S11336A080120A68407822F4407242EA00220A60DA
S11336B0704738B504001CBF0020FFF7A7FF00F0D7
S11336C019F800F0ABF900F0CDF9DFF85802016801
S11336D04A0100F016F800F0C6F90546FFF78CFF22
S11336E0284600F0C4F900F0C7F900F04FFA04B11D
S11336F00EE011E0DFF83002016841F004010160DE
S1133700704704D5DFF82402DFF8241208607047FC
S11337100120BDE8324079E7BDE8314000F075BAD8
S1133720002073E7012071E7DFF808120A680079C6
S113373022F0300202430A60704710B50C4608B903
S1133740FFF72AFF754A117829B17C4A904202D2C8
S11337502146012001E021460220BDE810402DE968
S1133760F0410446764D286AC0F300100028FAD1CF
S1133770286AC0F38110A0423AD0FFF70DFF064635
S11337806D4F012C0BD16D498E4204D340F2A671CA
S11337903846FFF7C1FE01213046FFF745FC00F033
S11337A062F980464FF0007066490860204600F0D8
S11337B02EFA4FF48062601E8240EA6007E0286AB5
S11337C0810604D540F2BE713846FFF7A5FE28688D
S11337D0810102D4286A8106F1D5404600F047F9F8
S11337E0022C05D130460021BDE8F041FFF71CBC96
S11337F0BDE8F0814FF00042F8B5454B1A60524ADB
S113380001251560514BDD6B4AF6CD369E630024CD
S1133810002105F001054E4E4E4F90B91868C007BF
S11338200BD50122726000E0491C586AC20701D41A
S1133830B942F9D3B94228BF07240120306016E009
S1133840491C586A000701D5B942F9D3B9420DD2CF
S11338502020306201215160002000E0401CD96921
S11338608A0601D4B842F9D3B84200D307240DB173
S11338703948986300F0CCF92046F2BD38B54FF0D2
S11338800041234A11604AF6CD3201232E4C2360B5
S11338902E4CE56BA2634178304A05F001054900DE
S11338A041F0010111602268C17801B104218378DB
S11338B022F0740242EA03120A43226001798279F7
S11338C042EA0122A2604179C27942EA0122E2601D
S11338D00078FFF78FFF0DB11F48A06300F098F93F
S11338E0012032BD1E480168DFED050AC1F30A015B
S11338F000EE101ABBEECF0A30EE200A704700002B
S1133900339388C3C01500200081005004C00150C7
S11339106490005004D0015010E00150ED1D0020CF
S1133920744000506480005010ED00E00000FF0F70
S113393020E403506C40005000040000015A62026D
S1133940644000506460005004500950084009501D
S11339500460095040420F003254FFFF3C400050C5
S11339608840005001480068704700BF481100209B
S113397038B5144814490860144803684FF40041EA
S1133980134A43F4700303601160124C4FF0FF3389
S113399063654FF6DF71A16502228264BFF34F8F26
S11339A0BFF36F8F032000F0BAF94FF44035256060
S11339B0032000F05FF90848056031BD074908603D
S11339C0704700000000000008ED00E088ED00E012
S11339D0689000500CA0004410800044481100205E
S11339E001480068704700BF40110020004870473C
S11339F0002D31010048704780D54302014800681A
S1133A00704700BF441100204FF4004070474FF44A
S1133A107A7070470048704700B4C40480B50D49FB
S1133A20087898B10C4800220A700268012161F3F9
S1133A30020202600948016841F003010160426822
S1133A40032161F30202426000F0B6F90120044947
S1133A50086001BDF01D00207080005020810050DE
S1133A6074E000507047EFF3108072B6704710B9DD
S1133A7062B6BFF36F8F7047704702007CB50021B8
S1133A808DF800106846FFF703FE002000F05AF896
S1133A90544D2868544C4FF4002100F00300206179
S1133AA0524801604FF40032026000F087F94FF48D
S1133AB0C87000F0EEF9E36C206502460A2000218C
S1133AC000FB0233C8B2491C04EB8006C8B2726220
S1133AD00A28F7DBA078E36408B3296801F003013E
S1133AE0012904D028D3032923D01FD324E0FFF7CE
S1133AF077FF020013D03E4803683E4D501EC3F3C7
S1133B000B035B1C03EB83030021E5FB0301002390
S1133B1000F0D2F900F0BDF9E1694018E0611F201E
S1133B2000F0B7F9E1694018E06173BDFFF766FF83
S1133B30DFE7FFF75FFFDCE7F2212F48FFF7ECFC3C
S1133B40EDE7000038B5284D2978044688421CD09A
S1133B502DA210882100ADF8000014BF022000201F
S1133B608DF801006846FFF79AFD200006D040203A
S1133B7000F08FF90146E869401A04E0402000F0A3
S1133B8088F9E9694018E8612C7031BD10B501204D
S1133B901A4A1060144C6178F9B1022000F010FA4E
S1133BA0D8B100F01FFAC0B115480168CA0302D5A4
S1133BB041688A0711D40068C1070ED40120E0705F
S1133BC000F022FA20620F480268032161F3020226
S1133BD00260BDE8104000F0EFB810BD4FF4C870AB
S1133BE000F057B900810050C810002064900050C4
S1133BF00CC0015040420F004019000074D0005026
S1133C0058C0005070800050000200F009BA70479C
S1133C107047000010B500F005FA5F4A117871B9D9
S1133C200123137000F004FA6FF00404052160B25C
S1133C3000F080F8641C60B24028F7DB10BDBDE8DA
S1133C40104000F0F5B910B50446412C03D34FF4ED
S1133C50967100F036F8002C0BD4012104F01F00FB
S1133C6081404E4A640942F82410BFF34F8FBFF3DA
S1133C706F8F10BD10B50446412C03D340F23711A9
S1133C8000F01FF8002C07D4012104F01F0081402C
S1133C90434A640942F8241010BD10B50446402C70
S1133CA003D34FF4A17100F00CF83D49601151F8B1
S1133CB0200004F01F04E04000F0010080F0010047
S1133CC010BD3848FFF728BC10B5044604F10C00B9
S1133CD04C2803D34FF4AA71FFF7F3FFEFF31080DE
S1133CE0C00718D42046FFF7D8FFA0B9204600F03B
S1133CF044F80446EFF3118010B1B4EB101F0AD25C
S1133D0029480068C0F30800002806D0103800F0E5
S1133D1034F8844201D3012010BD002010BD0028D6
S1133D2007D4012200F01F018A40204B400943F8C8
S1133D302020704770B5044604F110020D46194E58
S1133D40512A04D340F20E213046FFF7E5FB102D33
S1133D5004D340F20F213046FFF7DEFB60B22901A5
S1133D6064B2002C02D4124A115470BD114B00F0FD
S1133D700F00181800F8041C70BD41B240B20028AE
S1133D8002D40B48405C05E00A4801F00F014118D9
S1133D9011F8040C00097047EE1D002080E100E0DA
S1133DA000E100E02814000004ED00E080E200E0FF
S1133DB000E400E018ED00E000F03FB930B5184829
S1133DC00268184902F007024A610068164A00F4C2
S1133DD0744088611068154A400800F0010088703A
S1133DE0486903281EBF106A00F0030002281EBFA2
S1133DF0506A00F00700022801D1012300E00023EB
S1133E008D7883F00104254207D0180004D110688E
S1133E1000F00300012800D101234B7030BD00BF26
S1133E2070800050C810002018C00150008100505C
S1133E3038B5FFF718FE04461A4800F000F91A4D89
S1133E40287878B900F017F900F01CF90020A8616F
S1133E5000F01AF928611548016841F00101016078
S1133E6000F018F9FFF70AFEFFF7B8FE68610120B9
S1133E7028702046FFF7FBFD002032BD10B5FFF788
S1133E80F2FD044600F010F92046BDE81040FFF7AB
S1133E90EEBD054B1A690649064B02FB0010B0FB48
S1133EA0F3F07047C8090000741C002074400050EF
S1133EB03F420F0040420F00D3BBD9B1B2F5803F5F
S1133EC05BD2022A1ED98C46B1FBF2F102FB11C36C
S1133ED01B0443EA1043B3FBF2FC02FB1C3380B225
S1133EE040EA0343B3FBF2F002FB103240EA0C4019
S1133EF000237047022A05D98446B0FBF2F002FB86
S1133F0010C270474AB105D100F0010249085FEAC6
S1133F103000704700220023704700F0E7B80B0020
S1133F200200002100207047F7D3002200237047CD
S1133F30904271EB030CF2D370B5B1FA81F4B3FA89
S1133F4083F52C1BA340C4F1200532FA05F6334354
S1133F50A2405FF00046E64002E05B085FEA3202FE
S1133F60841A71EB030524BF204629467641F4D315
S1133F7002000B003000002170BD70B5B1FA81F46D
S1133F80B2FA82F5C4F120046419B4F12006DAD33C
S1133F90B2405FF00044F440002502E052085FEABA
S1133FA03303C61A71EB020E24BF304671466441D6
S1133FB06D41F3D302000B002000290070BD000006
S1133FC001460020064A1268012905D0022905D1BC
S1133FD0900900F00100704702F00100704700BF33
S1133FE01400005838B5074D6C78200007D000F055
S1133FF00BF8EA689169401A032828BF0024204678
S113400032BD00BFB41C002038B500F00BF80446E4
S113401000F06EF80546204600F00AF8284632BD46
S1134020FFF7D8BAEFF31180302181F3118870477C
S113403080F31188BFF36F8F7047FFF7CBBA01216C
S113404000F05EB838B504466160FFF70CFD054624
S113405021460B4800F067F82846BDE83240FFF7D8
S113406006BD38B50446FFF7FEFC05462146044864
S113407000F08AF8F0E7024800F052B800000000AF
S1134080B01C00207047000001488068704700BFE2
S1134090B41C0020E0B5002000908DF804006846B0
S11340A0FFF742FB07BD000010B50F4CE079012873
S11340B018D1607A18B100F07BF8002060720020FB
S11340C000F0B6F850B100F0B5F80020E071607867
S11340D0012100F0D9F80120607010BD0121A17107
S11340E06078607110BD00BF741C00207047000030
S11340F0024881680A07FCD4006870472000005811
S11341001CB50C46002301936A4601A900F0F8F897
S113411028B900990198224600F008F9002016BD3C
S113412000210160704738B504460D0018BF002C0B
S113413002D1372100F022F821682960256031BDC1
S113414038B50C00054618BF002804D1452100F0FD
S113415015F800E0054628680028FBD120602C6093
S113416031BD10B5040002D1562100F007F82068D3
S113417018B1016800222160026010BD0148FFF7F8
S1134180CBB900009C1B000038B504460D0018BFD5
S1134190002C04D18921FFF7F1FF00E004462068D8
S11341A028B1A842FAD1286800212060296031BDD5
S11341B038B51C4C6078A0B3E078A0B91A480168FF
S11341C0CA0302D541688A072BD40068C10728D4E2
S11341D0FFF71AFF206215480268032161F3020207
S11341E00260FFF7E9FDFFF70FFF216A2279401A09
S11341F0E36C04EB8205521C696AD2B268625B1AF2
S11342000A2192FBF1F1C31803F109000A25B0FB5E
S1134210F5F50A2000FB11222565E36422710022D2
S1134220E27031BDC810002058C0005070800050AA
S11342300120704710B5FFF775FA0F490F4A0B6854
S11342405069DB0840EAC3030B600D4B19689068A2
S1134250890840EA810119605C68D168E40841EA90
S1134260C4045C60507810B1012106480160BDE8C7
S11342701040FFF7A1BD00BF70800050C81000209F
S11342802081005028E00050F8B505460E4600276E
S1134290194C300003D0022E05D002D305E00127CB
S11342A007E0042705E0102703E0B3212046FFF7C9
S11342B033F9280003D0022D07D003D308E047F0D8
S11342C0020709E047F0080706E047F0200703E08B
S11342D0C4212046FFF720F90848046808E0626812
S11342E01068384203D05268314628469047246803
S11342F0002CF4D1F1BD00BF98180000B01C0020C0
S113430078B1037803F03F0313600068064AC0F3F2
S1134310821010B90A6000207047012808BF121DDE
S1134320F8D00E20704700BF6480005070B50E4670
S113433005461446202E04D39121DFF82000FFF710
S1134340EBF8002C14BF05F5805505F50055012048
S113435000FA06F62E6070BD00207047A008000029
S11343602DE9F84FDFF8CCA59AF800609AB0DFF891
S1134370C8556C793746391DBA1E0C200591019237
S113438010FB04F0E978321DD2B295F802C0039212
S113439006900491B21FB31E95F806B0D2B25FFA2C
S11343A083F995F80480DFF89405DFF89415BCF1DF
S11343B0000F26D0BCF1010F10D0BCF1020F11D0B8
S11343C0BCF1030F12D0BCF1040F13D0BCF1050FE4
S11343D014D0BCF1100F14D0BCF1110F00F0A48064
S11343E0BCF1120F00F00981BCF1130F00F05581EC
S11343F0BCF1140F00F07881BCF1150F00F0B98105
S1134400F0E1BCF1100F0CBF02910290202107A82B
S113441000F0B0FA0021002600918A46062FEFDD55
S113442005982028ECD804990229E9DA4FF4987009
S1134430029A414350187C3000EB840101F1A00240
S113444000F59673B8F1090FDAD8DFE818F00A001E
S1134450100016001C00220028002F003E0041001E
S11344604400082FCCDB092CCADC08681CE0082FA8
S1134470C6DB092CC4DC886A16E0082FC0DB092CD3
S1134480BEDC086D10E0082FBADB092CB8DC886F9D
S11344900AE0082FB4DB092CB2DC106804E0082F12
S11344A0AEDB092CACDC906A009017E0082FA7DD86
S11344B0052CA5DABBF1020FA2DC0699401800EB2B
S11344C08B03D3F8F020009208E093F800A004E0F6
S11344D093F801A001E093F802A00126019A039F3A
S11344E0294607A8FDF78EFD07A88DF81D704844DE
S11344F08EB180F800A000210DF11D0000F8091014
S113450000220DF11E0101F8092000200DF11F0207
S113451002F8090001E0009A0260394607A800F099
S113452065FA3A4607A91FE1BCF1110F06BF084618
S113453001210221002300930A2F6BDD049E022E29
S113454043DA4FF498735E4380197C3000F5967318
S1134550B8F1090F65D8DFE818F00A001100170058
S11345601D0023002A003500460049004C00092C98
S11345702BDCAE58009640F824603CE0092C24DC87
S113458000F033F9866236E0092C1EDC00F02DF9C8
S1134590066530E0092C18DC00F027F986672AE06C
S11345A0092C12DC00F021F9C0F8A06023E0092CEA
S11345B00BDCAE580096009A00EB840606F1A000CE
S11345C0826218E00C2F25DD052C80F20B81BBF1F3
S11345D0020FFADCAE58069A8018009600EB8B03A3
S11345E0C3F8F06007E0AA5C1A7004E0A85C587095
S11345F001E0AA5C9A70084671E0BCF1120F0CBF8E
S11346008A468246202106A800F0B4F90026002438
S11346100096062F40F3E6800598202898BFB8F14D
S1134620040F00F2DF80DFE808F00306090D100034
S11346309AF8006004E09AF8016001E09AF80260D8
S1134640012405E0DAF8040001E0DAF8080000903B
S1134650019A039F294606A8FDF7D4FC06A88DF805
S11346601970484484B1067000210DF1190000F856
S1134670091000220DF11A0101F8092000200DF1A2
S11346801B0202F8090001E0009A0260394606A8FC
S113469000F0ACF93A4606A966E0BCF1130F0EBF70
S11346A0012001460220002300930A2F29DDB8F1DE
S11346B0040F43D8DFE808F00306090C1000AA5CD5
S11346C00A700CE0AB5C4B7009E0AE5C8E7006E0E7
S11346D0AE5800964E6002E0AE5800968E6000F030
S11346E0CAF9002844D176E0BCF1140F0CBF0C4683
S11346F00446602102A800F03DF94FF0000AD346B9
S1134700062F6FDDB8F1030F12D8DFE808F00207B7
S11347100A0D04F10C0A4FF0100B09E004F11C0A15
S113472004E004F13C0A01E004F15C0A4FF0200BC0
S1134730BAF1000F56D007EB0B00602852D8019A4B
S11347405E44294602A8F6B2FDF75CFC02A88DF887
S113475009605A4651464844FDF754FC314602A8C4
S113476000F044F9324602A97648006800F0B4FA31
S113477038E0BCF1150F0EBF4FF0010901464FF0B0
S1134780020900208646172F2CDBB8F1030F12D83C
S1134790DFE808F002070A0D01F10C004FF0100EDB
S11347A009E001F11C0004E001F13C0001E001F129
S11347B05C004FF0200EA8B1F11F7246C9B29142BD
S11347C010D1A3EB0E03DBB2E918FDF71BFC48463E
S11347D000F051F930B95B489AF800200068294686
S11347E000F07AFA1BB0BDE8F08FAE5800EB8400FD
S11347F00096704710B54F4C207886B00A285BDDD0
S11348004D480178022901BF41783129007A3028C6
S113481052D1092254A16846FDF7F4FB002000F0B0
S1134820D9F9DFED420A20EE200ABDEEC00A10EEEF
S1134830101A8DF80C100A1408168DF80A208DF839
S11348400900081202218DF80D103F490A688DF8FD
S11348500B00DFED370A100A8DF80E0048688DF85A
S11348600F20010A8DF8101038498DF8110091EDD0
S1134870000A70EE200AFDEEE00A10EE900A8DF8B0
S1134880120010210DF1030000F083F88DF81400DC
S1134890010A7D208DF813108DF815001621684645
S11348A000F06BF88DF81600264800681722694658
S11348B000F012FA0020207006B010BD10B5FFF70A
S11348C099FF1D480178AA290DD11A4C2278042A8F
S11348D009DB41788A4206D100F073F808B1FFF78A
S11348E03FFD0020207010BD10B5194A114C13680B
S11348F061685B1A022B24BF002323701168616076
S1134900217840290AD30F4B1868102211A100F016
S1134910E3F9002121704FF0FF3010BD064A5054D6
S1134920491C2170FFF7CAFF002010BD0000C842D7
S11349300000FE425C1200201C1200201014002013
S113494064120020701000201412002004100020B3
S1134950E41D0020525820627566666572206675F3
S11349606C6C0D0A000000000231137B591000002A
S113497030000000002200F0DBB9024610B5002030
S1134980002302E0D45C5B1C00198B42FAD3C0B252
S113499010BD30B503464FF6FF70002400E0641CE0
S11349A08C420DD21A5D504008224508C00752BF00
S11349B0284685F4204080F00100521EF5D1EEE730
S11349C030BD38B504000D460ED0032D0CD3A91EFE
S11349D0FFF7DFFF6119891E4A78097842EA01224C
S11349E0904201D1012032BD002032BD38B504000F
S11349F00D4609D0032D07D3A91EFFF7CAFF61197D
S1134A00020A01F8022D487031BD000070B59F4DB7
S1134A1028689F4C04232246212101F0AFFD2D2854
S1134A2002D10020206000E018BB2868994C4FF4A4
S1134A30D6732246222101F0A1FD2D2806D10020A3
S1134A400121FF2220706170A27000E088B92868FB
S1134A50914E4FF4D6733246232101F08FFD2D2859
S1134A6005D13046214600F045F8002070BD0028ED
S1134A70FBD0012070BD10B584490C6818B1022820
S1134A8010D00AD313E00423814A2121204601F0E7
S1134A9037FD00B10120C0B210BD4FF4D6737D4A7A
S1134AA02221F3E74FF4D6737B4A2321EEE701205A
S1134AB010BD00001CB5FFF7A9FF774C0021217041
S1134AC079A2108800220421ADF80000684601F0A4
S1134AD08FFEFF20A07001F02BFF60786F490870F3
S1134AE00020FFF7C8FF0120FFF7C5FF0220FFF7F2
S1134AF0C2FF13BD4FF4D672FDF784BA644801684F
S1134B00491C01600020B6E730B5002A03DD002807
S1134B1018BF002902D19FED5B0A30BD012A06D0DF
S1134B20D0ED000AF4EE400AF1EE10FA02DB91ED4A
S1134B30000A30BD00EB82031C1FD4ED000AB4EE62
S1134B40600AF1EE10FA03DB01EB8200011FEEE7CD
S1134B500023521ED41A012C1FDD04EBD474DFEDA4
S1134B604A1A03EB640400EB8405D5ED000A30EE29
S1134B70C01AB0EEC11AB4EE611AF1EE10FA04D5FF
S1134B8001EB840090ED000A30BDF4EE400AF1EE32
S1134B9010FA54BF22462346DCE700EB830401EB02
S1134BA0830301EB820100EB8200D4ED000A93ED54
S1134BB0001AD1ED001A71EEC11A30EE600A90EDC0
S1134BC0002A21EE800A72EE600AC0EE200A30EE5E
S1134BD0810A30BD4FF4987238B512FB00F2304BA5
S1134BE003EB80002DED028B2B498C1890ED000A0D
S1134BF004F5D475B8EE400A0A2204F1A40104F1C4
S1134C007C00FFF781FF6878B0EE408A58B12549EF
S1134C100A2291ED000A04F5A27104F58E70FFF7E3
S1134C2073FF30EE088A287850B1B0EE480A0A22A1
S1134C3004F1F40104F1CC00FFF766FF30EE088ABA
S1134C40A878C8B100200C214143611801F5B67160
S1134C5091ED000AB4EE408AF1EE10FAA2BFD1ED54
S1134C60010AF4EE480AF1EE10FA03DA401C0528B2
S1134C70E9DB01E091ED028AB0EE480ABDEC028B5B
S1134C8031BD0000FFFF7FFFBD37863508100020CF
S1134C90BC15002064120020101400200010002015
S1134CA014120020041000200000000010B5044677
S1134CB0FFF7B8F907490C60FFF7BAF9002010BDF7
S1134CC010B5FFF7AFF903490C68FFF7B1F92046B7
S1134CD010BD0000DC19002038B50C46154608B993
S1134CE0FFF7EEFF00281CBF4368002B06D00068C6
S1134CF02A46214601B0BDE830401847232032BD82
S1134D00F8B50D4616461C466F4608B9FFF7D8FF9E
S1134D1004B1274600281CBFC468002C05D00068D5
S1134D203B4632462946A047F2BD2320F2BD00008F
S1134D3000B500BF130096469446103928BFA0E87A
S1134D400C50FAD85FEA417C28BF0CC048BF40F839
S1134D50042BC90728BF20F8022B48BF00F8012BF9
S1134D6000BD00004169426C091FCB1DA2F1140073
S1134D70B3FBF0F301EBC301C91DB1FBF0F0401C20
S1134D80B2F5805F02D1012888BF0120401C704722
S1134D9038B504460D46FFF7E5FF616CA1F1140236
S1134DA05043B1F5805F05D1616940F6E9739942DA
S1134DB028BFCC302818ED1DB5FBF2F1491C00EBDF
S1134DC0C10032BD10B504466169FFF7E1FF6169B6
S1134DD0626C0818C91D143AB1FBF2F1491C00EBCE
S1134DE0C100A169081810BD80B5FFF7EBFF001DD5
S1134DF002BD10B5436CCA1D006B143BB2FBF3F447
S1134E00641C01EBC401884206E010B50446FFF7B8
S1134E10BFFFFFE7216B81428041C043C00F10BD3B
S1134E20401870470268406C41435018704702684C
S1134E30406C891AB1FBF0F07047406C401EC043CF
S1134E4001400240914201D1012070470020704787
S1134E50F0B585B005460C46002600E0761CE869EE
S1134E60401E86420ED2002C14BF641E0446214606
S1134E7000F038FF00F007F800F0E8FD01F05BFEF9
S1134E800028EBD05FE0EF6B052269467B69184789
S1134E90426C501E0140501A7047406C401E08403E
S1134EA07047F0B585B00446FFF7C1FF05460026FC
S1134EB000E0761CE069411E8E4211D26D1CB5FBE8
S1134EC0F0F200FB125520462946FFF7ABFFE76BD3
S1134ED0FFF7DAFF00F0BAFD01F02DFE0028E8D05C
S1134EE000F004F801F037FE05B0F0BD2946204675
S1134EF098E7F0B585B00546EE6AA86A00248642B4
S1134F001ED16C68E9696FF0130000FB01441AE0DC
S1134F1031462846FFF78BFF014600F0E3FEFFF71A
S1134F20B2FF00F093FD012806D031462846FFF772
S1134F30B4FF696C0C19241A314600F0E3FF0646ED
S1134F40A86A8642E4D1204605B0F0BDF8B50D4606
S1134F5004462E46002701E03F1D361D32462946F1
S1134F6000F03FF860B1D4F83CC001226946DCF897
S1134F70143030469847009810F1010FECD0002708
S1134F803846F2BDC0F31301814201D101207047BC
S1134F900020704790F84200012801D16420704736
S1134FA03220704790F84200012801D10220704756
S1134FB00120704770B504460D465619980806EB53
S1134FC0800613F0030F18BF361D2A4600F008F8B8
S1134FD020B929462046FFF764FF0646304670BDD7
S1134FE03146204629E72DE9FF4F0FF26441086856
S1134FF091B0129A0A9011981169FFF7FAFE08B954
S11350001C2022E2119900240026C86A0C90A246B2
S11350100146DFF8680C01F063FE12999DF85020F8
S11350200C9D0869A046A14603901298022AC16803
S11350308DF809400B910BD10398CC2846D19DF8EB
S11350404C00002845D01299119800F0B0FF06904A
S113505011982946FFF71CFF07460398792802D2C6
S11350601298C17D01B101219DF84C0058B1119BEA
S113507012980122D3F83CC0406800F035FD684620
S113508001F00FFE014600290CBF042008200399FB
S11350900990792922D203998DF80840091D8F427D
S11350A003D20398C0B94FF0040804200590129865
S11350B0DFF8C87B01683960039A3A619DF80810EB
S11350C09DF8500001F026FE38753DE170220092F3
S11350D0BAE109680691BBE7082FE4D90121082247
S11350E08DF808100592E2E7059A9142C0F03A81E2
S11350F00598039A4FF00008091A914288BF114697
S11351000491059907952846FFF78AFE05460498F9
S1135110039988420BD00122FA75039839698842B1
S113512003BF9246079878604FF0020A06E05FEAF0
S11351300A0018BF4FF0030AF87D98B1397E079A28
S113514007EBC100C261397E049A07F1200020F800
S11351503120387E07EBC00181F822A0387E401C44
S1135160387601E007987860049904988944CDF86A
S11351703C90002800F0C0809DF85000022844D1E3
S11351809DF80900002875D1B9F1040F72D3119B61
S1135190012206A9DC6B2846A369984704001BD1A9
S11351A001208DF809009DF80800CDF804A0049BA7
S11351B0009012983A7D01680DA801F0F2FC119B51
S11351C0059A0798DC6B92080DA9A3699847040017
S11351D001D007980A9093E000944CB13D2C13D170
S11351E0119EDDF848A0DDF82880DDF83090DFE07E
S11351F0B8681199C862129911989DF850307A686C
S11352000968083001F012FE1EE19DF84C0090BBC5
S113521001918908DDF82C90AB46009113D0119BC5
S11352200A464946DC6B5846A369984704460098E9
S1135230019909EB800902466FF0030000FB02119B
S11352400BEB820B01918CB9019878B14FF0FF31CF
S1135250019A009149466846FCF7D4FE119B01224D
S11352606946DC6B5846A369984704460B98049931
S113527041180B9140E0894602E0A9F104092D1D73
S1135280129A1298D17D406821B909997118FFF7D3
S1135290C7FD1AE0129C31460022DDF824B004F167
S11352A0200C02E0521CC91AD2B2237E9A4209DAB7
S11352B03CF832309942F5D204EBC200C06959443B
S11352C0FFF7AEFD1294CDF824B0119B012269467C
S11352D0DC6B361D63699847119B0098019001228D
S11352E00890DC6B08A92846A36998470446B9F1DD
S11352F0040F01D9002CC0D0002C3FF454AF0A9500
S1135300049B059A07991198FFF754FEB860119809
S1135310049A016B0598D21C9208091A1198A1EB02
S11353208201002C01637FF457AF03990498DDF8E0
S11353303C90091A039111982946FFF7B2FD0546DE
S1135340039800283FF448AF11982946FFF7A0FDC1
S11353500146039800283FF4C7AE059840448842AC
S1135360FFF4C6AE11984FF00008026B511A0163A6
S1135370E1E7002539463046FFF754FD0146F06B5E
S113538001F059FB304600F046FB304600F061FB6B
S1135390304600F0ADFB3046FFF7ABFD3063002D27
S11353A042D0DAF810103046FFF723FD00283ED033
S11353B049463046FFF73BFD054629463046FFF790
S11353C031FD01F0C8FBF16A83463046FFF769FD01
S11353D0B16A88422BD0F062DFF8A00881683046B9
S11353E0A9EB0B04FFF754FD316B081A30634146F7
S11353F03046FFF71CFD0746AF42BAD1002CB8D0A7
S1135400F56BF06AA208AB69594698470546F06AFD
S11354102146FFF705FDF062306B041B346306F18F
S1135420080001F0BEFCA5E7304600F085FECDF88B
S113543048A0129A1196CDF8288011691198FFF7A7
S1135440D8FC00287FF4DEAD009815B0BDE8F08FDD
S1135450000000002DE9F8430546686998460E46A9
S11354609146404538BF622044D300248DF8004063
S113547000E0641C69692846FFF7C7FC38B9286A4C
S1135480B4EB400F03D200F039F80028F1D09DF8B6
S11354900000012801D100F031F8089CE0B2032893
S11354A004D041462846FFF7B0FC28B3DFF8507A11
S11354B04FF0FF31384601F013FC3E60C7F810800E
S11354C0C7F80C90E3B2002239462846FFF78BFD5B
S11354D0044605F15006306958B1284601F03CF9FC
S11354E03078002804BF307A002802D03169304671
S11354F088472046BDE8F2831C20FBE7002269466A
S1135500284600F063BC2DE9F94F85B01098884611
S11355101099D0F804A0029308691646984242D222
S1135520632096E001A801F0BDFB0546042D4DD192
S113553001A801F0BFFB044629465046FFF770FC62
S113554083469DF84400002854D1B44247D2002732
S1135550361B3D46AC0810D0059B22464146D3F885
S11355603CC058460BEB840BDCF8143008EB840881
S113557098476FF0030000FB045565B1059B0122B9
S11355806946DC6B5846636998472A466946404633
S1135590FCF738FDA84402985146C71B02970598AA
S11355A0FFF77FFC82460298002852D0059B012217
S11355B001A9DC6B50466369984701A801F06DFBB3
S11355C010990A689042ADD06F2042E0059B0222F8
S11355D003A9DC6B50466369984703A8A9E70699B9
S11355E0B344A61B8E4288BF0E463746C81B00260E
S11355F00690AEE72746B946A408059D14E0D5F801
S11356003CC001226946DCF814305846984704220D
S11356106946404601F0E2FCD0B9641EA9F10409D0
S11356200BF1040B08F10408002CE8D10595584649
S1135630B9F1000FAFD0ED6B012269466B69984751
S11356404A466946404601F0C9FC08B9C844A2E785
S11356503620DDE12DE9F04F9A46814609F12C030D
S113566085B01D698846174678686B69012202A9CE
S1135670984709F12C031D69012201A96B69404671
S11356800024984702A84FF0FF3501F0F3FA20B147
S11356900020B8757875BD6005E101A801F0FDFA38
S11356A00121B9753A7E07F1200107EBC203C3F863
S11356B01C803A7E21F832407968884506D13860EA
S11356C001A801F009FB3875BD601EE03968884205
S11356D018BFBC7501A801F0FFFA397D884218BFD4
S11356E0BC7501A801F0DDFA054602A801F0D9FA5B
S11356F0854218BFBC7501A801F0D4FA054602A87A
S113570001F0D0FA854218BFBC75387D04281CBF4F
S11357100528062802D10020B875C4E001A801F0CC
S1135720C0FA48B109F12C031D69022203A96B696F
S11357304046984703A800E001A801F0BBFA397D70
S1135740022902D003290CD006E0397E07F120009B
S1135750CC2220F8312004E03A7E07F1200121F820
S11357603200387D01F0E2FA0E99087001A801F0C8
S113577089FA3A7E07F1220101F83200397E07F1F5
S1135780200000EBC1000688857801A801F089FAA1
S1135790834601A801F086FA0090BBF1000F0DD0FA
S11357A009F12C03D3F810C0022203A9DCF8143049
S11357B04046984703A801F047FA02E001A801F027
S11357C029FA7875787D00B9BC75B87D002848D071
S11357D096B100994046FFF723FB8346424659465B
S11357E04846FFF72AFB00B9B87559464846FFF703
S11357F04FFBB04238BFBC75B87D90B315B9F87D86
S1135800B8B91BE00121F975787E80B9012D08BF74
S1135810797613D009F12C01087A002802BF0968AF
S113582011F1010F032D04D10120B87606E0012DFA
S113583001D1012402E0032D08BFB976B87D80B1FF
S11358401CB1012D18BF002D06D0009A33464146E5
S11358504846FFF7AFFBB860B87D10B13869361819
S11358603E61DFF8D41A387E0A78904239BF401C72
S113587038760020B875BAF1000F1CBFB87D002837
S113588010D0F87D70B16CB9032D1CBFB96811F14B
S1135890010F07D00E9801233A4600904846FFF7BF
S11358A0D9FEB875B87D1BE138B50C4600252576C0
S11358B00093616813462246FFF7CCFE28B1E07DD1
S11358C008B1A07E00B10120A075A07D32BD2DE9F4
S11358D0F04F87B005468846914600271E46ADF82E
S11358E000704FF0FF31484601F0FAF94046FFF7E7
S11358F049FBC0B10DF10202414605F1080001F077
S113590075FA10F1010F0ED00146484601F0E8F98E
S11359106B46012249462846FFF7C6FF18B19DF899
S11359200000012730706FF00104A04504D0002F5F
S11359306BD1287C00286AD0E96A11F1010F03D1E8
S1135940696A00F0CBF902E02846FFF770FA824654
S1135950A04514BF01240024696A8A4504BF0120BC
S11359608DF80100514600F0BDF9D5F83CC08346DE
S113597000F0E7FC02A9984702A801F0B4F801F08E
S1135980DAF8584601F0E7F8834601901EE05946DC
S1135990BA4801F0A5F96B462246B8492846FFF7F4
S11359A083FF80B1002C1EBFB448016888450AD12A
S11359B09DF80000DFF8441B012730700A68AF49E6
S11359C04846FCF71FFBAD48D0F808B01BF1010FA7
S11359D006D0019A59462846FFF72FFA0028D6D157
S11359E0514600F07BF982469DF801003843B3D05C
S11359F06FB14046FFF7C6FA38B13378D9F80420BE
S1135A00414605F1080001F011FA002000E02D20C4
S1135A1007B0BDE8F08F78B5044685B00020206259
S1135A2000250DE0FFF762FAE66B00F053F900F091
S1135A300DF801F080F810B1206A401C20626D1C42
S1135A40E0698542EED3206A06B070BD684601F075
S1135A504AB82DE9F04F85B004464FF0FF350027D2
S1135A604FF6FF782E46C4F824802762B94620E01A
S1135A704946FFF73CFAD4F83CC000F034F8FFF78D
S1135A80E5FF834600F023F98246584601F053F8B7
S1135A9068B1206A401C2062AA4538BFC4F824902B
S1135AA0B24598BF5646BA4528BF5746554609F1F0
S1135AB00109E0698145DBD3BE1B012E10D9C4F86E
S1135AC02480002509E0FFF711FAE66B05226946F8
S1135AD073696D1C984700F0FAF8E0698542F2D3C7
S1135AE005B0BDE8F08F05226946DCF8143018478C
S1135AF010B50446616AFFF795F901F02CF8A0622D
S1135B0010BD2DE9F84304460D4690469946A66A11
S1135B10DFF8E07AE06A864218BF16F1010F21D05F
S1135B203146384601F0DCF86B46012239462046FE
S1135B30FFF7BAFE30B19DF800204B4639462046A7
S1135B40C04778B1BE6816F1010F04D179682046C8
S1135B50FFF7A7F90646012DDCD17A68FFF740FA72
S1135B600028D7D1BDE8F1832DE9FC41089C1546F6
S1135B70032A2068064618D0DFF884736B463A4639
S1135B80FFF7A5FE606080B920687968826AFFF734
S1135B9054F950B1207A01280DD13A69E06871694D
S1135BA08218914207D200212174207A01280CBF67
S1135BB0207C012027E02068816AFFF738F98046BD
S1135BC02068C16AFFF733F980450DD1706C316BE1
S1135BD0F26A091A401E1040401830632068816A36
S1135BE0FFF75FF92168C862E16838692B46012232
S1135BF041180831E16020683946FFF7F4F9606024
S1135C000028D2D00020BDE8F6812DE9FC411746DA
S1135C1005460E461C46032F1BD03168DFF8E08290
S1135C206B464246FFF753FE606090B900F0EBFC10
S1135C300FD0D8F80400716888420AD1E26830694C
S1135C40217A801801290AD16969814207D200208A
S1135C502074207A01280CBF207C01200BE008303E
S1135C60E0603B46012231462846FFF7BCF96060FC
S1135C700028EED00020BDE8F681000018170020AF
S1135C8078B585B005460C46FFF7CCF8EE6B00F00E
S1135C9021F8FFF7DBFE00F04EFF10B100F017F81B
S1135CA013E0214600F01AF80646314600F01AF8CF
S1135CB0ED6B052269466B69984700F008F810F10E
S1135CC0010F02D0B44238BF401C06B070BD684614
S1135CD000F0E1BE05226946736918472846FFF7BC
S1135CE0B7B8696A2846FFF79DB838B50446154623
